{
  "contractName": "AcceptanceVoting",
  "abi": [
    {
      "inputs": [
        {
          "internalType": "contract User",
          "name": "_userContract",
          "type": "address"
        }
      ],
      "stateMutability": "nonpayable",
      "type": "constructor"
    },
    {
      "anonymous": false,
      "inputs": [
        {
          "indexed": false,
          "internalType": "address",
          "name": "voter",
          "type": "address"
        },
        {
          "indexed": false,
          "internalType": "uint256",
          "name": "val",
          "type": "uint256"
        },
        {
          "indexed": false,
          "internalType": "uint256",
          "name": "contract_balance",
          "type": "uint256"
        },
        {
          "indexed": false,
          "internalType": "uint256",
          "name": "acc_balance",
          "type": "uint256"
        }
      ],
      "name": "fee_distributed",
      "type": "event"
    },
    {
      "anonymous": false,
      "inputs": [
        {
          "indexed": false,
          "internalType": "uint256",
          "name": "reportId",
          "type": "uint256"
        },
        {
          "indexed": false,
          "internalType": "uint256",
          "name": "blockNumber",
          "type": "uint256"
        }
      ],
      "name": "vote_close",
      "type": "event"
    },
    {
      "anonymous": false,
      "inputs": [
        {
          "indexed": false,
          "internalType": "uint256",
          "name": "reportId",
          "type": "uint256"
        },
        {
          "indexed": false,
          "internalType": "uint256",
          "name": "blockNumber",
          "type": "uint256"
        }
      ],
      "name": "vote_open",
      "type": "event"
    },
    {
      "anonymous": false,
      "inputs": [
        {
          "indexed": false,
          "internalType": "string",
          "name": "outcome",
          "type": "string"
        },
        {
          "indexed": false,
          "internalType": "uint256",
          "name": "reportId",
          "type": "uint256"
        },
        {
          "indexed": false,
          "internalType": "uint256",
          "name": "score",
          "type": "uint256"
        }
      ],
      "name": "vote_results_accepted",
      "type": "event"
    },
    {
      "anonymous": false,
      "inputs": [
        {
          "indexed": false,
          "internalType": "string",
          "name": "outcome",
          "type": "string"
        },
        {
          "indexed": false,
          "internalType": "uint256",
          "name": "reportId",
          "type": "uint256"
        },
        {
          "indexed": false,
          "internalType": "uint256",
          "name": "score",
          "type": "uint256"
        }
      ],
      "name": "vote_results_rejected",
      "type": "event"
    },
    {
      "anonymous": false,
      "inputs": [
        {
          "indexed": false,
          "internalType": "address",
          "name": "user",
          "type": "address"
        },
        {
          "indexed": false,
          "internalType": "bool",
          "name": "factualAccuracy",
          "type": "bool"
        },
        {
          "indexed": false,
          "internalType": "bool",
          "name": "maliciousIntent",
          "type": "bool"
        },
        {
          "indexed": false,
          "internalType": "bool",
          "name": "harmfulConsequences",
          "type": "bool"
        },
        {
          "indexed": false,
          "internalType": "bool",
          "name": "contentManipulation",
          "type": "bool"
        },
        {
          "indexed": false,
          "internalType": "bool",
          "name": "violationOfPlatformPolicies",
          "type": "bool"
        }
      ],
      "name": "voted",
      "type": "event"
    },
    {
      "anonymous": false,
      "inputs": [
        {
          "indexed": false,
          "internalType": "address",
          "name": "user",
          "type": "address"
        }
      ],
      "name": "voter_added",
      "type": "event"
    },
    {
      "inputs": [
        {
          "internalType": "uint256",
          "name": "",
          "type": "uint256"
        },
        {
          "internalType": "string",
          "name": "",
          "type": "string"
        }
      ],
      "name": "criteria",
      "outputs": [
        {
          "internalType": "uint256",
          "name": "regularUserVotes",
          "type": "uint256"
        },
        {
          "internalType": "uint256",
          "name": "verifiedVerifierVotes",
          "type": "uint256"
        }
      ],
      "stateMutability": "view",
      "type": "function",
      "constant": true
    },
    {
      "inputs": [],
      "name": "userContract",
      "outputs": [
        {
          "internalType": "contract User",
          "name": "",
          "type": "address"
        }
      ],
      "stateMutability": "view",
      "type": "function",
      "constant": true
    },
    {
      "inputs": [
        {
          "internalType": "uint256",
          "name": "reportId",
          "type": "uint256"
        },
        {
          "internalType": "bool",
          "name": "factualAccuracy",
          "type": "bool"
        },
        {
          "internalType": "bool",
          "name": "maliciousIntent",
          "type": "bool"
        },
        {
          "internalType": "bool",
          "name": "contentManipulation",
          "type": "bool"
        },
        {
          "internalType": "bool",
          "name": "harmfulConsequences",
          "type": "bool"
        },
        {
          "internalType": "bool",
          "name": "violationOfPlatformPolicies",
          "type": "bool"
        }
      ],
      "name": "vote",
      "outputs": [],
      "stateMutability": "payable",
      "type": "function",
      "payable": true
    },
    {
      "inputs": [
        {
          "internalType": "uint256",
          "name": "reportId",
          "type": "uint256"
        }
      ],
      "name": "openVote",
      "outputs": [],
      "stateMutability": "nonpayable",
      "type": "function"
    },
    {
      "inputs": [
        {
          "internalType": "string",
          "name": "criterionName",
          "type": "string"
        },
        {
          "internalType": "uint256",
          "name": "reportId",
          "type": "uint256"
        }
      ],
      "name": "getCriterionScore",
      "outputs": [
        {
          "internalType": "uint256",
          "name": "",
          "type": "uint256"
        }
      ],
      "stateMutability": "view",
      "type": "function",
      "constant": true
    },
    {
      "inputs": [
        {
          "internalType": "uint256",
          "name": "reportId",
          "type": "uint256"
        }
      ],
      "name": "calculateScore",
      "outputs": [],
      "stateMutability": "nonpayable",
      "type": "function"
    },
    {
      "inputs": [
        {
          "internalType": "uint256",
          "name": "reportId",
          "type": "uint256"
        }
      ],
      "name": "closeVote",
      "outputs": [],
      "stateMutability": "nonpayable",
      "type": "function"
    },
    {
      "inputs": [
        {
          "internalType": "uint256",
          "name": "reportId",
          "type": "uint256"
        }
      ],
      "name": "distributeFee",
      "outputs": [],
      "stateMutability": "payable",
      "type": "function",
      "payable": true
    },
    {
      "inputs": [
        {
          "internalType": "address",
          "name": "user",
          "type": "address"
        }
      ],
      "name": "addVoter",
      "outputs": [],
      "stateMutability": "nonpayable",
      "type": "function"
    },
    {
      "inputs": [
        {
          "internalType": "uint256",
          "name": "reportId",
          "type": "uint256"
        }
      ],
      "name": "getVotingState",
      "outputs": [
        {
          "internalType": "enum AcceptanceVoting.VotingState",
          "name": "",
          "type": "uint8"
        }
      ],
      "stateMutability": "view",
      "type": "function",
      "constant": true
    },
    {
      "inputs": [
        {
          "internalType": "uint256",
          "name": "reportId",
          "type": "uint256"
        }
      ],
      "name": "checkApproved",
      "outputs": [
        {
          "internalType": "bool",
          "name": "",
          "type": "bool"
        }
      ],
      "stateMutability": "view",
      "type": "function",
      "constant": true
    },
    {
      "inputs": [
        {
          "internalType": "uint256",
          "name": "reportId",
          "type": "uint256"
        }
      ],
      "name": "checkConcluded",
      "outputs": [
        {
          "internalType": "bool",
          "name": "",
          "type": "bool"
        }
      ],
      "stateMutability": "view",
      "type": "function",
      "constant": true
    }
  ],
  "bytecode": "0x60806040523480156200001157600080fd5b506040516200291538038062002915833981810160405281019062000037919062000095565b806000806101000a81548173ffffffffffffffffffffffffffffffffffffffff021916908373ffffffffffffffffffffffffffffffffffffffff1602179055505062000123565b6000815190506200008f8162000109565b92915050565b600060208284031215620000a857600080fd5b6000620000b8848285016200007e565b91505092915050565b6000620000ce82620000e9565b9050919050565b6000620000e282620000c1565b9050919050565b600073ffffffffffffffffffffffffffffffffffffffff82169050919050565b6200011481620000d5565b81146200012057600080fd5b50565b6127e280620001336000396000f3fe6080604052600436106100a75760003560e01c80638d00f82e116100645780638d00f82e146101c0578063af3be4d8146101e9578063b38188d414610226578063be7f114c14610263578063f3caf03b1461027f578063f4ab9adf146102bc576100a7565b806305cc49dd146100ac578063136018bc146100c85780634bf5c14e146100f15780635000596b1461012f578063610995f81461015a5780636e48a03514610197575b600080fd5b6100c660048036038101906100c19190611a91565b6102e5565b005b3480156100d457600080fd5b506100ef60048036038101906100ea9190611a91565b610746565b005b3480156100fd57600080fd5b5061011860048036038101906101139190611b43565b610958565b6040516101269291906123d9565b60405180910390f35b34801561013b57600080fd5b5061014461099f565b6040516101519190612210565b60405180910390f35b34801561016657600080fd5b50610181600480360381019061017c9190611a3d565b6109c3565b60405161018e91906123be565b60405180910390f35b3480156101a357600080fd5b506101be60048036038101906101b99190611a91565b610b03565b005b3480156101cc57600080fd5b506101e760048036038101906101e29190611a91565b610e26565b005b3480156101f557600080fd5b50610210600480360381019061020b9190611a91565b610fae565b60405161021d91906121f5565b60405180910390f35b34801561023257600080fd5b5061024d60048036038101906102489190611a91565b610fd8565b60405161025a91906121f5565b60405180910390f35b61027d60048036038101906102789190611aba565b611002565b005b34801561028b57600080fd5b506102a660048036038101906102a19190611a91565b61177c565b6040516102b3919061222b565b60405180910390f35b3480156102c857600080fd5b506102e360048036038101906102de91906119eb565b6117a6565b005b60011515600a600083815260200190815260200160002060009054906101000a900460ff1615151461034c576040517f08c379a00000000000000000000000000000000000000000000000000000000081526004016103439061233e565b60405180910390fd5b600080600090505b60018054905081101561044a57600360006001838154811061039f577f4e487b7100000000000000000000000000000000000000000000000000000000600052603260045260246000fd5b9060005260206000200160009054906101000a900473ffffffffffffffffffffffffffffffffffffffff1673ffffffffffffffffffffffffffffffffffffffff1673ffffffffffffffffffffffffffffffffffffffff168152602001908152602001600020600084815260200190815260200160002060009054906101000a900460ff16156104375781806104339061263e565b9250505b80806104429061263e565b915050610354565b50600081670de0b6b3a7640000600a600c600b546104689190612511565b61047291906124e0565b61047c9190612511565b61048691906124e0565b905060005b6001805490508110156107405760036000600183815481106104d6577f4e487b7100000000000000000000000000000000000000000000000000000000600052603260045260246000fd5b9060005260206000200160009054906101000a900473ffffffffffffffffffffffffffffffffffffffff1673ffffffffffffffffffffffffffffffffffffffff1673ffffffffffffffffffffffffffffffffffffffff168152602001908152602001600020600085815260200190815260200160002060009054906101000a900460ff161561072d5760006001828154811061059b577f4e487b7100000000000000000000000000000000000000000000000000000000600052603260045260246000fd5b9060005260206000200160009054906101000a900473ffffffffffffffffffffffffffffffffffffffff1690508073ffffffffffffffffffffffffffffffffffffffff166108fc849081150290604051600060405180830381858888f1935050505015801561060e573d6000803e3d6000fd5b507f2688e15fd023f66fae7c13d35bcc5410a91abd8d0dfdadc7336b6e2e9c3f01196001838154811061066a577f4e487b7100000000000000000000000000000000000000000000000000000000600052603260045260246000fd5b9060005260206000200160009054906101000a900473ffffffffffffffffffffffffffffffffffffffff168447600186815481106106d1577f4e487b7100000000000000000000000000000000000000000000000000000000600052603260045260246000fd5b9060005260206000200160009054906101000a900473ffffffffffffffffffffffffffffffffffffffff1673ffffffffffffffffffffffffffffffffffffffff163160405161072394939291906121b0565b60405180910390a1505b80806107389061263e565b91505061048b565b50505050565b60006064602861078b6040518060400160405280600f81526020017f6661637475616c41636375726163790000000000000000000000000000000000815250856109c3565b6107959190612511565b61079f91906124e0565b816107aa919061248a565b9050606460146107ef6040518060400160405280600f81526020017f6d616c6963696f7573496e74656e740000000000000000000000000000000000815250856109c3565b6107f99190612511565b61080391906124e0565b8161080e919061248a565b9050606460146108536040518060400160405280601381526020017f6861726d66756c436f6e73657175656e63657300000000000000000000000000815250856109c3565b61085d9190612511565b61086791906124e0565b81610872919061248a565b90506064600a6108b76040518060400160405280601381526020017f636f6e74656e744d616e6970756c6174696f6e00000000000000000000000000815250856109c3565b6108c19190612511565b6108cb91906124e0565b816108d6919061248a565b90506064600a61091b6040518060400160405280601b81526020017f76696f6c6174696f6e4f66506c6174666f726d506f6c69636965730000000000815250856109c3565b6109259190612511565b61092f91906124e0565b8161093a919061248a565b90508060056000848152602001908152602001600020819055505050565b600660205281600052604060002081805160208101820180518482526020830160208501208183528095505050505050600091509150508060000154908060010154905082565b60008054906101000a900473ffffffffffffffffffffffffffffffffffffffff1681565b60008060066000848152602001908152602001600020846040516109e791906120eb565b9081526020016040518091039020604051806040016040529081600082015481526020016001820154815250509050600060076000858152602001908152602001600020604051610a3790612180565b90815260200160405180910390205460648360000151610a579190612511565b610a6191906124e0565b9050600060076000868152602001908152602001600020604051610a8490612156565b90815260200160405180910390205460648460200151610aa49190612511565b610aae91906124e0565b90506000600482610abf9190612511565b600184610acc9190612511565b610ad6919061248a565b905060006005606483610ae99190612511565b610af391906124e0565b9050809550505050505092915050565b60006001811115610b3d577f4e487b7100000000000000000000000000000000000000000000000000000000600052602160045260246000fd5b6004600083815260200190815260200160002060009054906101000a900460ff166001811115610b96577f4e487b7100000000000000000000000000000000000000000000000000000000600052602160045260246000fd5b14610bd6576040517f08c379a0000000000000000000000000000000000000000000000000000000008152600401610bcd90612246565b60405180910390fd5b436170806008600084815260200190815260200160002054610bf8919061248a565b1115610c39576040517f08c379a0000000000000000000000000000000000000000000000000000000008152600401610c309061231e565b60405180910390fd5b610c4281610746565b6046600560008381526020019081526020016000205410610cda5760016009600083815260200190815260200160002060006101000a81548160ff0219169083151502179055507f644e9b045525474789f03c866578b766001c0d34becc8a19c1f17fc6b30e183b816005600084815260200190815260200160002054604051610ccd929190612266565b60405180910390a1610d53565b60006009600083815260200190815260200160002060006101000a81548160ff0219169083151502179055507fcd332d411bb978880fff21a29ea2d28c3405c41fb5819a0c8bcfb5a827a4ddd0816005600084815260200190815260200160002054604051610d4a9291906122c2565b60405180910390a15b6001600a600083815260200190815260200160002060006101000a81548160ff02191690831515021790555060016004600083815260200190815260200160002060006101000a81548160ff02191690836001811115610ddc577f4e487b7100000000000000000000000000000000000000000000000000000000600052602160045260246000fd5b0217905550610dea816102e5565b7f4fa16f02e5d98e5d0859e515cb1bc8e3d3f14743eb623e2f685362b7d3f70d0a8143604051610e1b9291906123d9565b60405180910390a150565b600180811115610e5f577f4e487b7100000000000000000000000000000000000000000000000000000000600052602160045260246000fd5b6004600083815260200190815260200160002060009054906101000a900460ff166001811115610eb8577f4e487b7100000000000000000000000000000000000000000000000000000000600052602160045260246000fd5b14610ef8576040517f08c379a0000000000000000000000000000000000000000000000000000000008152600401610eef9061239e565b60405180910390fd5b60006004600083815260200190815260200160002060006101000a81548160ff02191690836001811115610f55577f4e487b7100000000000000000000000000000000000000000000000000000000600052602160045260246000fd5b02179055504360086000838152602001908152602001600020819055507f32689d92c1683d1ff87da49b2db81410842eed93afcd24c7cee6dbef24ba4a158143604051610fa39291906123d9565b60405180910390a150565b60006009600083815260200190815260200160002060009054906101000a900460ff169050919050565b6000600a600083815260200190815260200160002060009054906101000a900460ff169050919050565b600260003373ffffffffffffffffffffffffffffffffffffffff1673ffffffffffffffffffffffffffffffffffffffff16815260200190815260200160002060009054906101000a900460ff1661108e576040517f08c379a00000000000000000000000000000000000000000000000000000000081526004016110859061237e565b60405180910390fd5b600060018111156110c8577f4e487b7100000000000000000000000000000000000000000000000000000000600052602160045260246000fd5b6004600088815260200190815260200160002060009054906101000a900460ff166001811115611121577f4e487b7100000000000000000000000000000000000000000000000000000000600052602160045260246000fd5b14611161576040517f08c379a0000000000000000000000000000000000000000000000000000000008152600401611158906122fe565b60405180910390fd5b655af3107a40003410156111aa576040517f08c379a00000000000000000000000000000000000000000000000000000000081526004016111a1906122a2565b60405180910390fd5b34600b60008282546111bc919061248a565b925050819055506001600360003373ffffffffffffffffffffffffffffffffffffffff1673ffffffffffffffffffffffffffffffffffffffff168152602001908152602001600020600088815260200190815260200160002060006101000a81548160ff02191690831515021790555060008060009054906101000a900473ffffffffffffffffffffffffffffffffffffffff1673ffffffffffffffffffffffffffffffffffffffff166303bc3466336040518263ffffffff1660e01b81526004016112889190612195565b60206040518083038186803b1580156112a057600080fd5b505afa1580156112b4573d6000803e3d6000fd5b505050506040513d601f19601f820116820180604052508101906112d89190611a14565b905060016002811115611314577f4e487b7100000000000000000000000000000000000000000000000000000000600052602160045260246000fd5b81600281111561134d577f4e487b7100000000000000000000000000000000000000000000000000000000600052602160045260246000fd5b14156115285760016007600089815260200190815260200160002060405161137490612156565b90815260200160405180910390206000828254611391919061248a565b9250508190555085156113e7576001600660008981526020019081526020016000206040516113bf90612141565b908152602001604051809103902060010160008282546113df919061248a565b925050819055505b84156114365760016006600089815260200190815260200160002060405161140e9061216b565b9081526020016040518091039020600101600082825461142e919061248a565b925050819055505b83156114855760016006600089815260200190815260200160002060405161145d9061212c565b9081526020016040518091039020600101600082825461147d919061248a565b925050819055505b82156114d4576001600660008981526020019081526020016000206040516114ac90612102565b908152602001604051809103902060010160008282546114cc919061248a565b925050819055505b8115611523576001600660008981526020019081526020016000206040516114fb90612117565b9081526020016040518091039020600101600082825461151b919061248a565b925050819055505b611773565b60006002811115611562577f4e487b7100000000000000000000000000000000000000000000000000000000600052602160045260246000fd5b81600281111561159b577f4e487b7100000000000000000000000000000000000000000000000000000000600052602160045260246000fd5b1415611772576001600760008981526020019081526020016000206040516115c290612180565b908152602001604051809103902060008282546115df919061248a565b9250508190555085156116355760016006600089815260200190815260200160002060405161160d90612141565b9081526020016040518091039020600001600082825461162d919061248a565b925050819055505b84156116845760016006600089815260200190815260200160002060405161165c9061216b565b9081526020016040518091039020600001600082825461167c919061248a565b925050819055505b83156116d3576001600660008981526020019081526020016000206040516116ab9061212c565b908152602001604051809103902060000160008282546116cb919061248a565b925050819055505b8215611722576001600660008981526020019081526020016000206040516116fa90612102565b9081526020016040518091039020600001600082825461171a919061248a565b925050819055505b81156117715760016006600089815260200190815260200160002060405161174990612117565b90815260200160405180910390206000016000828254611769919061248a565b925050819055505b5b5b50505050505050565b60006004600083815260200190815260200160002060009054906101000a900460ff169050919050565b60011515600260008373ffffffffffffffffffffffffffffffffffffffff1673ffffffffffffffffffffffffffffffffffffffff16815260200190815260200160002060009054906101000a900460ff161515141561183a576040517f08c379a00000000000000000000000000000000000000000000000000000000081526004016118319061235e565b60405180910390fd5b6001819080600181540180825580915050600190039060005260206000200160009091909190916101000a81548173ffffffffffffffffffffffffffffffffffffffff021916908373ffffffffffffffffffffffffffffffffffffffff1602179055506001600260008373ffffffffffffffffffffffffffffffffffffffff1673ffffffffffffffffffffffffffffffffffffffff16815260200190815260200160002060006101000a81548160ff0219169083151502179055507f8c81efd0403b5e7bba1cb9ef4fc55d23f8dca8d5f886bec9b153bf542f817d5a816040516119249190612195565b60405180910390a150565b600061194261193d84612433565b612402565b90508281526020810184848401111561195a57600080fd5b6119658482856125fc565b509392505050565b60008135905061197c81612757565b92915050565b6000813590506119918161276e565b92915050565b6000815190506119a681612785565b92915050565b600082601f8301126119bd57600080fd5b81356119cd84826020860161192f565b91505092915050565b6000813590506119e581612795565b92915050565b6000602082840312156119fd57600080fd5b6000611a0b8482850161196d565b91505092915050565b600060208284031215611a2657600080fd5b6000611a3484828501611997565b91505092915050565b60008060408385031215611a5057600080fd5b600083013567ffffffffffffffff811115611a6a57600080fd5b611a76858286016119ac565b9250506020611a87858286016119d6565b9150509250929050565b600060208284031215611aa357600080fd5b6000611ab1848285016119d6565b91505092915050565b60008060008060008060c08789031215611ad357600080fd5b6000611ae189828a016119d6565b9650506020611af289828a01611982565b9550506040611b0389828a01611982565b9450506060611b1489828a01611982565b9350506080611b2589828a01611982565b92505060a0611b3689828a01611982565b9150509295509295509295565b60008060408385031215611b5657600080fd5b6000611b64858286016119d6565b925050602083013567ffffffffffffffff811115611b8157600080fd5b611b8d858286016119ac565b9150509250929050565b611ba08161256b565b82525050565b611baf8161257d565b82525050565b611bbe816125c6565b82525050565b611bcd816125ea565b82525050565b6000611bde82612463565b611be8818561247f565b9350611bf881856020860161260b565b80840191505092915050565b6000611c1160138361247f565b91507f6861726d66756c436f6e73657175656e636573000000000000000000000000006000830152601382019050919050565b6000611c51601b8361247f565b91507f76696f6c6174696f6e4f66506c6174666f726d506f6c696369657300000000006000830152601b82019050919050565b6000611c9160108361246e565b91507f566f7465206973206e6f74206f70656e000000000000000000000000000000006000830152602082019050919050565b6000611cd160228361246e565b91507f4163636570746564202d204d6973696e666f726d6174696f6e2076657269666960008301527f65640000000000000000000000000000000000000000000000000000000000006020830152604082019050919050565b6000611d3760138361247f565b91507f636f6e74656e744d616e6970756c6174696f6e000000000000000000000000006000830152601382019050919050565b6000611d77600f8361247f565b91507f6661637475616c416363757261637900000000000000000000000000000000006000830152600f82019050919050565b6000611db760168361247f565b91507f746f74616c5665726966696564566572696669657273000000000000000000006000830152601682019050919050565b6000611df760268361246e565b91507f496e73756666696369656e742065746865722073656e7420666f7220766f746960008301527f6e672066656500000000000000000000000000000000000000000000000000006020830152604082019050919050565b6000611e5d60268361246e565b91507f52656a6563746564202d204d6973696e666f726d6174696f6e206e6f7420766560008301527f72696669656400000000000000000000000000000000000000000000000000006020830152604082019050919050565b6000611ec360208361246e565b91507f4170706c6963616e74206973206e6f74206f70656e20666f7220766f74696e676000830152602082019050919050565b6000611f03600f8361247f565b91507f6d616c6963696f7573496e74656e7400000000000000000000000000000000006000830152600f82019050919050565b6000611f43600f8361246e565b91507f446561646c696e65206e6f7420757000000000000000000000000000000000006000830152602082019050919050565b6000611f8360188361246e565b91507f566f74696e6720686173206e6f7420636f6e636c7564656400000000000000006000830152602082019050919050565b6000611fc3601a8361246e565b91507f596f752061726520616c726561647920726567697374657265640000000000006000830152602082019050919050565b6000612003601e8361246e565b91507f596f7520617265206e6f742061207265676973746572656420766f74657200006000830152602082019050919050565b600061204360238361246e565b91507f4170706c6963616e7420616c726561647920756e646572676f696e6720766f7460008301527f696e6700000000000000000000000000000000000000000000000000000000006020830152604082019050919050565b60006120a960118361247f565b91507f746f74616c526567756c617255736572730000000000000000000000000000006000830152601182019050919050565b6120e5816125bc565b82525050565b60006120f78284611bd3565b915081905092915050565b600061210d82611c04565b9150819050919050565b600061212282611c44565b9150819050919050565b600061213782611d2a565b9150819050919050565b600061214c82611d6a565b9150819050919050565b600061216182611daa565b9150819050919050565b600061217682611ef6565b9150819050919050565b600061218b8261209c565b9150819050919050565b60006020820190506121aa6000830184611b97565b92915050565b60006080820190506121c56000830187611b97565b6121d260208301866120dc565b6121df60408301856120dc565b6121ec60608301846120dc565b95945050505050565b600060208201905061220a6000830184611ba6565b92915050565b60006020820190506122256000830184611bb5565b92915050565b60006020820190506122406000830184611bc4565b92915050565b6000602082019050818103600083015261225f81611c84565b9050919050565b6000606082019050818103600083015261227f81611cc4565b905061228e60208301856120dc565b61229b60408301846120dc565b9392505050565b600060208201905081810360008301526122bb81611dea565b9050919050565b600060608201905081810360008301526122db81611e50565b90506122ea60208301856120dc565b6122f760408301846120dc565b9392505050565b6000602082019050818103600083015261231781611eb6565b9050919050565b6000602082019050818103600083015261233781611f36565b9050919050565b6000602082019050818103600083015261235781611f76565b9050919050565b6000602082019050818103600083015261237781611fb6565b9050919050565b6000602082019050818103600083015261239781611ff6565b9050919050565b600060208201905081810360008301526123b781612036565b9050919050565b60006020820190506123d360008301846120dc565b92915050565b60006040820190506123ee60008301856120dc565b6123fb60208301846120dc565b9392505050565b6000604051905081810181811067ffffffffffffffff8211171561242957612428612714565b5b8060405250919050565b600067ffffffffffffffff82111561244e5761244d612714565b5b601f19601f8301169050602081019050919050565b600081519050919050565b600082825260208201905092915050565b600081905092915050565b6000612495826125bc565b91506124a0836125bc565b9250827fffffffffffffffffffffffffffffffffffffffffffffffffffffffffffffffff038211156124d5576124d4612687565b5b828201905092915050565b60006124eb826125bc565b91506124f6836125bc565b925082612506576125056126b6565b5b828204905092915050565b600061251c826125bc565b9150612527836125bc565b9250817fffffffffffffffffffffffffffffffffffffffffffffffffffffffffffffffff04831182151516156125605761255f612687565b5b828202905092915050565b60006125768261259c565b9050919050565b60008115159050919050565b600081905061259782612743565b919050565b600073ffffffffffffffffffffffffffffffffffffffff82169050919050565b6000819050919050565b60006125d1826125d8565b9050919050565b60006125e38261259c565b9050919050565b60006125f582612589565b9050919050565b82818337600083830152505050565b60005b8381101561262957808201518184015260208101905061260e565b83811115612638576000848401525b50505050565b6000612649826125bc565b91507fffffffffffffffffffffffffffffffffffffffffffffffffffffffffffffffff82141561267c5761267b612687565b5b600182019050919050565b7f4e487b7100000000000000000000000000000000000000000000000000000000600052601160045260246000fd5b7f4e487b7100000000000000000000000000000000000000000000000000000000600052601260045260246000fd5b7f4e487b7100000000000000000000000000000000000000000000000000000000600052602160045260246000fd5b7f4e487b7100000000000000000000000000000000000000000000000000000000600052604160045260246000fd5b60028110612754576127536126e5565b5b50565b6127608161256b565b811461276b57600080fd5b50565b6127778161257d565b811461278257600080fd5b50565b6003811061279257600080fd5b50565b61279e816125bc565b81146127a957600080fd5b5056fea2646970667358221220d056b3762309250676d25027e9521d282ecb37f0ef9b8aa4e676a5d84afd603f64736f6c63430008000033",
  "immutableReferences": {},
  "source": "// SPDX-License-Identifier: MIT\npragma solidity ^0.8.0;\n\nimport \"./User.sol\";\n\ncontract AcceptanceVoting {\n    enum VotingState {\n        OPEN,\n        CLOSED\n    }\n\n    struct Criterion {\n        uint regularUserVotes;\n        uint verifiedVerifierVotes;\n    }\n\n    User public userContract;\n\n    address[] voters;\n\n    mapping(address => bool) isVoter;\n\n    // users => reportId => true if voted\n    mapping(address => mapping(uint256 => bool)) hasVoted;\n\n    mapping(uint256 => VotingState) reportVotingState;\n    mapping(uint256 => uint256) reportVotingScore;\n\n    // reportId => criteria name => vote count\n    mapping(uint256 => mapping(string => Criterion)) public criteria;\n    // reportId => type of voters => total number of voters\n    //  option for string -> totalRegularUsers, totalVerifiedVerifiers\n    mapping(uint256 => mapping(string => uint256)) votersBreakdown;\n    // vote open block number\n    mapping(uint => uint256) reportVotingOpenTimeframe;\n\n    // verified for misinformation\n    mapping(uint256 => bool) isApproved;\n\n    // voting ended\n    mapping(uint256 => bool) isConcluded;\n\n    uint256 potOfMoney;\n\n    uint256 constant VOTING_PERIOD_BLOCKS = 28800; // Approximately 48 hours (assuming 12-second block time)\n\n    uint256 constant REGULAR_USER_VOTE_WEIGHT = 1;\n    uint256 constant VERIFIER_VOTE_WEIGHT = 4;\n\n    uint256 constant FACTUAL_ACCURACY_WEIGHT = 40;\n    uint256 constant MALICIOUS_INTENT_WEIGHT = 20;\n    uint256 constant HARMFUL_CONSEQUENCES_WEIGHT = 20;\n    uint256 constant CONTENT_MANIPULATION_WEIGHT = 10;\n    uint256 constant POLICY_VIOLATION_WEIGHT = 10;\n\n    uint256 constant VALIDITY_THRESHOLD = 70;\n\n    // events\n    event voter_added(address user);\n\n    event vote_open(uint256 reportId, uint256 blockNumber);\n    event vote_close(uint256 reportId, uint256 blockNumber);\n\n    event voted(\n        address user,\n        bool factualAccuracy,\n        bool maliciousIntent,\n        bool harmfulConsequences,\n        bool contentManipulation,\n        bool violationOfPlatformPolicies\n    );\n\n    event vote_results_accepted(\n        string outcome,\n        uint256 reportId,\n        uint256 score\n    );\n    event vote_results_rejected(\n        string outcome,\n        uint256 reportId,\n        uint256 score\n    );\n\n    event fee_distributed(\n        address voter,\n        uint256 val,\n        uint256 contract_balance,\n        uint256 acc_balance\n    );\n\n    constructor(User _userContract) {\n        userContract = _userContract;\n    }\n\n    function vote(\n        uint256 reportId,\n        bool factualAccuracy,\n        bool maliciousIntent,\n        bool contentManipulation,\n        bool harmfulConsequences,\n        bool violationOfPlatformPolicies\n    ) public payable {\n        require(isVoter[msg.sender], \"You are not a registered voter\");\n        require(\n            reportVotingState[reportId] == VotingState.OPEN,\n            \"Applicant is not open for voting\"\n        );\n\n        // Ensure that the voter has paid the fee\n        require(\n            msg.value >= 100000000000000,\n            \"Insufficient ether sent for voting fee\"\n        );\n\n        // Add the fee to the potOfMoney\n        potOfMoney += msg.value;\n\n        hasVoted[msg.sender][reportId] = true;\n\n        User.userGroup userGroup = userContract.getUserGroupByAddress(\n            msg.sender\n        );\n\n        if (userGroup == User.userGroup.VERIFIER) {\n            votersBreakdown[reportId][\"totalVerifiedVerifiers\"] += 1;\n            if (factualAccuracy) {\n                (criteria[reportId][\"factualAccuracy\"])\n                    .verifiedVerifierVotes += 1;\n            }\n\n            if (maliciousIntent) {\n                (criteria[reportId][\"maliciousIntent\"])\n                    .verifiedVerifierVotes += 1;\n            }\n\n            if (contentManipulation) {\n                (criteria[reportId][\"contentManipulation\"])\n                    .verifiedVerifierVotes += 1;\n            }\n\n            if (harmfulConsequences) {\n                (criteria[reportId][\"harmfulConsequences\"])\n                    .verifiedVerifierVotes += 1;\n            }\n\n            if (violationOfPlatformPolicies) {\n                (criteria[reportId][\"violationOfPlatformPolicies\"])\n                    .verifiedVerifierVotes += 1;\n            }\n        } else if (userGroup == User.userGroup.GENERAL) {\n            votersBreakdown[reportId][\"totalRegularUsers\"] += 1;\n            if (factualAccuracy) {\n                (criteria[reportId][\"factualAccuracy\"]).regularUserVotes += 1;\n            }\n\n            if (maliciousIntent) {\n                (criteria[reportId][\"maliciousIntent\"]).regularUserVotes += 1;\n            }\n\n            if (contentManipulation) {\n                (criteria[reportId][\"contentManipulation\"])\n                    .regularUserVotes += 1;\n            }\n\n            if (harmfulConsequences) {\n                (criteria[reportId][\"harmfulConsequences\"])\n                    .regularUserVotes += 1;\n            }\n\n            if (violationOfPlatformPolicies) {\n                (criteria[reportId][\"violationOfPlatformPolicies\"])\n                    .regularUserVotes += 1;\n            }\n        }\n    }\n\n    function openVote(uint256 reportId) external {\n        require(\n            reportVotingState[reportId] == VotingState.CLOSED,\n            \"Applicant already undergoing voting\"\n        );\n\n        reportVotingState[reportId] = VotingState.OPEN;\n        reportVotingOpenTimeframe[reportId] = block.number;\n\n        emit vote_open(reportId, block.number);\n    }\n\n    function getCriterionScore(\n        string memory criterionName,\n        uint256 reportId\n    ) public view returns (uint) {\n        Criterion memory criterion = criteria[reportId][criterionName];\n        uint regularUserPercentage = (criterion.regularUserVotes * 100) /\n            votersBreakdown[reportId][\"totalRegularUsers\"];\n        uint verifiedVerifierPercentage = (criterion.verifiedVerifierVotes *\n            100) / votersBreakdown[reportId][\"totalVerifiedVerifiers\"];\n        uint score = (regularUserPercentage * 1) +\n            (verifiedVerifierPercentage * 4);\n        uint normalizedScore = (score * 100) / 5;\n        return normalizedScore;\n    }\n\n    function calculateScore(uint256 reportId) public {\n        uint overallWeightedScore;\n        overallWeightedScore +=\n            (getCriterionScore(\"factualAccuracy\", reportId) *\n                FACTUAL_ACCURACY_WEIGHT) /\n            100;\n        overallWeightedScore +=\n            (getCriterionScore(\"maliciousIntent\", reportId) *\n                MALICIOUS_INTENT_WEIGHT) /\n            100;\n        overallWeightedScore +=\n            (getCriterionScore(\"harmfulConsequences\", reportId) *\n                HARMFUL_CONSEQUENCES_WEIGHT) /\n            100;\n        overallWeightedScore +=\n            (getCriterionScore(\"contentManipulation\", reportId) *\n                CONTENT_MANIPULATION_WEIGHT) /\n            100;\n        overallWeightedScore +=\n            (getCriterionScore(\"violationOfPlatformPolicies\", reportId) *\n                POLICY_VIOLATION_WEIGHT) /\n            100;\n\n        reportVotingScore[reportId] = overallWeightedScore;\n    }\n\n    function closeVote(uint256 reportId) public {\n        require(\n            reportVotingState[reportId] == VotingState.OPEN,\n            \"Vote is not open\"\n        );\n        require(\n            reportVotingOpenTimeframe[reportId] + VOTING_PERIOD_BLOCKS <=\n                block.number,\n            \"Deadline not up\"\n        );\n\n        calculateScore(reportId);\n\n        if (reportVotingScore[reportId] >= VALIDITY_THRESHOLD) {\n            isApproved[reportId] = true;\n            emit vote_results_accepted(\n                \"Accepted - Misinformation verified\",\n                reportId,\n                reportVotingScore[reportId]\n            );\n        } else {\n            isApproved[reportId] = false;\n            emit vote_results_rejected(\n                \"Rejected - Misinformation not verified\",\n                reportId,\n                reportVotingScore[reportId]\n            );\n        }\n\n        isConcluded[reportId] = true;\n        reportVotingState[reportId] = VotingState.CLOSED;\n        distributeFee(reportId);\n\n        emit vote_close(reportId, block.number);\n    }\n\n    // complete this function\n    function distributeFee(uint256 reportId) public payable {\n        require(isConcluded[reportId] == true, \"Voting has not concluded\");\n\n        uint256 numberOfVoters;\n\n        for (uint256 i = 0; i < voters.length; i++) {\n            if (hasVoted[voters[i]][reportId]) {\n                numberOfVoters++;\n            }\n        }\n\n        uint256 reward = (((potOfMoney * 12) / 10) * 1E18) / numberOfVoters;\n        for (uint256 j = 0; j < voters.length; j++) {\n            if (hasVoted[voters[j]][reportId]) {\n                address payable recipient = payable(voters[j]);\n                recipient.transfer(reward);\n                emit fee_distributed(\n                    voters[j],\n                    reward,\n                    address(this).balance,\n                    address(voters[j]).balance\n                );\n            }\n        }\n    }\n\n    function addVoter(address user) public {\n        require(isVoter[user] != true, \"You are already registered\");\n\n        voters.push(user);\n        isVoter[user] = true;\n\n        emit voter_added(user);\n    }\n\n    function getVotingState(\n        uint256 reportId\n    ) public view returns (VotingState) {\n        return reportVotingState[reportId];\n    }\n\n    function checkApproved(uint256 reportId) public view returns (bool) {\n        return isApproved[reportId];\n    }\n\n    function checkConcluded(uint256 reportId) public view returns (bool) {\n        return isConcluded[reportId];\n    }\n}\n",
  "sourcePath": "/Users/meganyee/Desktop/IS4302-GP2/contracts/AcceptanceVoting.sol",
  "compiler": {
    "name": "solc",
    "version": "0.8.0+commit.c7dfd78e.Emscripten.clang"
  },
  "schemaVersion": "3.4.16",
  "updatedAt": "2024-04-21T14:03:10.587Z",
  "networkType": "ethereum",
  "devdoc": {
    "kind": "dev",
    "methods": {},
    "version": 1
  },
  "userdoc": {
    "kind": "user",
    "methods": {},
    "version": 1
  }
}