{
  "contractName": "AcceptanceVoting",
  "abi": [
    {
      "inputs": [
        {
          "internalType": "contract User",
          "name": "_userContract",
          "type": "address"
        }
      ],
      "stateMutability": "nonpayable",
      "type": "constructor"
    },
    {
      "anonymous": false,
      "inputs": [
        {
          "indexed": false,
          "internalType": "address",
          "name": "voter",
          "type": "address"
        },
        {
          "indexed": false,
          "internalType": "uint256",
          "name": "val",
          "type": "uint256"
        },
        {
          "indexed": false,
          "internalType": "uint256",
          "name": "contract_balance",
          "type": "uint256"
        },
        {
          "indexed": false,
          "internalType": "uint256",
          "name": "acc_balance",
          "type": "uint256"
        }
      ],
      "name": "fee_distributed",
      "type": "event"
    },
    {
      "anonymous": false,
      "inputs": [
        {
          "indexed": false,
          "internalType": "uint256",
          "name": "reportId",
          "type": "uint256"
        },
        {
          "indexed": false,
          "internalType": "uint256",
          "name": "blockNumber",
          "type": "uint256"
        }
      ],
      "name": "vote_close",
      "type": "event"
    },
    {
      "anonymous": false,
      "inputs": [
        {
          "indexed": false,
          "internalType": "uint256",
          "name": "reportId",
          "type": "uint256"
        },
        {
          "indexed": false,
          "internalType": "uint256",
          "name": "blockNumber",
          "type": "uint256"
        }
      ],
      "name": "vote_open",
      "type": "event"
    },
    {
      "anonymous": false,
      "inputs": [
        {
          "indexed": false,
          "internalType": "string",
          "name": "outcome",
          "type": "string"
        },
        {
          "indexed": false,
          "internalType": "uint256",
          "name": "reportId",
          "type": "uint256"
        },
        {
          "indexed": false,
          "internalType": "uint256",
          "name": "score",
          "type": "uint256"
        }
      ],
      "name": "vote_results_accepted",
      "type": "event"
    },
    {
      "anonymous": false,
      "inputs": [
        {
          "indexed": false,
          "internalType": "string",
          "name": "outcome",
          "type": "string"
        },
        {
          "indexed": false,
          "internalType": "uint256",
          "name": "reportId",
          "type": "uint256"
        },
        {
          "indexed": false,
          "internalType": "uint256",
          "name": "score",
          "type": "uint256"
        }
      ],
      "name": "vote_results_rejected",
      "type": "event"
    },
    {
      "anonymous": false,
      "inputs": [
        {
          "indexed": false,
          "internalType": "address",
          "name": "user",
          "type": "address"
        },
        {
          "indexed": false,
          "internalType": "bool",
          "name": "factualAccuracy",
          "type": "bool"
        },
        {
          "indexed": false,
          "internalType": "bool",
          "name": "maliciousIntent",
          "type": "bool"
        },
        {
          "indexed": false,
          "internalType": "bool",
          "name": "harmfulConsequences",
          "type": "bool"
        },
        {
          "indexed": false,
          "internalType": "bool",
          "name": "contentManipulation",
          "type": "bool"
        },
        {
          "indexed": false,
          "internalType": "bool",
          "name": "violationOfPlatformPolicies",
          "type": "bool"
        }
      ],
      "name": "voted",
      "type": "event"
    },
    {
      "anonymous": false,
      "inputs": [
        {
          "indexed": false,
          "internalType": "address",
          "name": "user",
          "type": "address"
        }
      ],
      "name": "voter_added",
      "type": "event"
    },
    {
      "inputs": [
        {
          "internalType": "uint256",
          "name": "",
          "type": "uint256"
        },
        {
          "internalType": "string",
          "name": "",
          "type": "string"
        }
      ],
      "name": "criteria",
      "outputs": [
        {
          "internalType": "uint256",
          "name": "regularUserVotes",
          "type": "uint256"
        },
        {
          "internalType": "uint256",
          "name": "verifiedVerifierVotes",
          "type": "uint256"
        }
      ],
      "stateMutability": "view",
      "type": "function",
      "constant": true
    },
    {
      "inputs": [],
      "name": "userContract",
      "outputs": [
        {
          "internalType": "contract User",
          "name": "",
          "type": "address"
        }
      ],
      "stateMutability": "view",
      "type": "function",
      "constant": true
    },
    {
      "inputs": [
        {
          "internalType": "uint256",
          "name": "reportId",
          "type": "uint256"
        },
        {
          "internalType": "bool",
          "name": "factualAccuracy",
          "type": "bool"
        },
        {
          "internalType": "bool",
          "name": "maliciousIntent",
          "type": "bool"
        },
        {
          "internalType": "bool",
          "name": "contentManipulation",
          "type": "bool"
        },
        {
          "internalType": "bool",
          "name": "harmfulConsequences",
          "type": "bool"
        },
        {
          "internalType": "bool",
          "name": "violationOfPlatformPolicies",
          "type": "bool"
        }
      ],
      "name": "vote",
      "outputs": [],
      "stateMutability": "payable",
      "type": "function",
      "payable": true
    },
    {
      "inputs": [
        {
          "internalType": "uint256",
          "name": "reportId",
          "type": "uint256"
        }
      ],
      "name": "openVote",
      "outputs": [],
      "stateMutability": "nonpayable",
      "type": "function"
    },
    {
      "inputs": [
        {
          "internalType": "string",
          "name": "criterionName",
          "type": "string"
        },
        {
          "internalType": "uint256",
          "name": "reportId",
          "type": "uint256"
        }
      ],
      "name": "getCriterionScore",
      "outputs": [
        {
          "internalType": "uint256",
          "name": "",
          "type": "uint256"
        }
      ],
      "stateMutability": "view",
      "type": "function",
      "constant": true
    },
    {
      "inputs": [
        {
          "internalType": "uint256",
          "name": "reportId",
          "type": "uint256"
        }
      ],
      "name": "calculateScore",
      "outputs": [],
      "stateMutability": "nonpayable",
      "type": "function"
    },
    {
      "inputs": [
        {
          "internalType": "uint256",
          "name": "reportId",
          "type": "uint256"
        }
      ],
      "name": "closeVote",
      "outputs": [],
      "stateMutability": "nonpayable",
      "type": "function"
    },
    {
      "inputs": [
        {
          "internalType": "uint256",
          "name": "reportId",
          "type": "uint256"
        }
      ],
      "name": "distributeFee",
      "outputs": [],
      "stateMutability": "payable",
      "type": "function",
      "payable": true
    },
    {
      "inputs": [
        {
          "internalType": "address",
          "name": "user",
          "type": "address"
        }
      ],
      "name": "addVoter",
      "outputs": [],
      "stateMutability": "nonpayable",
      "type": "function"
    },
    {
      "inputs": [
        {
          "internalType": "uint256",
          "name": "reportId",
          "type": "uint256"
        }
      ],
      "name": "getVotingState",
      "outputs": [
        {
          "internalType": "enum AcceptanceVoting.VotingState",
          "name": "",
          "type": "uint8"
        }
      ],
      "stateMutability": "view",
      "type": "function",
      "constant": true
    },
    {
      "inputs": [
        {
          "internalType": "uint256",
          "name": "reportId",
          "type": "uint256"
        }
      ],
      "name": "checkApproved",
      "outputs": [
        {
          "internalType": "bool",
          "name": "",
          "type": "bool"
        }
      ],
      "stateMutability": "view",
      "type": "function",
      "constant": true
    },
    {
      "inputs": [
        {
          "internalType": "uint256",
          "name": "reportId",
          "type": "uint256"
        }
      ],
      "name": "checkConcluded",
      "outputs": [
        {
          "internalType": "bool",
          "name": "",
          "type": "bool"
        }
      ],
      "stateMutability": "view",
      "type": "function",
      "constant": true
    },
    {
      "inputs": [
        {
          "internalType": "address",
          "name": "user",
          "type": "address"
        }
      ],
      "name": "checkIfVoter",
      "outputs": [
        {
          "internalType": "bool",
          "name": "",
          "type": "bool"
        }
      ],
      "stateMutability": "view",
      "type": "function",
      "constant": true
    }
  ],
  "bytecode": "0x60806040523480156200001157600080fd5b5060405162002a6638038062002a66833981810160405281019062000037919062000095565b806000806101000a81548173ffffffffffffffffffffffffffffffffffffffff021916908373ffffffffffffffffffffffffffffffffffffffff1602179055505062000123565b6000815190506200008f8162000109565b92915050565b600060208284031215620000a857600080fd5b6000620000b8848285016200007e565b91505092915050565b6000620000ce82620000e9565b9050919050565b6000620000e282620000c1565b9050919050565b600073ffffffffffffffffffffffffffffffffffffffff82169050919050565b6200011481620000d5565b81146200012057600080fd5b50565b61293380620001336000396000f3fe6080604052600436106100c25760003560e01c80638d00f82e1161007f578063b38188d411610059578063b38188d41461027e578063be7f114c146102bb578063f3caf03b146102d7578063f4ab9adf14610314576100c2565b80638d00f82e146101db5780639d4e225214610204578063af3be4d814610241576100c2565b806305cc49dd146100c7578063136018bc146100e35780634bf5c14e1461010c5780635000596b1461014a578063610995f8146101755780636e48a035146101b2575b600080fd5b6100e160048036038101906100dc9190611b82565b61033d565b005b3480156100ef57600080fd5b5061010a60048036038101906101059190611b82565b6107e1565b005b34801561011857600080fd5b50610133600480360381019061012e9190611c34565b6109f3565b60405161014192919061252a565b60405180910390f35b34801561015657600080fd5b5061015f610a3a565b60405161016c9190612341565b60405180910390f35b34801561018157600080fd5b5061019c60048036038101906101979190611b2e565b610a5e565b6040516101a9919061250f565b60405180910390f35b3480156101be57600080fd5b506101d960048036038101906101d49190611b82565b610b9e565b005b3480156101e757600080fd5b5061020260048036038101906101fd9190611b82565b610ec1565b005b34801561021057600080fd5b5061022b60048036038101906102269190611adc565b611049565b6040516102389190612326565b60405180910390f35b34801561024d57600080fd5b5061026860048036038101906102639190611b82565b61109f565b6040516102759190612326565b60405180910390f35b34801561028a57600080fd5b506102a560048036038101906102a09190611b82565b6110c9565b6040516102b29190612326565b60405180910390f35b6102d560048036038101906102d09190611bab565b6110f3565b005b3480156102e357600080fd5b506102fe60048036038101906102f99190611b82565b61186d565b60405161030b919061235c565b60405180910390f35b34801561032057600080fd5b5061033b60048036038101906103369190611adc565b611897565b005b60011515600a600083815260200190815260200160002060009054906101000a900460ff161515146103a4576040517f08c379a000000000000000000000000000000000000000000000000000000000815260040161039b9061248f565b60405180910390fd5b600080600090505b6001805490508110156104a25760036000600183815481106103f7577f4e487b7100000000000000000000000000000000000000000000000000000000600052603260045260246000fd5b9060005260206000200160009054906101000a900473ffffffffffffffffffffffffffffffffffffffff1673ffffffffffffffffffffffffffffffffffffffff1673ffffffffffffffffffffffffffffffffffffffff168152602001908152602001600020600084815260200190815260200160002060009054906101000a900460ff161561048f57818061048b9061278f565b9250505b808061049a9061278f565b9150506103ac565b50600081116104e6576040517f08c379a00000000000000000000000000000000000000000000000000000000081526004016104dd90612377565b60405180910390fd5b600081670de0b6b3a7640000600a600c600b546105039190612662565b61050d9190612631565b6105179190612662565b6105219190612631565b905060005b6001805490508110156107db576003600060018381548110610571577f4e487b7100000000000000000000000000000000000000000000000000000000600052603260045260246000fd5b9060005260206000200160009054906101000a900473ffffffffffffffffffffffffffffffffffffffff1673ffffffffffffffffffffffffffffffffffffffff1673ffffffffffffffffffffffffffffffffffffffff168152602001908152602001600020600085815260200190815260200160002060009054906101000a900460ff16156107c857600060018281548110610636577f4e487b7100000000000000000000000000000000000000000000000000000000600052603260045260246000fd5b9060005260206000200160009054906101000a900473ffffffffffffffffffffffffffffffffffffffff1690508073ffffffffffffffffffffffffffffffffffffffff166108fc849081150290604051600060405180830381858888f193505050501580156106a9573d6000803e3d6000fd5b507f2688e15fd023f66fae7c13d35bcc5410a91abd8d0dfdadc7336b6e2e9c3f011960018381548110610705577f4e487b7100000000000000000000000000000000000000000000000000000000600052603260045260246000fd5b9060005260206000200160009054906101000a900473ffffffffffffffffffffffffffffffffffffffff1684476001868154811061076c577f4e487b7100000000000000000000000000000000000000000000000000000000600052603260045260246000fd5b9060005260206000200160009054906101000a900473ffffffffffffffffffffffffffffffffffffffff1673ffffffffffffffffffffffffffffffffffffffff16316040516107be94939291906122e1565b60405180910390a1505b80806107d39061278f565b915050610526565b50505050565b6000606460286108266040518060400160405280600f81526020017f6661637475616c4163637572616379000000000000000000000000000000000081525085610a5e565b6108309190612662565b61083a9190612631565b8161084591906125db565b90506064601461088a6040518060400160405280600f81526020017f6d616c6963696f7573496e74656e74000000000000000000000000000000000081525085610a5e565b6108949190612662565b61089e9190612631565b816108a991906125db565b9050606460146108ee6040518060400160405280601381526020017f6861726d66756c436f6e73657175656e6365730000000000000000000000000081525085610a5e565b6108f89190612662565b6109029190612631565b8161090d91906125db565b90506064600a6109526040518060400160405280601381526020017f636f6e74656e744d616e6970756c6174696f6e0000000000000000000000000081525085610a5e565b61095c9190612662565b6109669190612631565b8161097191906125db565b90506064600a6109b66040518060400160405280601b81526020017f76696f6c6174696f6e4f66506c6174666f726d506f6c6963696573000000000081525085610a5e565b6109c09190612662565b6109ca9190612631565b816109d591906125db565b90508060056000848152602001908152602001600020819055505050565b600660205281600052604060002081805160208101820180518482526020830160208501208183528095505050505050600091509150508060000154908060010154905082565b60008054906101000a900473ffffffffffffffffffffffffffffffffffffffff1681565b6000806006600084815260200190815260200160002084604051610a82919061221c565b9081526020016040518091039020604051806040016040529081600082015481526020016001820154815250509050600060076000858152602001908152602001600020604051610ad2906122b1565b90815260200160405180910390205460648360000151610af29190612662565b610afc9190612631565b9050600060076000868152602001908152602001600020604051610b1f90612287565b90815260200160405180910390205460648460200151610b3f9190612662565b610b499190612631565b90506000600482610b5a9190612662565b600184610b679190612662565b610b7191906125db565b905060006005606483610b849190612662565b610b8e9190612631565b9050809550505050505092915050565b60006001811115610bd8577f4e487b7100000000000000000000000000000000000000000000000000000000600052602160045260246000fd5b6004600083815260200190815260200160002060009054906101000a900460ff166001811115610c31577f4e487b7100000000000000000000000000000000000000000000000000000000600052602160045260246000fd5b14610c71576040517f08c379a0000000000000000000000000000000000000000000000000000000008152600401610c6890612397565b60405180910390fd5b436170806008600084815260200190815260200160002054610c9391906125db565b1115610cd4576040517f08c379a0000000000000000000000000000000000000000000000000000000008152600401610ccb9061246f565b60405180910390fd5b610cdd816107e1565b6046600560008381526020019081526020016000205410610d755760016009600083815260200190815260200160002060006101000a81548160ff0219169083151502179055507f644e9b045525474789f03c866578b766001c0d34becc8a19c1f17fc6b30e183b816005600084815260200190815260200160002054604051610d689291906123b7565b60405180910390a1610dee565b60006009600083815260200190815260200160002060006101000a81548160ff0219169083151502179055507fcd332d411bb978880fff21a29ea2d28c3405c41fb5819a0c8bcfb5a827a4ddd0816005600084815260200190815260200160002054604051610de5929190612413565b60405180910390a15b6001600a600083815260200190815260200160002060006101000a81548160ff02191690831515021790555060016004600083815260200190815260200160002060006101000a81548160ff02191690836001811115610e77577f4e487b7100000000000000000000000000000000000000000000000000000000600052602160045260246000fd5b0217905550610e858161033d565b7f4fa16f02e5d98e5d0859e515cb1bc8e3d3f14743eb623e2f685362b7d3f70d0a8143604051610eb692919061252a565b60405180910390a150565b600180811115610efa577f4e487b7100000000000000000000000000000000000000000000000000000000600052602160045260246000fd5b6004600083815260200190815260200160002060009054906101000a900460ff166001811115610f53577f4e487b7100000000000000000000000000000000000000000000000000000000600052602160045260246000fd5b14610f93576040517f08c379a0000000000000000000000000000000000000000000000000000000008152600401610f8a906124ef565b60405180910390fd5b60006004600083815260200190815260200160002060006101000a81548160ff02191690836001811115610ff0577f4e487b7100000000000000000000000000000000000000000000000000000000600052602160045260246000fd5b02179055504360086000838152602001908152602001600020819055507f32689d92c1683d1ff87da49b2db81410842eed93afcd24c7cee6dbef24ba4a15814360405161103e92919061252a565b60405180910390a150565b6000600260008373ffffffffffffffffffffffffffffffffffffffff1673ffffffffffffffffffffffffffffffffffffffff16815260200190815260200160002060009054906101000a900460ff169050919050565b60006009600083815260200190815260200160002060009054906101000a900460ff169050919050565b6000600a600083815260200190815260200160002060009054906101000a900460ff169050919050565b600260003373ffffffffffffffffffffffffffffffffffffffff1673ffffffffffffffffffffffffffffffffffffffff16815260200190815260200160002060009054906101000a900460ff1661117f576040517f08c379a0000000000000000000000000000000000000000000000000000000008152600401611176906124cf565b60405180910390fd5b600060018111156111b9577f4e487b7100000000000000000000000000000000000000000000000000000000600052602160045260246000fd5b6004600088815260200190815260200160002060009054906101000a900460ff166001811115611212577f4e487b7100000000000000000000000000000000000000000000000000000000600052602160045260246000fd5b14611252576040517f08c379a00000000000000000000000000000000000000000000000000000000081526004016112499061244f565b60405180910390fd5b655af3107a400034101561129b576040517f08c379a0000000000000000000000000000000000000000000000000000000008152600401611292906123f3565b60405180910390fd5b34600b60008282546112ad91906125db565b925050819055506001600360003373ffffffffffffffffffffffffffffffffffffffff1673ffffffffffffffffffffffffffffffffffffffff168152602001908152602001600020600088815260200190815260200160002060006101000a81548160ff02191690831515021790555060008060009054906101000a900473ffffffffffffffffffffffffffffffffffffffff1673ffffffffffffffffffffffffffffffffffffffff166303bc3466336040518263ffffffff1660e01b815260040161137991906122c6565b60206040518083038186803b15801561139157600080fd5b505afa1580156113a5573d6000803e3d6000fd5b505050506040513d601f19601f820116820180604052508101906113c99190611b05565b905060016002811115611405577f4e487b7100000000000000000000000000000000000000000000000000000000600052602160045260246000fd5b81600281111561143e577f4e487b7100000000000000000000000000000000000000000000000000000000600052602160045260246000fd5b14156116195760016007600089815260200190815260200160002060405161146590612287565b9081526020016040518091039020600082825461148291906125db565b9250508190555085156114d8576001600660008981526020019081526020016000206040516114b090612272565b908152602001604051809103902060010160008282546114d091906125db565b925050819055505b8415611527576001600660008981526020019081526020016000206040516114ff9061229c565b9081526020016040518091039020600101600082825461151f91906125db565b925050819055505b83156115765760016006600089815260200190815260200160002060405161154e9061225d565b9081526020016040518091039020600101600082825461156e91906125db565b925050819055505b82156115c55760016006600089815260200190815260200160002060405161159d90612233565b908152602001604051809103902060010160008282546115bd91906125db565b925050819055505b8115611614576001600660008981526020019081526020016000206040516115ec90612248565b9081526020016040518091039020600101600082825461160c91906125db565b925050819055505b611864565b60006002811115611653577f4e487b7100000000000000000000000000000000000000000000000000000000600052602160045260246000fd5b81600281111561168c577f4e487b7100000000000000000000000000000000000000000000000000000000600052602160045260246000fd5b1415611863576001600760008981526020019081526020016000206040516116b3906122b1565b908152602001604051809103902060008282546116d091906125db565b925050819055508515611726576001600660008981526020019081526020016000206040516116fe90612272565b9081526020016040518091039020600001600082825461171e91906125db565b925050819055505b84156117755760016006600089815260200190815260200160002060405161174d9061229c565b9081526020016040518091039020600001600082825461176d91906125db565b925050819055505b83156117c45760016006600089815260200190815260200160002060405161179c9061225d565b908152602001604051809103902060000160008282546117bc91906125db565b925050819055505b8215611813576001600660008981526020019081526020016000206040516117eb90612233565b9081526020016040518091039020600001600082825461180b91906125db565b925050819055505b81156118625760016006600089815260200190815260200160002060405161183a90612248565b9081526020016040518091039020600001600082825461185a91906125db565b925050819055505b5b5b50505050505050565b60006004600083815260200190815260200160002060009054906101000a900460ff169050919050565b60011515600260008373ffffffffffffffffffffffffffffffffffffffff1673ffffffffffffffffffffffffffffffffffffffff16815260200190815260200160002060009054906101000a900460ff161515141561192b576040517f08c379a0000000000000000000000000000000000000000000000000000000008152600401611922906124af565b60405180910390fd5b6001819080600181540180825580915050600190039060005260206000200160009091909190916101000a81548173ffffffffffffffffffffffffffffffffffffffff021916908373ffffffffffffffffffffffffffffffffffffffff1602179055506001600260008373ffffffffffffffffffffffffffffffffffffffff1673ffffffffffffffffffffffffffffffffffffffff16815260200190815260200160002060006101000a81548160ff0219169083151502179055507f8c81efd0403b5e7bba1cb9ef4fc55d23f8dca8d5f886bec9b153bf542f817d5a81604051611a1591906122c6565b60405180910390a150565b6000611a33611a2e84612584565b612553565b905082815260208101848484011115611a4b57600080fd5b611a5684828561274d565b509392505050565b600081359050611a6d816128a8565b92915050565b600081359050611a82816128bf565b92915050565b600081519050611a97816128d6565b92915050565b600082601f830112611aae57600080fd5b8135611abe848260208601611a20565b91505092915050565b600081359050611ad6816128e6565b92915050565b600060208284031215611aee57600080fd5b6000611afc84828501611a5e565b91505092915050565b600060208284031215611b1757600080fd5b6000611b2584828501611a88565b91505092915050565b60008060408385031215611b4157600080fd5b600083013567ffffffffffffffff811115611b5b57600080fd5b611b6785828601611a9d565b9250506020611b7885828601611ac7565b9150509250929050565b600060208284031215611b9457600080fd5b6000611ba284828501611ac7565b91505092915050565b60008060008060008060c08789031215611bc457600080fd5b6000611bd289828a01611ac7565b9650506020611be389828a01611a73565b9550506040611bf489828a01611a73565b9450506060611c0589828a01611a73565b9350506080611c1689828a01611a73565b92505060a0611c2789828a01611a73565b9150509295509295509295565b60008060408385031215611c4757600080fd5b6000611c5585828601611ac7565b925050602083013567ffffffffffffffff811115611c7257600080fd5b611c7e85828601611a9d565b9150509250929050565b611c91816126bc565b82525050565b611ca0816126ce565b82525050565b611caf81612717565b82525050565b611cbe8161273b565b82525050565b6000611ccf826125b4565b611cd981856125d0565b9350611ce981856020860161275c565b80840191505092915050565b6000611d026013836125d0565b91507f6861726d66756c436f6e73657175656e636573000000000000000000000000006000830152601382019050919050565b6000611d42601b836125d0565b91507f76696f6c6174696f6e4f66506c6174666f726d506f6c696369657300000000006000830152601b82019050919050565b6000611d826019836125bf565b91507f4e6f20766f7465727320666f722074686973207265706f7274000000000000006000830152602082019050919050565b6000611dc26010836125bf565b91507f566f7465206973206e6f74206f70656e000000000000000000000000000000006000830152602082019050919050565b6000611e026022836125bf565b91507f4163636570746564202d204d6973696e666f726d6174696f6e2076657269666960008301527f65640000000000000000000000000000000000000000000000000000000000006020830152604082019050919050565b6000611e686013836125d0565b91507f636f6e74656e744d616e6970756c6174696f6e000000000000000000000000006000830152601382019050919050565b6000611ea8600f836125d0565b91507f6661637475616c416363757261637900000000000000000000000000000000006000830152600f82019050919050565b6000611ee86016836125d0565b91507f746f74616c5665726966696564566572696669657273000000000000000000006000830152601682019050919050565b6000611f286026836125bf565b91507f496e73756666696369656e742065746865722073656e7420666f7220766f746960008301527f6e672066656500000000000000000000000000000000000000000000000000006020830152604082019050919050565b6000611f8e6026836125bf565b91507f52656a6563746564202d204d6973696e666f726d6174696f6e206e6f7420766560008301527f72696669656400000000000000000000000000000000000000000000000000006020830152604082019050919050565b6000611ff46020836125bf565b91507f4170706c6963616e74206973206e6f74206f70656e20666f7220766f74696e676000830152602082019050919050565b6000612034600f836125d0565b91507f6d616c6963696f7573496e74656e7400000000000000000000000000000000006000830152600f82019050919050565b6000612074600f836125bf565b91507f446561646c696e65206e6f7420757000000000000000000000000000000000006000830152602082019050919050565b60006120b46018836125bf565b91507f566f74696e6720686173206e6f7420636f6e636c7564656400000000000000006000830152602082019050919050565b60006120f4601a836125bf565b91507f596f752061726520616c726561647920726567697374657265640000000000006000830152602082019050919050565b6000612134601e836125bf565b91507f596f7520617265206e6f742061207265676973746572656420766f74657200006000830152602082019050919050565b60006121746023836125bf565b91507f4170706c6963616e7420616c726561647920756e646572676f696e6720766f7460008301527f696e6700000000000000000000000000000000000000000000000000000000006020830152604082019050919050565b60006121da6011836125d0565b91507f746f74616c526567756c617255736572730000000000000000000000000000006000830152601182019050919050565b6122168161270d565b82525050565b60006122288284611cc4565b915081905092915050565b600061223e82611cf5565b9150819050919050565b600061225382611d35565b9150819050919050565b600061226882611e5b565b9150819050919050565b600061227d82611e9b565b9150819050919050565b600061229282611edb565b9150819050919050565b60006122a782612027565b9150819050919050565b60006122bc826121cd565b9150819050919050565b60006020820190506122db6000830184611c88565b92915050565b60006080820190506122f66000830187611c88565b612303602083018661220d565b612310604083018561220d565b61231d606083018461220d565b95945050505050565b600060208201905061233b6000830184611c97565b92915050565b60006020820190506123566000830184611ca6565b92915050565b60006020820190506123716000830184611cb5565b92915050565b6000602082019050818103600083015261239081611d75565b9050919050565b600060208201905081810360008301526123b081611db5565b9050919050565b600060608201905081810360008301526123d081611df5565b90506123df602083018561220d565b6123ec604083018461220d565b9392505050565b6000602082019050818103600083015261240c81611f1b565b9050919050565b6000606082019050818103600083015261242c81611f81565b905061243b602083018561220d565b612448604083018461220d565b9392505050565b6000602082019050818103600083015261246881611fe7565b9050919050565b6000602082019050818103600083015261248881612067565b9050919050565b600060208201905081810360008301526124a8816120a7565b9050919050565b600060208201905081810360008301526124c8816120e7565b9050919050565b600060208201905081810360008301526124e881612127565b9050919050565b6000602082019050818103600083015261250881612167565b9050919050565b6000602082019050612524600083018461220d565b92915050565b600060408201905061253f600083018561220d565b61254c602083018461220d565b9392505050565b6000604051905081810181811067ffffffffffffffff8211171561257a57612579612865565b5b8060405250919050565b600067ffffffffffffffff82111561259f5761259e612865565b5b601f19601f8301169050602081019050919050565b600081519050919050565b600082825260208201905092915050565b600081905092915050565b60006125e68261270d565b91506125f18361270d565b9250827fffffffffffffffffffffffffffffffffffffffffffffffffffffffffffffffff03821115612626576126256127d8565b5b828201905092915050565b600061263c8261270d565b91506126478361270d565b92508261265757612656612807565b5b828204905092915050565b600061266d8261270d565b91506126788361270d565b9250817fffffffffffffffffffffffffffffffffffffffffffffffffffffffffffffffff04831182151516156126b1576126b06127d8565b5b828202905092915050565b60006126c7826126ed565b9050919050565b60008115159050919050565b60008190506126e882612894565b919050565b600073ffffffffffffffffffffffffffffffffffffffff82169050919050565b6000819050919050565b600061272282612729565b9050919050565b6000612734826126ed565b9050919050565b6000612746826126da565b9050919050565b82818337600083830152505050565b60005b8381101561277a57808201518184015260208101905061275f565b83811115612789576000848401525b50505050565b600061279a8261270d565b91507fffffffffffffffffffffffffffffffffffffffffffffffffffffffffffffffff8214156127cd576127cc6127d8565b5b600182019050919050565b7f4e487b7100000000000000000000000000000000000000000000000000000000600052601160045260246000fd5b7f4e487b7100000000000000000000000000000000000000000000000000000000600052601260045260246000fd5b7f4e487b7100000000000000000000000000000000000000000000000000000000600052602160045260246000fd5b7f4e487b7100000000000000000000000000000000000000000000000000000000600052604160045260246000fd5b600281106128a5576128a4612836565b5b50565b6128b1816126bc565b81146128bc57600080fd5b50565b6128c8816126ce565b81146128d357600080fd5b50565b600381106128e357600080fd5b50565b6128ef8161270d565b81146128fa57600080fd5b5056fea264697066735822122051aaa53441c37f4000fbfb5e7b7643daee49e9c2712ae5d40ee7b87a8175522564736f6c63430008000033",
  "immutableReferences": {},
  "source": "// SPDX-License-Identifier: MIT\npragma solidity ^0.8.0;\n\nimport \"./User.sol\";\n\ncontract AcceptanceVoting {\n    enum VotingState {\n        OPEN,\n        CLOSED\n    }\n\n    struct Criterion {\n        uint regularUserVotes;\n        uint verifiedVerifierVotes;\n    }\n\n    User public userContract;\n\n    address[] voters;\n\n    mapping(address => bool) isVoter;\n\n    // users => reportId => true if voted\n    mapping(address => mapping(uint256 => bool)) hasVoted;\n\n    mapping(uint256 => VotingState) reportVotingState;\n    mapping(uint256 => uint256) reportVotingScore;\n\n    // reportId => criteria name => vote count\n    mapping(uint256 => mapping(string => Criterion)) public criteria;\n    // reportId => type of voters => total number of voters\n    //  option for string -> totalRegularUsers, totalVerifiedVerifiers\n    mapping(uint256 => mapping(string => uint256)) votersBreakdown;\n    // vote open block number\n    mapping(uint => uint256) reportVotingOpenTimeframe;\n\n    // verified for misinformation\n    mapping(uint256 => bool) isApproved;\n\n    // voting ended\n    mapping(uint256 => bool) isConcluded;\n\n    uint256 potOfMoney;\n\n    uint256 constant VOTING_PERIOD_BLOCKS = 28800; // Approximately 48 hours (assuming 12-second block time)\n\n    uint256 constant REGULAR_USER_VOTE_WEIGHT = 1;\n    uint256 constant VERIFIER_VOTE_WEIGHT = 4;\n\n    uint256 constant FACTUAL_ACCURACY_WEIGHT = 40;\n    uint256 constant MALICIOUS_INTENT_WEIGHT = 20;\n    uint256 constant HARMFUL_CONSEQUENCES_WEIGHT = 20;\n    uint256 constant CONTENT_MANIPULATION_WEIGHT = 10;\n    uint256 constant POLICY_VIOLATION_WEIGHT = 10;\n\n    uint256 constant VALIDITY_THRESHOLD = 70;\n\n    // events\n    event voter_added(address user);\n\n    event vote_open(uint256 reportId, uint256 blockNumber);\n    event vote_close(uint256 reportId, uint256 blockNumber);\n\n    event voted(\n        address user,\n        bool factualAccuracy,\n        bool maliciousIntent,\n        bool harmfulConsequences,\n        bool contentManipulation,\n        bool violationOfPlatformPolicies\n    );\n\n    event vote_results_accepted(\n        string outcome,\n        uint256 reportId,\n        uint256 score\n    );\n    event vote_results_rejected(\n        string outcome,\n        uint256 reportId,\n        uint256 score\n    );\n\n    event fee_distributed(\n        address voter,\n        uint256 val,\n        uint256 contract_balance,\n        uint256 acc_balance\n    );\n\n    constructor(User _userContract) {\n        userContract = _userContract;\n    }\n\n    function vote(\n        uint256 reportId,\n        bool factualAccuracy,\n        bool maliciousIntent,\n        bool contentManipulation,\n        bool harmfulConsequences,\n        bool violationOfPlatformPolicies\n    ) public payable {\n        require(isVoter[msg.sender], \"You are not a registered voter\");\n        require(\n            reportVotingState[reportId] == VotingState.OPEN,\n            \"Applicant is not open for voting\"\n        );\n\n        // Ensure that the voter has paid the fee\n        require(\n            msg.value >= 100000000000000,\n            \"Insufficient ether sent for voting fee\"\n        );\n\n        // Add the fee to the potOfMoney\n        potOfMoney += msg.value;\n\n        hasVoted[msg.sender][reportId] = true;\n\n        User.userGroup userGroup = userContract.getUserGroupByAddress(\n            msg.sender\n        );\n\n        if (userGroup == User.userGroup.VERIFIER) {\n            votersBreakdown[reportId][\"totalVerifiedVerifiers\"] += 1;\n            if (factualAccuracy) {\n                (criteria[reportId][\"factualAccuracy\"])\n                    .verifiedVerifierVotes += 1;\n            }\n\n            if (maliciousIntent) {\n                (criteria[reportId][\"maliciousIntent\"])\n                    .verifiedVerifierVotes += 1;\n            }\n\n            if (contentManipulation) {\n                (criteria[reportId][\"contentManipulation\"])\n                    .verifiedVerifierVotes += 1;\n            }\n\n            if (harmfulConsequences) {\n                (criteria[reportId][\"harmfulConsequences\"])\n                    .verifiedVerifierVotes += 1;\n            }\n\n            if (violationOfPlatformPolicies) {\n                (criteria[reportId][\"violationOfPlatformPolicies\"])\n                    .verifiedVerifierVotes += 1;\n            }\n        } else if (userGroup == User.userGroup.GENERAL) {\n            votersBreakdown[reportId][\"totalRegularUsers\"] += 1;\n            if (factualAccuracy) {\n                (criteria[reportId][\"factualAccuracy\"]).regularUserVotes += 1;\n            }\n\n            if (maliciousIntent) {\n                (criteria[reportId][\"maliciousIntent\"]).regularUserVotes += 1;\n            }\n\n            if (contentManipulation) {\n                (criteria[reportId][\"contentManipulation\"])\n                    .regularUserVotes += 1;\n            }\n\n            if (harmfulConsequences) {\n                (criteria[reportId][\"harmfulConsequences\"])\n                    .regularUserVotes += 1;\n            }\n\n            if (violationOfPlatformPolicies) {\n                (criteria[reportId][\"violationOfPlatformPolicies\"])\n                    .regularUserVotes += 1;\n            }\n        }\n    }\n\n    function openVote(uint256 reportId) external {\n        require(\n            reportVotingState[reportId] == VotingState.CLOSED,\n            \"Applicant already undergoing voting\"\n        );\n\n        reportVotingState[reportId] = VotingState.OPEN;\n        reportVotingOpenTimeframe[reportId] = block.number;\n\n        emit vote_open(reportId, block.number);\n    }\n\n    function getCriterionScore(\n        string memory criterionName,\n        uint256 reportId\n    ) public view returns (uint) {\n        Criterion memory criterion = criteria[reportId][criterionName];\n        uint regularUserPercentage = (criterion.regularUserVotes * 100) /\n            votersBreakdown[reportId][\"totalRegularUsers\"];\n        uint verifiedVerifierPercentage = (criterion.verifiedVerifierVotes *\n            100) / votersBreakdown[reportId][\"totalVerifiedVerifiers\"];\n        uint score = (regularUserPercentage * 1) +\n            (verifiedVerifierPercentage * 4);\n        uint normalizedScore = (score * 100) / 5;\n        return normalizedScore;\n    }\n\n    function calculateScore(uint256 reportId) public {\n        uint overallWeightedScore;\n        overallWeightedScore +=\n            (getCriterionScore(\"factualAccuracy\", reportId) *\n                FACTUAL_ACCURACY_WEIGHT) /\n            100;\n        overallWeightedScore +=\n            (getCriterionScore(\"maliciousIntent\", reportId) *\n                MALICIOUS_INTENT_WEIGHT) /\n            100;\n        overallWeightedScore +=\n            (getCriterionScore(\"harmfulConsequences\", reportId) *\n                HARMFUL_CONSEQUENCES_WEIGHT) /\n            100;\n        overallWeightedScore +=\n            (getCriterionScore(\"contentManipulation\", reportId) *\n                CONTENT_MANIPULATION_WEIGHT) /\n            100;\n        overallWeightedScore +=\n            (getCriterionScore(\"violationOfPlatformPolicies\", reportId) *\n                POLICY_VIOLATION_WEIGHT) /\n            100;\n\n        reportVotingScore[reportId] = overallWeightedScore;\n    }\n\n    function closeVote(uint256 reportId) public {\n        require(\n            reportVotingState[reportId] == VotingState.OPEN,\n            \"Vote is not open\"\n        );\n        require(\n            reportVotingOpenTimeframe[reportId] + VOTING_PERIOD_BLOCKS <=\n                block.number,\n            \"Deadline not up\"\n        );\n\n        calculateScore(reportId);\n\n        if (reportVotingScore[reportId] >= VALIDITY_THRESHOLD) {\n            isApproved[reportId] = true;\n            emit vote_results_accepted(\n                \"Accepted - Misinformation verified\",\n                reportId,\n                reportVotingScore[reportId]\n            );\n        } else {\n            isApproved[reportId] = false;\n            emit vote_results_rejected(\n                \"Rejected - Misinformation not verified\",\n                reportId,\n                reportVotingScore[reportId]\n            );\n        }\n\n        isConcluded[reportId] = true;\n        reportVotingState[reportId] = VotingState.CLOSED;\n        distributeFee(reportId);\n\n        emit vote_close(reportId, block.number);\n    }\n\n    function distributeFee(uint256 reportId) public payable {\n        require(isConcluded[reportId] == true, \"Voting has not concluded\");\n\n        uint256 numberOfVoters;\n\n        for (uint256 i = 0; i < voters.length; i++) {\n            if (hasVoted[voters[i]][reportId]) {\n                numberOfVoters++;\n            }\n        }\n\n        require(numberOfVoters > 0, \"No voters for this report\");\n\n        uint256 reward = (((potOfMoney * 12) / 10) * 1E18) / numberOfVoters;\n\n        for (uint256 j = 0; j < voters.length; j++) {\n            if (hasVoted[voters[j]][reportId]) {\n                address payable recipient = payable(voters[j]);\n                recipient.transfer(reward);\n                emit fee_distributed(\n                    voters[j],\n                    reward,\n                    address(this).balance,\n                    address(voters[j]).balance\n                );\n            }\n        }\n    }\n\n    function addVoter(address user) public {\n        require(isVoter[user] != true, \"You are already registered\");\n\n        voters.push(user);\n        isVoter[user] = true;\n\n        emit voter_added(user);\n    }\n\n    function getVotingState(\n        uint256 reportId\n    ) public view returns (VotingState) {\n        return reportVotingState[reportId];\n    }\n\n    function checkApproved(uint256 reportId) public view returns (bool) {\n        return isApproved[reportId];\n    }\n\n    function checkConcluded(uint256 reportId) public view returns (bool) {\n        return isConcluded[reportId];\n    }\n\n    function checkIfVoter(address user) public view returns (bool) {\n        return isVoter[user];\n    }\n}\n",
  "sourcePath": "/Users/meganyee/Desktop/IS4302-GP2/contracts/AcceptanceVoting.sol",
  "compiler": {
    "name": "solc",
    "version": "0.8.0+commit.c7dfd78e.Emscripten.clang"
  },
  "schemaVersion": "3.4.16",
  "updatedAt": "2024-04-21T15:00:17.035Z",
  "networkType": "ethereum",
  "devdoc": {
    "kind": "dev",
    "methods": {},
    "version": 1
  },
  "userdoc": {
    "kind": "user",
    "methods": {},
    "version": 1
  }
}