{
  "contractName": "MisinformationReport",
  "abi": [
    {
      "inputs": [
        {
          "internalType": "address",
          "name": "_postContractAddress",
          "type": "address"
        }
      ],
      "stateMutability": "nonpayable",
      "type": "constructor"
    },
    {
      "anonymous": false,
      "inputs": [
        {
          "indexed": true,
          "internalType": "address",
          "name": "verifier",
          "type": "address"
        },
        {
          "indexed": false,
          "internalType": "uint256",
          "name": "amount",
          "type": "uint256"
        }
      ],
      "name": "FeePaid",
      "type": "event"
    },
    {
      "anonymous": false,
      "inputs": [
        {
          "indexed": true,
          "internalType": "uint256",
          "name": "reportId",
          "type": "uint256"
        },
        {
          "indexed": true,
          "internalType": "uint256",
          "name": "postId",
          "type": "uint256"
        },
        {
          "indexed": false,
          "internalType": "address",
          "name": "reporter",
          "type": "address"
        }
      ],
      "name": "MisinformationReportCreated",
      "type": "event"
    },
    {
      "anonymous": false,
      "inputs": [
        {
          "indexed": true,
          "internalType": "uint256",
          "name": "reportId",
          "type": "uint256"
        },
        {
          "indexed": false,
          "internalType": "bool",
          "name": "isValid",
          "type": "bool"
        }
      ],
      "name": "MisinformationReportResolved",
      "type": "event"
    },
    {
      "anonymous": false,
      "inputs": [
        {
          "indexed": true,
          "internalType": "uint256",
          "name": "reportId",
          "type": "uint256"
        }
      ],
      "name": "MisinformationReportUpdated",
      "type": "event"
    },
    {
      "inputs": [],
      "name": "nextReportId",
      "outputs": [
        {
          "internalType": "uint256",
          "name": "",
          "type": "uint256"
        }
      ],
      "stateMutability": "view",
      "type": "function",
      "constant": true
    },
    {
      "inputs": [],
      "name": "postContract",
      "outputs": [
        {
          "internalType": "contract Post",
          "name": "",
          "type": "address"
        }
      ],
      "stateMutability": "view",
      "type": "function",
      "constant": true
    },
    {
      "inputs": [
        {
          "internalType": "uint256",
          "name": "",
          "type": "uint256"
        }
      ],
      "name": "reports",
      "outputs": [
        {
          "internalType": "uint256",
          "name": "reportId",
          "type": "uint256"
        },
        {
          "internalType": "uint256",
          "name": "postId",
          "type": "uint256"
        },
        {
          "internalType": "address",
          "name": "reporter",
          "type": "address"
        },
        {
          "internalType": "string",
          "name": "justification",
          "type": "string"
        },
        {
          "internalType": "uint256",
          "name": "timestamp",
          "type": "uint256"
        },
        {
          "internalType": "enum MisinformationReport.VerificationStatusEnum",
          "name": "status",
          "type": "uint8"
        },
        {
          "internalType": "address",
          "name": "verifier",
          "type": "address"
        }
      ],
      "stateMutability": "view",
      "type": "function",
      "constant": true
    },
    {
      "inputs": [
        {
          "internalType": "uint256",
          "name": "_postId",
          "type": "uint256"
        },
        {
          "internalType": "string",
          "name": "_justification",
          "type": "string"
        }
      ],
      "name": "addMisinformationReport",
      "outputs": [],
      "stateMutability": "nonpayable",
      "type": "function"
    },
    {
      "inputs": [
        {
          "internalType": "uint256",
          "name": "_reportId",
          "type": "uint256"
        },
        {
          "internalType": "bool",
          "name": "_isValid",
          "type": "bool"
        },
        {
          "internalType": "address",
          "name": "_verifier",
          "type": "address"
        }
      ],
      "name": "resolveMisinformationReport",
      "outputs": [],
      "stateMutability": "nonpayable",
      "type": "function"
    }
  ],
  "bytecode": "0x60806040523480156200001157600080fd5b506040516200137938038062001379833981810160405281019062000037919062000095565b806000806101000a81548173ffffffffffffffffffffffffffffffffffffffff021916908373ffffffffffffffffffffffffffffffffffffffff160217905550506200010f565b6000815190506200008f81620000f5565b92915050565b600060208284031215620000a857600080fd5b6000620000b8848285016200007e565b91505092915050565b6000620000ce82620000d5565b9050919050565b600073ffffffffffffffffffffffffffffffffffffffff82169050919050565b6200010081620000c1565b81146200010c57600080fd5b50565b61125a806200011f6000396000f3fe608060405234801561001057600080fd5b50600436106100575760003560e01c80634ad651061461005c5780636e79bbf61461007a578063c942adf714610098578063f5a29039146100ce578063fc1b4038146100ea575b600080fd5b610064610106565b6040516100719190610e17565b60405180910390f35b61008261012a565b60405161008f9190610e92565b60405180910390f35b6100b260048036038101906100ad9190610bab565b610130565b6040516100c59796959493929190610ead565b60405180910390f35b6100e860048036038101906100e39190610bd4565b610257565b005b61010460048036038101906100ff9190610c23565b610531565b005b60008054906101000a900473ffffffffffffffffffffffffffffffffffffffff1681565b60025481565b6001818154811061014057600080fd5b90600052602060002090600602016000915090508060000154908060010154908060020160009054906101000a900473ffffffffffffffffffffffffffffffffffffffff169080600301805461019590611073565b80601f01602080910402602001604051908101604052809291908181526020018280546101c190611073565b801561020e5780601f106101e35761010080835404028352916020019161020e565b820191906000526020600020905b8154815290600101906020018083116101f157829003601f168201915b5050505050908060040154908060050160009054906101000a900460ff16908060050160019054906101000a900473ffffffffffffffffffffffffffffffffffffffff16905087565b600180549050831061029e576040517f08c379a000000000000000000000000000000000000000000000000000000000815260040161029590610e52565b60405180910390fd5b6000600184815481106102da577f4e487b7100000000000000000000000000000000000000000000000000000000600052603260045260246000fd5b9060005260206000209060060201905060016002811115610324577f4e487b7100000000000000000000000000000000000000000000000000000000600052602160045260246000fd5b8160050160009054906101000a900460ff16600281111561036e577f4e487b7100000000000000000000000000000000000000000000000000000000600052602160045260246000fd5b146103ae576040517f08c379a00000000000000000000000000000000000000000000000000000000081526004016103a590610e32565b60405180910390fd5b826103ba5760006103bd565b60025b8160050160006101000a81548160ff02191690836002811115610409577f4e487b7100000000000000000000000000000000000000000000000000000000600052602160045260246000fd5b0217905550818160050160016101000a81548173ffffffffffffffffffffffffffffffffffffffff021916908373ffffffffffffffffffffffffffffffffffffffff160217905550600061045b61089d565b90508273ffffffffffffffffffffffffffffffffffffffff166108fc829081150290604051600060405180830381858888f193505050501580156104a3573d6000803e3d6000fd5b50847fd862844cabca1bb37d9238ab116976d404442e5316d71e5e633365662dec6742856040516104d49190610dfc565b60405180910390a28273ffffffffffffffffffffffffffffffffffffffff167f075a2720282fdf622141dae0b048ef90a21a7e57c134c76912d19d006b3b3f6f826040516105229190610e92565b60405180910390a25050505050565b60008060009054906101000a900473ffffffffffffffffffffffffffffffffffffffff1673ffffffffffffffffffffffffffffffffffffffff166340731c24846040518263ffffffff1660e01b815260040161058d9190610e92565b60006040518083038186803b1580156105a557600080fd5b505afa1580156105b9573d6000803e3d6000fd5b505050506040513d6000823e3d601f19601f820116820180604052508101906105e29190610b6a565b9050600073ffffffffffffffffffffffffffffffffffffffff16816080015173ffffffffffffffffffffffffffffffffffffffff161415610658576040517f08c379a000000000000000000000000000000000000000000000000000000000815260040161064f90610e72565b60405180910390fd5b60006040518060e0016040528060025481526020018581526020013373ffffffffffffffffffffffffffffffffffffffff168152602001848152602001428152602001600160028111156106d5577f4e487b7100000000000000000000000000000000000000000000000000000000600052602160045260246000fd5b8152602001600073ffffffffffffffffffffffffffffffffffffffff1681525090506001819080600181540180825580915050600190039060005260206000209060060201600090919091909150600082015181600001556020820151816001015560408201518160020160006101000a81548173ffffffffffffffffffffffffffffffffffffffff021916908373ffffffffffffffffffffffffffffffffffffffff160217905550606082015181600301908051906020019061079a9291906108ad565b506080820151816004015560a08201518160050160006101000a81548160ff021916908360028111156107f6577f4e487b7100000000000000000000000000000000000000000000000000000000600052602160045260246000fd5b021790555060c08201518160050160016101000a81548173ffffffffffffffffffffffffffffffffffffffff021916908373ffffffffffffffffffffffffffffffffffffffff1602179055505050836002547fda8a6016712dbca7a4f9c91f0f34c32acb4dd162d617d0021390a7e6a24353d1336040516108779190610de1565b60405180910390a360026000815480929190610892906110a5565b919050555050505050565b6000670de0b6b3a7640000905090565b8280546108b990611073565b90600052602060002090601f0160209004810192826108db5760008555610922565b82601f106108f457805160ff1916838001178555610922565b82800160010185558215610922579182015b82811115610921578251825591602001919060010190610906565b5b50905061092f9190610933565b5090565b5b8082111561094c576000816000905550600101610934565b5090565b600061096361095e84610f54565b610f23565b90508281526020810184848401111561097b57600080fd5b610986848285611031565b509392505050565b60006109a161099c84610f54565b610f23565b9050828152602081018484840111156109b957600080fd5b6109c4848285611040565b509392505050565b6000813590506109db816111cf565b92915050565b6000815190506109f0816111cf565b92915050565b600081359050610a05816111e6565b92915050565b600081519050610a1a816111fd565b92915050565b600082601f830112610a3157600080fd5b8135610a41848260208601610950565b91505092915050565b600082601f830112610a5b57600080fd5b8151610a6b84826020860161098e565b91505092915050565b600060c08284031215610a8657600080fd5b610a9060c0610f23565b90506000610aa084828501610b55565b600083015250602082015167ffffffffffffffff811115610ac057600080fd5b610acc84828501610a4a565b602083015250604082015167ffffffffffffffff811115610aec57600080fd5b610af884828501610a4a565b6040830152506060610b0c84828501610b55565b6060830152506080610b20848285016109e1565b60808301525060a0610b3484828501610a0b565b60a08301525092915050565b600081359050610b4f8161120d565b92915050565b600081519050610b648161120d565b92915050565b600060208284031215610b7c57600080fd5b600082015167ffffffffffffffff811115610b9657600080fd5b610ba284828501610a74565b91505092915050565b600060208284031215610bbd57600080fd5b6000610bcb84828501610b40565b91505092915050565b600080600060608486031215610be957600080fd5b6000610bf786828701610b40565b9350506020610c08868287016109f6565b9250506040610c19868287016109cc565b9150509250925092565b60008060408385031215610c3657600080fd5b6000610c4485828601610b40565b925050602083013567ffffffffffffffff811115610c6157600080fd5b610c6d85828601610a20565b9150509250929050565b610c8081610fa0565b82525050565b610c8f81610fb2565b82525050565b610c9e81610ffb565b82525050565b610cad8161101f565b82525050565b6000610cbe82610f84565b610cc88185610f8f565b9350610cd8818560208601611040565b610ce1816111aa565b840191505092915050565b6000610cf9602383610f8f565b91507f5265706f7274206973206e6f7420696e2074686520636f72726563742073746160008301527f74652e00000000000000000000000000000000000000000000000000000000006020830152604082019050919050565b6000610d5f601683610f8f565b91507f5265706f727420646f6573206e6f742065786973742e000000000000000000006000830152602082019050919050565b6000610d9f601483610f8f565b91507f506f737420646f6573206e6f742065786973742e0000000000000000000000006000830152602082019050919050565b610ddb81610ff1565b82525050565b6000602082019050610df66000830184610c77565b92915050565b6000602082019050610e116000830184610c86565b92915050565b6000602082019050610e2c6000830184610c95565b92915050565b60006020820190508181036000830152610e4b81610cec565b9050919050565b60006020820190508181036000830152610e6b81610d52565b9050919050565b60006020820190508181036000830152610e8b81610d92565b9050919050565b6000602082019050610ea76000830184610dd2565b92915050565b600060e082019050610ec2600083018a610dd2565b610ecf6020830189610dd2565b610edc6040830188610c77565b8181036060830152610eee8187610cb3565b9050610efd6080830186610dd2565b610f0a60a0830185610ca4565b610f1760c0830184610c77565b98975050505050505050565b6000604051905081810181811067ffffffffffffffff82111715610f4a57610f4961117b565b5b8060405250919050565b600067ffffffffffffffff821115610f6f57610f6e61117b565b5b601f19601f8301169050602081019050919050565b600081519050919050565b600082825260208201905092915050565b6000610fab82610fd1565b9050919050565b60008115159050919050565b6000819050610fcc826111bb565b919050565b600073ffffffffffffffffffffffffffffffffffffffff82169050919050565b6000819050919050565b60006110068261100d565b9050919050565b600061101882610fd1565b9050919050565b600061102a82610fbe565b9050919050565b82818337600083830152505050565b60005b8381101561105e578082015181840152602081019050611043565b8381111561106d576000848401525b50505050565b6000600282049050600182168061108b57607f821691505b6020821081141561109f5761109e61114c565b5b50919050565b60006110b082610ff1565b91507fffffffffffffffffffffffffffffffffffffffffffffffffffffffffffffffff8214156110e3576110e26110ee565b5b600182019050919050565b7f4e487b7100000000000000000000000000000000000000000000000000000000600052601160045260246000fd5b7f4e487b7100000000000000000000000000000000000000000000000000000000600052602160045260246000fd5b7f4e487b7100000000000000000000000000000000000000000000000000000000600052602260045260246000fd5b7f4e487b7100000000000000000000000000000000000000000000000000000000600052604160045260246000fd5b6000601f19601f8301169050919050565b600381106111cc576111cb61111d565b5b50565b6111d881610fa0565b81146111e357600080fd5b50565b6111ef81610fb2565b81146111fa57600080fd5b50565b6003811061120a57600080fd5b50565b61121681610ff1565b811461122157600080fd5b5056fea2646970667358221220b5d7a7d24f466d157e2ca2351e38a38bfc0bb8343ef9daed3bc89e77763f00e164736f6c63430008000033",
  "immutableReferences": {},
  "source": "// SPDX-License-Identifier: MIT\npragma solidity ^0.8.0;\n\nimport \"./Post.sol\";\n\ncontract MisinformationReport {\n    // The VerificationStatus enum based on the ERD\n    enum VerificationStatusEnum { INVALID, VOTING_IN_PROGRESS, VERIFIED }\n\n    // The Report struct based on the ERD\n    struct MisinformationReportStruct {\n        uint256 reportId;\n        uint256 postId;\n        address reporter;\n        string justification;\n        uint256 timestamp;\n        VerificationStatusEnum status;\n        address verifier; // Address of the user who verifies the report\n    }\n\n    Post public postContract;\n    MisinformationReportStruct[] public reports;\n    uint256 public nextReportId;\n\n    // Events as per the ERD\n    event MisinformationReportCreated(uint256 indexed reportId, uint256 indexed postId, address reporter);\n    event MisinformationReportResolved(uint256 indexed reportId, bool isValid);\n    event MisinformationReportUpdated(uint256 indexed reportId);\n    event FeePaid(address indexed verifier, uint256 amount);\n\n    constructor(address _postContractAddress) {\n        postContract = Post(_postContractAddress);\n    }\n\n    function addMisinformationReport(uint256 _postId, string memory _justification) public {\n        // Fetch the post using the post contract to make sure it exists\n        Post.PostStruct memory postData = postContract.getPost(_postId);\n        require(postData.createdBy != address(0), \"Post does not exist.\");\n\n        // Create and store the report\n        MisinformationReportStruct memory newReport = MisinformationReportStruct({\n            reportId: nextReportId,\n            postId: _postId,\n            reporter: msg.sender,\n            justification: _justification,\n            timestamp: block.timestamp,\n            status: VerificationStatusEnum.VOTING_IN_PROGRESS,\n            verifier: address(0) // Initially there's no verifier\n        });\n\n        reports.push(newReport);\n        emit MisinformationReportCreated(nextReportId, _postId, msg.sender);\n        nextReportId++;\n    }\n\n    // Other functions like deleteMisinformationReport, updateMisinformationReport, and payFee would go here\n\n    // Example of a function to resolve a report and pay a fee to the verifier\n    function resolveMisinformationReport(uint256 _reportId, bool _isValid, address _verifier) public {\n        require(_reportId < reports.length, \"Report does not exist.\");\n        MisinformationReportStruct storage report = reports[_reportId];\n        require(report.status == VerificationStatusEnum.VOTING_IN_PROGRESS, \"Report is not in the correct state.\");\n\n        // Set the report as verified or invalid based on votes\n        report.status = _isValid ? VerificationStatusEnum.VERIFIED : VerificationStatusEnum.INVALID;\n        report.verifier = _verifier;\n\n        // Pay the fee to the verifier\n        uint256 feeAmount = calculateFee(); // You would need to implement this function\n        payable(_verifier).transfer(feeAmount);\n\n        emit MisinformationReportResolved(_reportId, _isValid);\n        emit FeePaid(_verifier, feeAmount);\n    }\n\n    // If _reportId is not used and no state is read, you can declare the function as pure and remove the parameter\n    function calculateFee() private pure returns (uint256) {\n        // Placeholder calculation for the fee\n        return 1 ether; // This is just an example. Adjust as necessary.\n    }\n\n}\n",
  "sourcePath": "/Users/ryanng/is4302-project/IS4302-GP2/contracts/MisinformationReport.sol",
  "compiler": {
    "name": "solc",
    "version": "0.8.0+commit.c7dfd78e.Emscripten.clang"
  },
  "schemaVersion": "3.4.16",
  "updatedAt": "2024-04-10T06:39:22.199Z",
  "networkType": "ethereum",
  "devdoc": {
    "kind": "dev",
    "methods": {},
    "version": 1
  },
  "userdoc": {
    "kind": "user",
    "methods": {},
    "version": 1
  }
}