{
  "contractName": "MisinformationReport",
  "abi": [
    {
      "inputs": [
        {
          "internalType": "address",
          "name": "_postContractAddress",
          "type": "address"
        }
      ],
      "stateMutability": "nonpayable",
      "type": "constructor"
    },
    {
      "anonymous": false,
      "inputs": [
        {
          "indexed": true,
          "internalType": "uint256",
          "name": "reportId",
          "type": "uint256"
        },
        {
          "indexed": true,
          "internalType": "uint256",
          "name": "postId",
          "type": "uint256"
        },
        {
          "indexed": false,
          "internalType": "address",
          "name": "reporter",
          "type": "address"
        }
      ],
      "name": "MisinformationReportCreated",
      "type": "event"
    },
    {
      "anonymous": false,
      "inputs": [
        {
          "indexed": true,
          "internalType": "uint256",
          "name": "reportId",
          "type": "uint256"
        }
      ],
      "name": "MisinformationReportDeleted",
      "type": "event"
    },
    {
      "anonymous": false,
      "inputs": [
        {
          "indexed": true,
          "internalType": "uint256",
          "name": "reportId",
          "type": "uint256"
        }
      ],
      "name": "MisinformationReportUpdated",
      "type": "event"
    },
    {
      "inputs": [],
      "name": "nextReportId",
      "outputs": [
        {
          "internalType": "uint256",
          "name": "",
          "type": "uint256"
        }
      ],
      "stateMutability": "view",
      "type": "function",
      "constant": true
    },
    {
      "inputs": [],
      "name": "postContract",
      "outputs": [
        {
          "internalType": "contract Post",
          "name": "",
          "type": "address"
        }
      ],
      "stateMutability": "view",
      "type": "function",
      "constant": true
    },
    {
      "inputs": [
        {
          "internalType": "uint256",
          "name": "",
          "type": "uint256"
        }
      ],
      "name": "reports",
      "outputs": [
        {
          "internalType": "uint256",
          "name": "reportId",
          "type": "uint256"
        },
        {
          "internalType": "uint256",
          "name": "postId",
          "type": "uint256"
        },
        {
          "internalType": "address",
          "name": "reporter",
          "type": "address"
        },
        {
          "internalType": "string",
          "name": "justification",
          "type": "string"
        },
        {
          "internalType": "uint256",
          "name": "timestamp",
          "type": "uint256"
        },
        {
          "internalType": "enum MisinformationReport.VerificationStatusEnum",
          "name": "status",
          "type": "uint8"
        },
        {
          "internalType": "address",
          "name": "verifier",
          "type": "address"
        }
      ],
      "stateMutability": "view",
      "type": "function",
      "constant": true
    },
    {
      "inputs": [
        {
          "internalType": "uint256",
          "name": "_reportId",
          "type": "uint256"
        },
        {
          "internalType": "bool",
          "name": "_isValid",
          "type": "bool"
        },
        {
          "internalType": "address",
          "name": "_verifier",
          "type": "address"
        }
      ],
      "name": "updateMisinformationReport",
      "outputs": [],
      "stateMutability": "nonpayable",
      "type": "function"
    },
    {
      "inputs": [
        {
          "internalType": "uint256",
          "name": "_reportId",
          "type": "uint256"
        }
      ],
      "name": "deleteMisinformationReport",
      "outputs": [],
      "stateMutability": "nonpayable",
      "type": "function"
    }
  ],
  "bytecode": "0x608060405234801561001057600080fd5b50604051610be3380380610be38339818101604052810190610032919061008d565b806000806101000a81548173ffffffffffffffffffffffffffffffffffffffff021916908373ffffffffffffffffffffffffffffffffffffffff160217905550506100ff565b600081519050610087816100e8565b92915050565b60006020828403121561009f57600080fd5b60006100ad84828501610078565b91505092915050565b60006100c1826100c8565b9050919050565b600073ffffffffffffffffffffffffffffffffffffffff82169050919050565b6100f1816100b6565b81146100fc57600080fd5b50565b610ad58061010e6000396000f3fe608060405234801561001057600080fd5b50600436106100575760003560e01c80634ad651061461005c5780636e79bbf61461007a5780639bfcd64b14610098578063c942adf7146100b4578063e6e50369146100ea575b600080fd5b610064610106565b60405161007191906107d9565b60405180910390f35b61008261012a565b60405161008f9190610834565b60405180910390f35b6100b260048036038101906100ad919061066c565b610130565b005b6100ce60048036038101906100c9919061066c565b61027c565b6040516100e1979695949392919061084f565b60405180910390f35b61010460048036038101906100ff9190610695565b6103a3565b005b60008054906101000a900473ffffffffffffffffffffffffffffffffffffffff1681565b60025481565b6001805490508110610177576040517f08c379a000000000000000000000000000000000000000000000000000000000815260040161016e90610814565b60405180910390fd5b600181815481106101b1577f4e487b7100000000000000000000000000000000000000000000000000000000600052603260045260246000fd5b906000526020600020906006020160008082016000905560018201600090556002820160006101000a81549073ffffffffffffffffffffffffffffffffffffffff021916905560038201600061020791906105d0565b60048201600090556005820160006101000a81549060ff02191690556005820160016101000a81549073ffffffffffffffffffffffffffffffffffffffff02191690555050807fe666d3f3bc2f282b04c332cb8d6d4c6674300fa50d33d49c979d07c9f777b56b60405160405180910390a250565b6001818154811061028c57600080fd5b90600052602060002090600602016000915090508060000154908060010154908060020160009054906101000a900473ffffffffffffffffffffffffffffffffffffffff16908060030180546102e1906109a5565b80601f016020809104026020016040519081016040528092919081815260200182805461030d906109a5565b801561035a5780601f1061032f5761010080835404028352916020019161035a565b820191906000526020600020905b81548152906001019060200180831161033d57829003601f168201915b5050505050908060040154908060050160009054906101000a900460ff16908060050160019054906101000a900473ffffffffffffffffffffffffffffffffffffffff16905087565b60018054905083106103ea576040517f08c379a00000000000000000000000000000000000000000000000000000000081526004016103e190610814565b60405180910390fd5b600060018481548110610426577f4e487b7100000000000000000000000000000000000000000000000000000000600052603260045260246000fd5b9060005260206000209060060201905060016002811115610470577f4e487b7100000000000000000000000000000000000000000000000000000000600052602160045260246000fd5b8160050160009054906101000a900460ff1660028111156104ba577f4e487b7100000000000000000000000000000000000000000000000000000000600052602160045260246000fd5b146104fa576040517f08c379a00000000000000000000000000000000000000000000000000000000081526004016104f1906107f4565b60405180910390fd5b82610506576000610509565b60025b8160050160006101000a81548160ff02191690836002811115610555577f4e487b7100000000000000000000000000000000000000000000000000000000600052602160045260246000fd5b0217905550818160050160016101000a81548173ffffffffffffffffffffffffffffffffffffffff021916908373ffffffffffffffffffffffffffffffffffffffff160217905550837fc25571527af09955ad1a1bd319f7be3b51d102465f43666c364a492974af368b60405160405180910390a250505050565b5080546105dc906109a5565b6000825580601f106105ee575061060d565b601f01602090049060005260206000209081019061060c9190610610565b5b50565b5b80821115610629576000816000905550600101610611565b5090565b60008135905061063c81610a5a565b92915050565b60008135905061065181610a71565b92915050565b60008135905061066681610a88565b92915050565b60006020828403121561067e57600080fd5b600061068c84828501610657565b91505092915050565b6000806000606084860312156106aa57600080fd5b60006106b886828701610657565b93505060206106c986828701610642565b92505060406106da8682870161062d565b9150509250925092565b6106ed816108e1565b82525050565b6106fc8161093c565b82525050565b61070b81610960565b82525050565b600061071c826108c5565b61072681856108d0565b9350610736818560208601610972565b61073f81610a35565b840191505092915050565b6000610757601e836108d0565b91507f5265706f7274206973206e6f7420696e20766f74696e672073746167652e00006000830152602082019050919050565b60006107976016836108d0565b91507f5265706f727420646f6573206e6f742065786973742e000000000000000000006000830152602082019050919050565b6107d381610932565b82525050565b60006020820190506107ee60008301846106f3565b92915050565b6000602082019050818103600083015261080d8161074a565b9050919050565b6000602082019050818103600083015261082d8161078a565b9050919050565b600060208201905061084960008301846107ca565b92915050565b600060e082019050610864600083018a6107ca565b61087160208301896107ca565b61087e60408301886106e4565b81810360608301526108908187610711565b905061089f60808301866107ca565b6108ac60a0830185610702565b6108b960c08301846106e4565b98975050505050505050565b600081519050919050565b600082825260208201905092915050565b60006108ec82610912565b9050919050565b60008115159050919050565b600081905061090d82610a46565b919050565b600073ffffffffffffffffffffffffffffffffffffffff82169050919050565b6000819050919050565b60006109478261094e565b9050919050565b600061095982610912565b9050919050565b600061096b826108ff565b9050919050565b60005b83811015610990578082015181840152602081019050610975565b8381111561099f576000848401525b50505050565b600060028204905060018216806109bd57607f821691505b602082108114156109d1576109d0610a06565b5b50919050565b7f4e487b7100000000000000000000000000000000000000000000000000000000600052602160045260246000fd5b7f4e487b7100000000000000000000000000000000000000000000000000000000600052602260045260246000fd5b6000601f19601f8301169050919050565b60038110610a5757610a566109d7565b5b50565b610a63816108e1565b8114610a6e57600080fd5b50565b610a7a816108f3565b8114610a8557600080fd5b50565b610a9181610932565b8114610a9c57600080fd5b5056fea26469706673582212204e76f3537c4b5d1b0fb346e33428361691745773d22537a252464eb5e7351aa664736f6c63430008000033",
  "immutableReferences": {},
  "source": "// SPDX-License-Identifier: MIT\npragma solidity ^0.8.0;\n\nimport \"./Post.sol\";\n\ncontract MisinformationReport {\n    enum VerificationStatusEnum { INVALID, VOTING_IN_PROGRESS, VERIFIED }\n\n    struct MisinformationReportStruct {\n        uint256 reportId;\n        uint256 postId;\n        address reporter;\n        string justification;\n        uint256 timestamp;\n        VerificationStatusEnum status;\n        address verifier;\n    }\n\n    Post public postContract;\n    MisinformationReportStruct[] public reports;\n    uint256 public nextReportId;\n\n    event MisinformationReportCreated(uint256 indexed reportId, uint256 indexed postId, address reporter);\n    event MisinformationReportUpdated(uint256 indexed reportId);\n    event MisinformationReportDeleted(uint256 indexed reportId);\n\n    constructor(address _postContractAddress) {\n        postContract = Post(_postContractAddress);\n    }\n\n    // function addMisinformationReport(uint256 _postId, string memory _justification) public {\n    //     Post.post memory postData = postContract.viewPostById(_postId);\n    //     require(postData.createdBy != address(0), \"Post does not exist.\");\n\n    //     MisinformationReportStruct memory newReport = MisinformationReportStruct({\n    //         reportId: nextReportId,\n    //         postId: _postId,\n    //         reporter: msg.sender,\n    //         justification: _justification,\n    //         timestamp: block.timestamp,\n    //         status: VerificationStatusEnum.VOTING_IN_PROGRESS,\n    //         verifier: address(0) \n    //     });\n\n    //     reports.push(newReport);\n    //     emit MisinformationReportCreated(nextReportId, _postId, msg.sender);\n    //     nextReportId++;\n    // }\n\n    function updateMisinformationReport(uint256 _reportId, bool _isValid, address _verifier) public {\n        require(_reportId < reports.length, \"Report does not exist.\");\n        MisinformationReportStruct storage report = reports[_reportId];\n        require(report.status == VerificationStatusEnum.VOTING_IN_PROGRESS, \"Report is not in voting stage.\");\n\n        report.status = _isValid ? VerificationStatusEnum.VERIFIED : VerificationStatusEnum.INVALID;\n        report.verifier = _verifier;\n\n        emit MisinformationReportUpdated(_reportId);\n    }\n\n    function deleteMisinformationReport(uint256 _reportId) public {\n        require(_reportId < reports.length, \"Report does not exist.\");\n        delete reports[_reportId];\n        emit MisinformationReportDeleted(_reportId);\n    }\n\n}\n",
  "sourcePath": "/Users/GuoJun/Documents/NUS/Y4S2/IS4302/IS4302-GP2/contracts/MisinformationReport.sol",
  "compiler": {
    "name": "solc",
    "version": "0.8.0+commit.c7dfd78e.Emscripten.clang"
  },
  "schemaVersion": "3.4.16",
  "updatedAt": "2024-04-16T17:24:49.616Z",
  "networkType": "ethereum",
  "devdoc": {
    "kind": "dev",
    "methods": {},
    "version": 1
  },
  "userdoc": {
    "kind": "user",
    "methods": {},
    "version": 1
  }
}