{
  "contractName": "MisinformationReport",
  "abi": [
    {
      "inputs": [
        {
          "internalType": "address",
          "name": "_postContractAddress",
          "type": "address"
        }
      ],
      "stateMutability": "nonpayable",
      "type": "constructor"
    },
    {
      "inputs": [],
      "name": "nextReportId",
      "outputs": [
        {
          "internalType": "uint256",
          "name": "",
          "type": "uint256"
        }
      ],
      "stateMutability": "view",
      "type": "function",
      "constant": true
    },
    {
      "inputs": [],
      "name": "postContract",
      "outputs": [
        {
          "internalType": "contract Post",
          "name": "",
          "type": "address"
        }
      ],
      "stateMutability": "view",
      "type": "function",
      "constant": true
    },
    {
      "inputs": [
        {
          "internalType": "uint256",
          "name": "",
          "type": "uint256"
        }
      ],
      "name": "reports",
      "outputs": [
        {
          "internalType": "uint256",
          "name": "reportId",
          "type": "uint256"
        },
        {
          "internalType": "uint256",
          "name": "postId",
          "type": "uint256"
        },
        {
          "internalType": "address",
          "name": "reporter",
          "type": "address"
        },
        {
          "internalType": "string",
          "name": "justification",
          "type": "string"
        },
        {
          "internalType": "uint256",
          "name": "timestamp",
          "type": "uint256"
        },
        {
          "internalType": "bool",
          "name": "isResolved",
          "type": "bool"
        },
        {
          "internalType": "bool",
          "name": "isValid",
          "type": "bool"
        }
      ],
      "stateMutability": "view",
      "type": "function",
      "constant": true
    },
    {
      "inputs": [
        {
          "internalType": "uint256",
          "name": "",
          "type": "uint256"
        },
        {
          "internalType": "uint256",
          "name": "",
          "type": "uint256"
        }
      ],
      "name": "votesInvalid",
      "outputs": [
        {
          "internalType": "uint256",
          "name": "",
          "type": "uint256"
        }
      ],
      "stateMutability": "view",
      "type": "function",
      "constant": true
    },
    {
      "inputs": [
        {
          "internalType": "uint256",
          "name": "",
          "type": "uint256"
        },
        {
          "internalType": "uint256",
          "name": "",
          "type": "uint256"
        }
      ],
      "name": "votesValid",
      "outputs": [
        {
          "internalType": "uint256",
          "name": "",
          "type": "uint256"
        }
      ],
      "stateMutability": "view",
      "type": "function",
      "constant": true
    },
    {
      "inputs": [
        {
          "internalType": "uint256",
          "name": "_postId",
          "type": "uint256"
        },
        {
          "internalType": "string",
          "name": "_justification",
          "type": "string"
        }
      ],
      "name": "reportMisinformation",
      "outputs": [],
      "stateMutability": "nonpayable",
      "type": "function"
    },
    {
      "inputs": [
        {
          "internalType": "uint256",
          "name": "_reportId",
          "type": "uint256"
        },
        {
          "internalType": "bool",
          "name": "_isValid",
          "type": "bool"
        }
      ],
      "name": "voteOnReport",
      "outputs": [],
      "stateMutability": "nonpayable",
      "type": "function"
    },
    {
      "inputs": [
        {
          "internalType": "uint256",
          "name": "_reportId",
          "type": "uint256"
        }
      ],
      "name": "resolveReport",
      "outputs": [],
      "stateMutability": "nonpayable",
      "type": "function"
    },
    {
      "inputs": [
        {
          "internalType": "uint256",
          "name": "_reportId",
          "type": "uint256"
        }
      ],
      "name": "getReport",
      "outputs": [
        {
          "components": [
            {
              "internalType": "uint256",
              "name": "reportId",
              "type": "uint256"
            },
            {
              "internalType": "uint256",
              "name": "postId",
              "type": "uint256"
            },
            {
              "internalType": "address",
              "name": "reporter",
              "type": "address"
            },
            {
              "internalType": "string",
              "name": "justification",
              "type": "string"
            },
            {
              "internalType": "uint256",
              "name": "timestamp",
              "type": "uint256"
            },
            {
              "internalType": "bool",
              "name": "isResolved",
              "type": "bool"
            },
            {
              "internalType": "bool",
              "name": "isValid",
              "type": "bool"
            }
          ],
          "internalType": "struct MisinformationReport.Report",
          "name": "",
          "type": "tuple"
        }
      ],
      "stateMutability": "view",
      "type": "function",
      "constant": true
    },
    {
      "inputs": [
        {
          "internalType": "uint256",
          "name": "_reportId",
          "type": "uint256"
        }
      ],
      "name": "getValidVotesCount",
      "outputs": [
        {
          "internalType": "uint256",
          "name": "",
          "type": "uint256"
        }
      ],
      "stateMutability": "view",
      "type": "function",
      "constant": true
    },
    {
      "inputs": [
        {
          "internalType": "uint256",
          "name": "_reportId",
          "type": "uint256"
        }
      ],
      "name": "getInvalidVotesCount",
      "outputs": [
        {
          "internalType": "uint256",
          "name": "",
          "type": "uint256"
        }
      ],
      "stateMutability": "view",
      "type": "function",
      "constant": true
    }
  ],
  "bytecode": "0x60806040523480156200001157600080fd5b50604051620016cd380380620016cd833981810160405281019062000037919062000095565b806000806101000a81548173ffffffffffffffffffffffffffffffffffffffff021916908373ffffffffffffffffffffffffffffffffffffffff160217905550506200010f565b6000815190506200008f81620000f5565b92915050565b600060208284031215620000a857600080fd5b6000620000b8848285016200007e565b91505092915050565b6000620000ce82620000d5565b9050919050565b600073ffffffffffffffffffffffffffffffffffffffff82169050919050565b6200010081620000c1565b81146200010c57600080fd5b50565b6115ae806200011f6000396000f3fe608060405234801561001057600080fd5b50600436106100a95760003560e01c80634f8c7504116100715780634f8c7504146101645780636dfa5e61146101945780636e79bbf6146101b0578063a9998b3f146101ce578063c942adf7146101fe578063fa6c229f14610234576100a9565b8063115e647b146100ae5780633cd39568146100ca57806348dd0b75146100fa5780634ad65106146101165780634e7f9b1914610134575b600080fd5b6100c860048036038101906100c39190610ead565b610264565b005b6100e460048036038101906100df9190610f3d565b6103ca565b6040516100f1919061124d565b60405180910390f35b610114600480360381019061010f9190610ee9565b6103fb565b005b61011e61067f565b60405161012b91906111b0565b60405180910390f35b61014e60048036038101906101499190610e84565b6106a3565b60405161015b919061122b565b60405180910390f35b61017e60048036038101906101799190610e84565b610888565b60405161018b919061124d565b60405180910390f35b6101ae60048036038101906101a99190610e84565b6108a8565b005b6101b8610a2e565b6040516101c5919061124d565b60405180910390f35b6101e860048036038101906101e39190610e84565b610a34565b6040516101f5919061124d565b60405180910390f35b61021860048036038101906102139190610e84565b610a54565b60405161022b9796959493929190611268565b60405180910390f35b61024e60048036038101906102499190610f3d565b610b68565b60405161025b919061124d565b60405180910390f35b60018054905082106102ab576040517f08c379a00000000000000000000000000000000000000000000000000000000081526004016102a2906111cb565b60405180910390fd5b600182815481106102e5577f4e487b7100000000000000000000000000000000000000000000000000000000600052603260045260246000fd5b906000526020600020906006020160050160009054906101000a900460ff1615610344576040517f08c379a000000000000000000000000000000000000000000000000000000000815260040161033b906111eb565b60405180910390fd5b801561038a5760036000838152602001908152602001600020600190806001815401808255809150506001900390600052602060002001600090919091909150556103c6565b60046000838152602001908152602001600020600190806001815401808255809150506001900390600052602060002001600090919091909150555b5050565b600360205281600052604060002081815481106103e657600080fd5b90600052602060002001600091509150505481565b60008060009054906101000a900473ffffffffffffffffffffffffffffffffffffffff1673ffffffffffffffffffffffffffffffffffffffff166340731c24846040518263ffffffff1660e01b8152600401610457919061124d565b60006040518083038186803b15801561046f57600080fd5b505afa158015610483573d6000803e3d6000fd5b505050506040513d6000823e3d601f19601f820116820180604052508101906104ac9190610e43565b9050600073ffffffffffffffffffffffffffffffffffffffff16816020015173ffffffffffffffffffffffffffffffffffffffff161415610522576040517f08c379a00000000000000000000000000000000000000000000000000000000081526004016105199061120b565b60405180910390fd5b60016040518060e0016040528060025481526020018581526020013373ffffffffffffffffffffffffffffffffffffffff168152602001848152602001428152602001600015158152602001600015158152509080600181540180825580915050600190039060005260206000209060060201600090919091909150600082015181600001556020820151816001015560408201518160020160006101000a81548173ffffffffffffffffffffffffffffffffffffffff021916908373ffffffffffffffffffffffffffffffffffffffff1602179055506060820151816003019080519060200190610615929190610b99565b506080820151816004015560a08201518160050160006101000a81548160ff02191690831515021790555060c08201518160050160016101000a81548160ff0219169083151502179055505050600260008154809291906106759061144c565b9190505550505050565b60008054906101000a900473ffffffffffffffffffffffffffffffffffffffff1681565b6106ab610c1f565b60018054905082106106f2576040517f08c379a00000000000000000000000000000000000000000000000000000000081526004016106e9906111cb565b60405180910390fd5b6001828154811061072c577f4e487b7100000000000000000000000000000000000000000000000000000000600052603260045260246000fd5b90600052602060002090600602016040518060e001604052908160008201548152602001600182015481526020016002820160009054906101000a900473ffffffffffffffffffffffffffffffffffffffff1673ffffffffffffffffffffffffffffffffffffffff1673ffffffffffffffffffffffffffffffffffffffff1681526020016003820180546107bf9061141a565b80601f01602080910402602001604051908101604052809291908181526020018280546107eb9061141a565b80156108385780601f1061080d57610100808354040283529160200191610838565b820191906000526020600020905b81548152906001019060200180831161081b57829003601f168201915b50505050508152602001600482015481526020016005820160009054906101000a900460ff161515151581526020016005820160019054906101000a900460ff1615151515815250509050919050565b600060036000838152602001908152602001600020805490509050919050565b60018054905081106108ef576040517f08c379a00000000000000000000000000000000000000000000000000000000081526004016108e6906111cb565b60405180910390fd5b60006001828154811061092b577f4e487b7100000000000000000000000000000000000000000000000000000000600052603260045260246000fd5b906000526020600020906006020190508060050160009054906101000a900460ff161561098d576040517f08c379a0000000000000000000000000000000000000000000000000000000008152600401610984906111eb565b60405180910390fd5b60006003600084815260200190815260200160002080549050905060006004600085815260200190815260200160002080549050905060018360050160006101000a81548160ff02191690831515021790555080821115610a0a5760018360050160016101000a81548160ff021916908315150217905550610a28565b60008360050160016101000a81548160ff0219169083151502179055505b50505050565b60025481565b600060046000838152602001908152602001600020805490509050919050565b60018181548110610a6457600080fd5b90600052602060002090600602016000915090508060000154908060010154908060020160009054906101000a900473ffffffffffffffffffffffffffffffffffffffff1690806003018054610ab99061141a565b80601f0160208091040260200160405190810160405280929190818152602001828054610ae59061141a565b8015610b325780601f10610b0757610100808354040283529160200191610b32565b820191906000526020600020905b815481529060010190602001808311610b1557829003601f168201915b5050505050908060040154908060050160009054906101000a900460ff16908060050160019054906101000a900460ff16905087565b60046020528160005260406000208181548110610b8457600080fd5b90600052602060002001600091509150505481565b828054610ba59061141a565b90600052602060002090601f016020900481019282610bc75760008555610c0e565b82601f10610be057805160ff1916838001178555610c0e565b82800160010185558215610c0e579182015b82811115610c0d578251825591602001919060010190610bf2565b5b509050610c1b9190610c76565b5090565b6040518060e001604052806000815260200160008152602001600073ffffffffffffffffffffffffffffffffffffffff16815260200160608152602001600081526020016000151581526020016000151581525090565b5b80821115610c8f576000816000905550600101610c77565b5090565b6000610ca6610ca18461130f565b6112de565b905082815260208101848484011115610cbe57600080fd5b610cc98482856113d8565b509392505050565b6000610ce4610cdf8461130f565b6112de565b905082815260208101848484011115610cfc57600080fd5b610d078482856113e7565b509392505050565b600081519050610d1e81611533565b92915050565b600081359050610d338161154a565b92915050565b600082601f830112610d4a57600080fd5b8135610d5a848260208601610c93565b91505092915050565b600082601f830112610d7457600080fd5b8151610d84848260208601610cd1565b91505092915050565b600060808284031215610d9f57600080fd5b610da960806112de565b90506000610db984828501610e2e565b6000830152506020610dcd84828501610d0f565b602083015250604082015167ffffffffffffffff811115610ded57600080fd5b610df984828501610d63565b6040830152506060610e0d84828501610e2e565b60608301525092915050565b600081359050610e2881611561565b92915050565b600081519050610e3d81611561565b92915050565b600060208284031215610e5557600080fd5b600082015167ffffffffffffffff811115610e6f57600080fd5b610e7b84828501610d8d565b91505092915050565b600060208284031215610e9657600080fd5b6000610ea484828501610e19565b91505092915050565b60008060408385031215610ec057600080fd5b6000610ece85828601610e19565b9250506020610edf85828601610d24565b9150509250929050565b60008060408385031215610efc57600080fd5b6000610f0a85828601610e19565b925050602083013567ffffffffffffffff811115610f2757600080fd5b610f3385828601610d39565b9150509250929050565b60008060408385031215610f5057600080fd5b6000610f5e85828601610e19565b9250506020610f6f85828601610e19565b9150509250929050565b610f828161136c565b82525050565b610f918161136c565b82525050565b610fa08161137e565b82525050565b610faf8161137e565b82525050565b610fbe816113b4565b82525050565b6000610fcf8261133f565b610fd9818561134a565b9350610fe98185602086016113e7565b610ff281611522565b840191505092915050565b60006110088261133f565b611012818561135b565b93506110228185602086016113e7565b61102b81611522565b840191505092915050565b600061104360168361135b565b91507f5265706f727420646f6573206e6f742065786973742e000000000000000000006000830152602082019050919050565b6000611083601b8361135b565b91507f5265706f727420697320616c7265616479207265736f6c7665642e00000000006000830152602082019050919050565b60006110c360148361135b565b91507f506f737420646f6573206e6f742065786973742e0000000000000000000000006000830152602082019050919050565b600060e08301600083015161110e6000860182611192565b5060208301516111216020860182611192565b5060408301516111346040860182610f79565b506060830151848203606086015261114c8282610fc4565b91505060808301516111616080860182611192565b5060a083015161117460a0860182610f97565b5060c083015161118760c0860182610f97565b508091505092915050565b61119b816113aa565b82525050565b6111aa816113aa565b82525050565b60006020820190506111c56000830184610fb5565b92915050565b600060208201905081810360008301526111e481611036565b9050919050565b6000602082019050818103600083015261120481611076565b9050919050565b60006020820190508181036000830152611224816110b6565b9050919050565b6000602082019050818103600083015261124581846110f6565b905092915050565b600060208201905061126260008301846111a1565b92915050565b600060e08201905061127d600083018a6111a1565b61128a60208301896111a1565b6112976040830188610f88565b81810360608301526112a98187610ffd565b90506112b860808301866111a1565b6112c560a0830185610fa6565b6112d260c0830184610fa6565b98975050505050505050565b6000604051905081810181811067ffffffffffffffff82111715611305576113046114f3565b5b8060405250919050565b600067ffffffffffffffff82111561132a576113296114f3565b5b601f19601f8301169050602081019050919050565b600081519050919050565b600082825260208201905092915050565b600082825260208201905092915050565b60006113778261138a565b9050919050565b60008115159050919050565b600073ffffffffffffffffffffffffffffffffffffffff82169050919050565b6000819050919050565b60006113bf826113c6565b9050919050565b60006113d18261138a565b9050919050565b82818337600083830152505050565b60005b838110156114055780820151818401526020810190506113ea565b83811115611414576000848401525b50505050565b6000600282049050600182168061143257607f821691505b60208210811415611446576114456114c4565b5b50919050565b6000611457826113aa565b91507fffffffffffffffffffffffffffffffffffffffffffffffffffffffffffffffff82141561148a57611489611495565b5b600182019050919050565b7f4e487b7100000000000000000000000000000000000000000000000000000000600052601160045260246000fd5b7f4e487b7100000000000000000000000000000000000000000000000000000000600052602260045260246000fd5b7f4e487b7100000000000000000000000000000000000000000000000000000000600052604160045260246000fd5b6000601f19601f8301169050919050565b61153c8161136c565b811461154757600080fd5b50565b6115538161137e565b811461155e57600080fd5b50565b61156a816113aa565b811461157557600080fd5b5056fea2646970667358221220aab58d50a283c825e867d8def5a6860909d9e7c5c6bded668175da51ac86971664736f6c63430008000033",
  "immutableReferences": {},
  "source": "// SPDX-License-Identifier: MIT\npragma solidity ^0.8.0;\n\nimport \"./Post.sol\";\n\ncontract MisinformationReport {\n    struct Report {\n        uint reportId;\n        uint postId;\n        address reporter;\n        string justification;\n        uint timestamp;\n        bool isResolved;\n        bool isValid;\n    }\n\n    Post public postContract;\n    Report[] public reports;\n    uint public nextReportId;\n\n    mapping(uint => uint[]) public votesValid; // postId => [votes]\n    mapping(uint => uint[]) public votesInvalid; // postId => [votes]\n\n    constructor(address _postContractAddress) {\n        postContract = Post(_postContractAddress);\n    }\n\n    function reportMisinformation(uint _postId, string memory _justification) public {\n        Post.PostData memory postData = postContract.getPost(_postId);\n        require(postData.author != address(0), \"Post does not exist.\");\n        reports.push(Report(nextReportId, _postId, msg.sender, _justification, block.timestamp, false, false));\n        nextReportId++;\n    }\n\n    function voteOnReport(uint _reportId, bool _isValid) public {\n        require(_reportId < reports.length, \"Report does not exist.\");\n        require(!reports[_reportId].isResolved, \"Report is already resolved.\");\n        if (_isValid) {\n            votesValid[_reportId].push(1);\n        } else {\n            votesInvalid[_reportId].push(1);\n        }\n    }\n\n    function resolveReport(uint _reportId) public {\n        require(_reportId < reports.length, \"Report does not exist.\");\n        Report storage report = reports[_reportId];\n        require(!report.isResolved, \"Report is already resolved.\");\n        uint validVotes = votesValid[_reportId].length;\n        uint invalidVotes = votesInvalid[_reportId].length;\n\n        report.isResolved = true;\n        if (validVotes > invalidVotes) {\n            report.isValid = true;\n        } else {\n            report.isValid = false;\n        }\n    }\n\n    function getReport(uint _reportId) public view returns (Report memory) {\n        require(_reportId < reports.length, \"Report does not exist.\");\n        return reports[_reportId];\n    }\n\n    function getValidVotesCount(uint _reportId) public view returns (uint) {\n        return votesValid[_reportId].length;\n    }\n\n    function getInvalidVotesCount(uint _reportId) public view returns (uint) {\n        return votesInvalid[_reportId].length;\n    }\n}\n",
  "sourcePath": "/Users/GuoJun/Documents/NUS/Y4S2/IS4302/IS4302-GP2/contracts/MisinformationReport.sol",
  "compiler": {
    "name": "solc",
    "version": "0.8.0+commit.c7dfd78e.Emscripten.clang"
  },
  "schemaVersion": "3.4.16",
  "updatedAt": "2024-04-10T05:38:18.403Z",
  "networkType": "ethereum",
  "devdoc": {
    "kind": "dev",
    "methods": {},
    "version": 1
  },
  "userdoc": {
    "kind": "user",
    "methods": {},
    "version": 1
  }
}