{
  "contractName": "MisinformationReport",
  "abi": [
    {
      "inputs": [
        {
          "internalType": "address",
          "name": "_postContractAddress",
          "type": "address"
        }
      ],
      "stateMutability": "nonpayable",
      "type": "constructor"
    },
    {
      "anonymous": false,
      "inputs": [
        {
          "indexed": true,
          "internalType": "address",
          "name": "verifier",
          "type": "address"
        },
        {
          "indexed": false,
          "internalType": "uint256",
          "name": "amount",
          "type": "uint256"
        }
      ],
      "name": "FeePaid",
      "type": "event"
    },
    {
      "anonymous": false,
      "inputs": [
        {
          "indexed": true,
          "internalType": "uint256",
          "name": "reportId",
          "type": "uint256"
        },
        {
          "indexed": true,
          "internalType": "uint256",
          "name": "postId",
          "type": "uint256"
        },
        {
          "indexed": false,
          "internalType": "address",
          "name": "reporter",
          "type": "address"
        }
      ],
      "name": "MisinformationReportCreated",
      "type": "event"
    },
    {
      "anonymous": false,
      "inputs": [
        {
          "indexed": true,
          "internalType": "uint256",
          "name": "reportId",
          "type": "uint256"
        }
      ],
      "name": "MisinformationReportDeleted",
      "type": "event"
    },
    {
      "anonymous": false,
      "inputs": [
        {
          "indexed": true,
          "internalType": "uint256",
          "name": "reportId",
          "type": "uint256"
        },
        {
          "indexed": false,
          "internalType": "bool",
          "name": "isValid",
          "type": "bool"
        }
      ],
      "name": "MisinformationReportResolved",
      "type": "event"
    },
    {
      "anonymous": false,
      "inputs": [
        {
          "indexed": true,
          "internalType": "uint256",
          "name": "reportId",
          "type": "uint256"
        }
      ],
      "name": "MisinformationReportUpdated",
      "type": "event"
    },
    {
      "inputs": [],
      "name": "nextReportId",
      "outputs": [
        {
          "internalType": "uint256",
          "name": "",
          "type": "uint256"
        }
      ],
      "stateMutability": "view",
      "type": "function",
      "constant": true
    },
    {
      "inputs": [],
      "name": "postContract",
      "outputs": [
        {
          "internalType": "contract Post",
          "name": "",
          "type": "address"
        }
      ],
      "stateMutability": "view",
      "type": "function",
      "constant": true
    },
    {
      "inputs": [
        {
          "internalType": "uint256",
          "name": "",
          "type": "uint256"
        }
      ],
      "name": "reports",
      "outputs": [
        {
          "internalType": "uint256",
          "name": "reportId",
          "type": "uint256"
        },
        {
          "internalType": "uint256",
          "name": "postId",
          "type": "uint256"
        },
        {
          "internalType": "address",
          "name": "reporter",
          "type": "address"
        },
        {
          "internalType": "string",
          "name": "justification",
          "type": "string"
        },
        {
          "internalType": "uint256",
          "name": "timestamp",
          "type": "uint256"
        },
        {
          "internalType": "enum MisinformationReport.VerificationStatusEnum",
          "name": "status",
          "type": "uint8"
        },
        {
          "internalType": "address",
          "name": "verifier",
          "type": "address"
        }
      ],
      "stateMutability": "view",
      "type": "function",
      "constant": true
    },
    {
      "inputs": [
        {
          "internalType": "uint256",
          "name": "_postId",
          "type": "uint256"
        },
        {
          "internalType": "string",
          "name": "_justification",
          "type": "string"
        }
      ],
      "name": "addMisinformationReport",
      "outputs": [],
      "stateMutability": "nonpayable",
      "type": "function"
    },
    {
      "inputs": [
        {
          "internalType": "uint256",
          "name": "_reportId",
          "type": "uint256"
        },
        {
          "internalType": "bool",
          "name": "_isValid",
          "type": "bool"
        },
        {
          "internalType": "address",
          "name": "_verifier",
          "type": "address"
        }
      ],
      "name": "updateMisinformationReport",
      "outputs": [],
      "stateMutability": "nonpayable",
      "type": "function"
    },
    {
      "inputs": [
        {
          "internalType": "uint256",
          "name": "_reportId",
          "type": "uint256"
        }
      ],
      "name": "deleteMisinformationReport",
      "outputs": [],
      "stateMutability": "nonpayable",
      "type": "function"
    }
  ],
  "bytecode": "0x60806040523480156200001157600080fd5b506040516200152c3803806200152c833981810160405281019062000037919062000095565b806000806101000a81548173ffffffffffffffffffffffffffffffffffffffff021916908373ffffffffffffffffffffffffffffffffffffffff160217905550506200010f565b6000815190506200008f81620000f5565b92915050565b600060208284031215620000a857600080fd5b6000620000b8848285016200007e565b91505092915050565b6000620000ce82620000d5565b9050919050565b600073ffffffffffffffffffffffffffffffffffffffff82169050919050565b6200010081620000c1565b81146200010c57600080fd5b50565b61140d806200011f6000396000f3fe608060405234801561001057600080fd5b50600436106100625760003560e01c80634ad65106146100675780636e79bbf6146100855780639bfcd64b146100a3578063c942adf7146100bf578063e6e50369146100f5578063fc1b403814610111575b600080fd5b61006f61012d565b60405161007c9190610fca565b60405180910390f35b61008d610151565b60405161009a9190611045565b60405180910390f35b6100bd60048036038101906100b89190610d5e565b610157565b005b6100d960048036038101906100d49190610d5e565b6102a3565b6040516100ec9796959493929190611060565b60405180910390f35b61010f600480360381019061010a9190610d87565b6103ca565b005b61012b60048036038101906101269190610dd6565b6106a4565b005b60008054906101000a900473ffffffffffffffffffffffffffffffffffffffff1681565b60025481565b600180549050811061019e576040517f08c379a000000000000000000000000000000000000000000000000000000000815260040161019590611005565b60405180910390fd5b600181815481106101d8577f4e487b7100000000000000000000000000000000000000000000000000000000600052603260045260246000fd5b906000526020600020906006020160008082016000905560018201600090556002820160006101000a81549073ffffffffffffffffffffffffffffffffffffffff021916905560038201600061022e9190610a20565b60048201600090556005820160006101000a81549060ff02191690556005820160016101000a81549073ffffffffffffffffffffffffffffffffffffffff02191690555050807fe666d3f3bc2f282b04c332cb8d6d4c6674300fa50d33d49c979d07c9f777b56b60405160405180910390a250565b600181815481106102b357600080fd5b90600052602060002090600602016000915090508060000154908060010154908060020160009054906101000a900473ffffffffffffffffffffffffffffffffffffffff169080600301805461030890611226565b80601f016020809104026020016040519081016040528092919081815260200182805461033490611226565b80156103815780601f1061035657610100808354040283529160200191610381565b820191906000526020600020905b81548152906001019060200180831161036457829003601f168201915b5050505050908060040154908060050160009054906101000a900460ff16908060050160019054906101000a900473ffffffffffffffffffffffffffffffffffffffff16905087565b6001805490508310610411576040517f08c379a000000000000000000000000000000000000000000000000000000000815260040161040890611005565b60405180910390fd5b60006001848154811061044d577f4e487b7100000000000000000000000000000000000000000000000000000000600052603260045260246000fd5b9060005260206000209060060201905060016002811115610497577f4e487b7100000000000000000000000000000000000000000000000000000000600052602160045260246000fd5b8160050160009054906101000a900460ff1660028111156104e1577f4e487b7100000000000000000000000000000000000000000000000000000000600052602160045260246000fd5b14610521576040517f08c379a000000000000000000000000000000000000000000000000000000000815260040161051890610fe5565b60405180910390fd5b8261052d576000610530565b60025b8160050160006101000a81548160ff0219169083600281111561057c577f4e487b7100000000000000000000000000000000000000000000000000000000600052602160045260246000fd5b0217905550818160050160016101000a81548173ffffffffffffffffffffffffffffffffffffffff021916908373ffffffffffffffffffffffffffffffffffffffff16021790555060006105ce610a10565b90508273ffffffffffffffffffffffffffffffffffffffff166108fc829081150290604051600060405180830381858888f19350505050158015610616573d6000803e3d6000fd5b50847fd862844cabca1bb37d9238ab116976d404442e5316d71e5e633365662dec6742856040516106479190610faf565b60405180910390a28273ffffffffffffffffffffffffffffffffffffffff167f075a2720282fdf622141dae0b048ef90a21a7e57c134c76912d19d006b3b3f6f826040516106959190611045565b60405180910390a25050505050565b60008060009054906101000a900473ffffffffffffffffffffffffffffffffffffffff1673ffffffffffffffffffffffffffffffffffffffff166340731c24846040518263ffffffff1660e01b81526004016107009190611045565b60006040518083038186803b15801561071857600080fd5b505afa15801561072c573d6000803e3d6000fd5b505050506040513d6000823e3d601f19601f820116820180604052508101906107559190610d1d565b9050600073ffffffffffffffffffffffffffffffffffffffff16816080015173ffffffffffffffffffffffffffffffffffffffff1614156107cb576040517f08c379a00000000000000000000000000000000000000000000000000000000081526004016107c290611025565b60405180910390fd5b60006040518060e0016040528060025481526020018581526020013373ffffffffffffffffffffffffffffffffffffffff16815260200184815260200142815260200160016002811115610848577f4e487b7100000000000000000000000000000000000000000000000000000000600052602160045260246000fd5b8152602001600073ffffffffffffffffffffffffffffffffffffffff1681525090506001819080600181540180825580915050600190039060005260206000209060060201600090919091909150600082015181600001556020820151816001015560408201518160020160006101000a81548173ffffffffffffffffffffffffffffffffffffffff021916908373ffffffffffffffffffffffffffffffffffffffff160217905550606082015181600301908051906020019061090d929190610a60565b506080820151816004015560a08201518160050160006101000a81548160ff02191690836002811115610969577f4e487b7100000000000000000000000000000000000000000000000000000000600052602160045260246000fd5b021790555060c08201518160050160016101000a81548173ffffffffffffffffffffffffffffffffffffffff021916908373ffffffffffffffffffffffffffffffffffffffff1602179055505050836002547fda8a6016712dbca7a4f9c91f0f34c32acb4dd162d617d0021390a7e6a24353d1336040516109ea9190610f94565b60405180910390a360026000815480929190610a0590611258565b919050555050505050565b6000670de0b6b3a7640000905090565b508054610a2c90611226565b6000825580601f10610a3e5750610a5d565b601f016020900490600052602060002090810190610a5c9190610ae6565b5b50565b828054610a6c90611226565b90600052602060002090601f016020900481019282610a8e5760008555610ad5565b82601f10610aa757805160ff1916838001178555610ad5565b82800160010185558215610ad5579182015b82811115610ad4578251825591602001919060010190610ab9565b5b509050610ae29190610ae6565b5090565b5b80821115610aff576000816000905550600101610ae7565b5090565b6000610b16610b1184611107565b6110d6565b905082815260208101848484011115610b2e57600080fd5b610b398482856111e4565b509392505050565b6000610b54610b4f84611107565b6110d6565b905082815260208101848484011115610b6c57600080fd5b610b778482856111f3565b509392505050565b600081359050610b8e81611382565b92915050565b600081519050610ba381611382565b92915050565b600081359050610bb881611399565b92915050565b600081519050610bcd816113b0565b92915050565b600082601f830112610be457600080fd5b8135610bf4848260208601610b03565b91505092915050565b600082601f830112610c0e57600080fd5b8151610c1e848260208601610b41565b91505092915050565b600060c08284031215610c3957600080fd5b610c4360c06110d6565b90506000610c5384828501610d08565b600083015250602082015167ffffffffffffffff811115610c7357600080fd5b610c7f84828501610bfd565b602083015250604082015167ffffffffffffffff811115610c9f57600080fd5b610cab84828501610bfd565b6040830152506060610cbf84828501610d08565b6060830152506080610cd384828501610b94565b60808301525060a0610ce784828501610bbe565b60a08301525092915050565b600081359050610d02816113c0565b92915050565b600081519050610d17816113c0565b92915050565b600060208284031215610d2f57600080fd5b600082015167ffffffffffffffff811115610d4957600080fd5b610d5584828501610c27565b91505092915050565b600060208284031215610d7057600080fd5b6000610d7e84828501610cf3565b91505092915050565b600080600060608486031215610d9c57600080fd5b6000610daa86828701610cf3565b9350506020610dbb86828701610ba9565b9250506040610dcc86828701610b7f565b9150509250925092565b60008060408385031215610de957600080fd5b6000610df785828601610cf3565b925050602083013567ffffffffffffffff811115610e1457600080fd5b610e2085828601610bd3565b9150509250929050565b610e3381611153565b82525050565b610e4281611165565b82525050565b610e51816111ae565b82525050565b610e60816111d2565b82525050565b6000610e7182611137565b610e7b8185611142565b9350610e8b8185602086016111f3565b610e948161135d565b840191505092915050565b6000610eac602383611142565b91507f5265706f7274206973206e6f7420696e2074686520636f72726563742073746160008301527f74652e00000000000000000000000000000000000000000000000000000000006020830152604082019050919050565b6000610f12601683611142565b91507f5265706f727420646f6573206e6f742065786973742e000000000000000000006000830152602082019050919050565b6000610f52601483611142565b91507f506f737420646f6573206e6f742065786973742e0000000000000000000000006000830152602082019050919050565b610f8e816111a4565b82525050565b6000602082019050610fa96000830184610e2a565b92915050565b6000602082019050610fc46000830184610e39565b92915050565b6000602082019050610fdf6000830184610e48565b92915050565b60006020820190508181036000830152610ffe81610e9f565b9050919050565b6000602082019050818103600083015261101e81610f05565b9050919050565b6000602082019050818103600083015261103e81610f45565b9050919050565b600060208201905061105a6000830184610f85565b92915050565b600060e082019050611075600083018a610f85565b6110826020830189610f85565b61108f6040830188610e2a565b81810360608301526110a18187610e66565b90506110b06080830186610f85565b6110bd60a0830185610e57565b6110ca60c0830184610e2a565b98975050505050505050565b6000604051905081810181811067ffffffffffffffff821117156110fd576110fc61132e565b5b8060405250919050565b600067ffffffffffffffff8211156111225761112161132e565b5b601f19601f8301169050602081019050919050565b600081519050919050565b600082825260208201905092915050565b600061115e82611184565b9050919050565b60008115159050919050565b600081905061117f8261136e565b919050565b600073ffffffffffffffffffffffffffffffffffffffff82169050919050565b6000819050919050565b60006111b9826111c0565b9050919050565b60006111cb82611184565b9050919050565b60006111dd82611171565b9050919050565b82818337600083830152505050565b60005b838110156112115780820151818401526020810190506111f6565b83811115611220576000848401525b50505050565b6000600282049050600182168061123e57607f821691505b60208210811415611252576112516112ff565b5b50919050565b6000611263826111a4565b91507fffffffffffffffffffffffffffffffffffffffffffffffffffffffffffffffff821415611296576112956112a1565b5b600182019050919050565b7f4e487b7100000000000000000000000000000000000000000000000000000000600052601160045260246000fd5b7f4e487b7100000000000000000000000000000000000000000000000000000000600052602160045260246000fd5b7f4e487b7100000000000000000000000000000000000000000000000000000000600052602260045260246000fd5b7f4e487b7100000000000000000000000000000000000000000000000000000000600052604160045260246000fd5b6000601f19601f8301169050919050565b6003811061137f5761137e6112d0565b5b50565b61138b81611153565b811461139657600080fd5b50565b6113a281611165565b81146113ad57600080fd5b50565b600381106113bd57600080fd5b50565b6113c9816111a4565b81146113d457600080fd5b5056fea2646970667358221220e9f691091665bc60506cbb3a086fc37859fd3ec3d068536035802ec588ebb88264736f6c63430008000033",
  "immutableReferences": {},
  "source": "// SPDX-License-Identifier: MIT\npragma solidity ^0.8.0;\n\nimport \"./Post.sol\";\n\ncontract MisinformationReport {\n    // The VerificationStatus enum based on the ERD\n    enum VerificationStatusEnum { INVALID, VOTING_IN_PROGRESS, VERIFIED }\n\n    // The Report struct based on the ERD\n    struct MisinformationReportStruct {\n        uint256 reportId;\n        uint256 postId;\n        address reporter;\n        string justification;\n        uint256 timestamp;\n        VerificationStatusEnum status;\n        address verifier; // Address of the user who verifies the report\n    }\n\n    Post public postContract;\n    MisinformationReportStruct[] public reports;\n    uint256 public nextReportId;\n\n    // Events as per the ERD\n    event MisinformationReportCreated(uint256 indexed reportId, uint256 indexed postId, address reporter);\n    event MisinformationReportResolved(uint256 indexed reportId, bool isValid);\n    event MisinformationReportUpdated(uint256 indexed reportId);\n    event FeePaid(address indexed verifier, uint256 amount);\n    event MisinformationReportDeleted(uint256 indexed reportId);\n\n    constructor(address _postContractAddress) {\n        postContract = Post(_postContractAddress);\n    }\n\n    function addMisinformationReport(uint256 _postId, string memory _justification) public {\n        // Fetch the post using the post contract to make sure it exists\n        Post.PostStruct memory postData = postContract.getPost(_postId);\n        require(postData.createdBy != address(0), \"Post does not exist.\");\n\n        // Create and store the report\n        MisinformationReportStruct memory newReport = MisinformationReportStruct({\n            reportId: nextReportId,\n            postId: _postId,\n            reporter: msg.sender,\n            justification: _justification,\n            timestamp: block.timestamp,\n            status: VerificationStatusEnum.VOTING_IN_PROGRESS,\n            verifier: address(0) \n        });\n\n        reports.push(newReport);\n        emit MisinformationReportCreated(nextReportId, _postId, msg.sender);\n        nextReportId++;\n    }\n\n    function updateMisinformationReport(uint256 _reportId, bool _isValid, address _verifier) public {\n        require(_reportId < reports.length, \"Report does not exist.\");\n        MisinformationReportStruct storage report = reports[_reportId];\n        require(report.status == VerificationStatusEnum.VOTING_IN_PROGRESS, \"Report is not in the correct state.\");\n\n        // Set the report as verified or invalid based on votes\n        report.status = _isValid ? VerificationStatusEnum.VERIFIED : VerificationStatusEnum.INVALID;\n        report.verifier = _verifier;\n\n        // Pay the fee to the verifier\n        uint256 feeAmount = calculateFee(); // You would need to implement this function\n        payable(_verifier).transfer(feeAmount);\n\n        emit MisinformationReportResolved(_reportId, _isValid);\n        emit FeePaid(_verifier, feeAmount);\n    }\n\n    // If _reportId is not used and no state is read, you can declare the function as pure and remove the parameter\n    function calculateFee() private pure returns (uint256) {\n        // Placeholder calculation for the fee\n        return 1 ether; // This is just an example. Adjust as necessary.\n    }\n\n    function deleteMisinformationReport(uint256 _reportId) public {\n        require(_reportId < reports.length, \"Report does not exist.\");\n        // Additional checks for authorization, if needed\n        delete reports[_reportId];\n        emit MisinformationReportDeleted(_reportId);\n    }\n\n}\n",
  "sourcePath": "/Users/GuoJun/Documents/NUS/Y4S2/IS4302/IS4302-GP2/contracts/MisinformationReport.sol",
  "compiler": {
    "name": "solc",
    "version": "0.8.0+commit.c7dfd78e.Emscripten.clang"
  },
  "schemaVersion": "3.4.16",
  "updatedAt": "2024-04-14T06:39:26.751Z",
  "networkType": "ethereum",
  "devdoc": {
    "kind": "dev",
    "methods": {},
    "version": 1
  },
  "userdoc": {
    "kind": "user",
    "methods": {},
    "version": 1
  }
}