{
  "contractName": "MisinformationReport",
  "abi": [
    {
      "inputs": [
        {
          "internalType": "address",
          "name": "_postContractAddress",
          "type": "address"
        }
      ],
      "stateMutability": "nonpayable",
      "type": "constructor"
    },
    {
      "anonymous": false,
      "inputs": [
        {
          "indexed": true,
          "internalType": "uint256",
          "name": "reportId",
          "type": "uint256"
        },
        {
          "indexed": true,
          "internalType": "uint256",
          "name": "postId",
          "type": "uint256"
        },
        {
          "indexed": false,
          "internalType": "address",
          "name": "reporter",
          "type": "address"
        }
      ],
      "name": "MisinformationReportCreated",
      "type": "event"
    },
    {
      "anonymous": false,
      "inputs": [
        {
          "indexed": true,
          "internalType": "uint256",
          "name": "reportId",
          "type": "uint256"
        }
      ],
      "name": "MisinformationReportDeleted",
      "type": "event"
    },
    {
      "anonymous": false,
      "inputs": [
        {
          "indexed": true,
          "internalType": "uint256",
          "name": "reportId",
          "type": "uint256"
        }
      ],
      "name": "MisinformationReportUpdated",
      "type": "event"
    },
    {
      "inputs": [],
      "name": "nextReportId",
      "outputs": [
        {
          "internalType": "uint256",
          "name": "",
          "type": "uint256"
        }
      ],
      "stateMutability": "view",
      "type": "function",
      "constant": true
    },
    {
      "inputs": [],
      "name": "postContract",
      "outputs": [
        {
          "internalType": "contract Post",
          "name": "",
          "type": "address"
        }
      ],
      "stateMutability": "view",
      "type": "function",
      "constant": true
    },
    {
      "inputs": [
        {
          "internalType": "uint256",
          "name": "",
          "type": "uint256"
        }
      ],
      "name": "reports",
      "outputs": [
        {
          "internalType": "uint256",
          "name": "reportId",
          "type": "uint256"
        },
        {
          "internalType": "uint256",
          "name": "postId",
          "type": "uint256"
        },
        {
          "internalType": "address",
          "name": "reporter",
          "type": "address"
        },
        {
          "internalType": "string",
          "name": "justification",
          "type": "string"
        },
        {
          "internalType": "uint256",
          "name": "timestamp",
          "type": "uint256"
        },
        {
          "internalType": "enum MisinformationReport.VerificationStatusEnum",
          "name": "status",
          "type": "uint8"
        },
        {
          "internalType": "address",
          "name": "verifier",
          "type": "address"
        }
      ],
      "stateMutability": "view",
      "type": "function",
      "constant": true
    },
    {
      "inputs": [
        {
          "internalType": "uint256",
          "name": "_postId",
          "type": "uint256"
        },
        {
          "internalType": "string",
          "name": "_justification",
          "type": "string"
        }
      ],
      "name": "addMisinformationReport",
      "outputs": [],
      "stateMutability": "nonpayable",
      "type": "function"
    },
    {
      "inputs": [
        {
          "internalType": "uint256",
          "name": "_reportId",
          "type": "uint256"
        },
        {
          "internalType": "bool",
          "name": "_isValid",
          "type": "bool"
        },
        {
          "internalType": "address",
          "name": "_verifier",
          "type": "address"
        }
      ],
      "name": "updateMisinformationReport",
      "outputs": [],
      "stateMutability": "nonpayable",
      "type": "function"
    },
    {
      "inputs": [
        {
          "internalType": "uint256",
          "name": "_reportId",
          "type": "uint256"
        }
      ],
      "name": "deleteMisinformationReport",
      "outputs": [],
      "stateMutability": "nonpayable",
      "type": "function"
    }
  ],
  "bytecode": "0x60806040523480156200001157600080fd5b506040516200141f3803806200141f833981810160405281019062000037919062000095565b806000806101000a81548173ffffffffffffffffffffffffffffffffffffffff021916908373ffffffffffffffffffffffffffffffffffffffff160217905550506200010f565b6000815190506200008f81620000f5565b92915050565b600060208284031215620000a857600080fd5b6000620000b8848285016200007e565b91505092915050565b6000620000ce82620000d5565b9050919050565b600073ffffffffffffffffffffffffffffffffffffffff82169050919050565b6200010081620000c1565b81146200010c57600080fd5b50565b611300806200011f6000396000f3fe608060405234801561001057600080fd5b50600436106100625760003560e01c80634ad65106146100675780636e79bbf6146100855780639bfcd64b146100a3578063c942adf7146100bf578063e6e50369146100f5578063fc1b403814610111575b600080fd5b61006f61012d565b60405161007c9190610ebd565b60405180910390f35b61008d610151565b60405161009a9190610f38565b60405180910390f35b6100bd60048036038101906100b89190610ca1565b610157565b005b6100d960048036038101906100d49190610ca1565b6102a3565b6040516100ec9796959493929190610f53565b60405180910390f35b61010f600480360381019061010a9190610cca565b6103ca565b005b61012b60048036038101906101269190610d19565b6105f7565b005b60008054906101000a900473ffffffffffffffffffffffffffffffffffffffff1681565b60025481565b600180549050811061019e576040517f08c379a000000000000000000000000000000000000000000000000000000000815260040161019590610ef8565b60405180910390fd5b600181815481106101d8577f4e487b7100000000000000000000000000000000000000000000000000000000600052603260045260246000fd5b906000526020600020906006020160008082016000905560018201600090556002820160006101000a81549073ffffffffffffffffffffffffffffffffffffffff021916905560038201600061022e9190610963565b60048201600090556005820160006101000a81549060ff02191690556005820160016101000a81549073ffffffffffffffffffffffffffffffffffffffff02191690555050807fe666d3f3bc2f282b04c332cb8d6d4c6674300fa50d33d49c979d07c9f777b56b60405160405180910390a250565b600181815481106102b357600080fd5b90600052602060002090600602016000915090508060000154908060010154908060020160009054906101000a900473ffffffffffffffffffffffffffffffffffffffff169080600301805461030890611119565b80601f016020809104026020016040519081016040528092919081815260200182805461033490611119565b80156103815780601f1061035657610100808354040283529160200191610381565b820191906000526020600020905b81548152906001019060200180831161036457829003601f168201915b5050505050908060040154908060050160009054906101000a900460ff16908060050160019054906101000a900473ffffffffffffffffffffffffffffffffffffffff16905087565b6001805490508310610411576040517f08c379a000000000000000000000000000000000000000000000000000000000815260040161040890610ef8565b60405180910390fd5b60006001848154811061044d577f4e487b7100000000000000000000000000000000000000000000000000000000600052603260045260246000fd5b9060005260206000209060060201905060016002811115610497577f4e487b7100000000000000000000000000000000000000000000000000000000600052602160045260246000fd5b8160050160009054906101000a900460ff1660028111156104e1577f4e487b7100000000000000000000000000000000000000000000000000000000600052602160045260246000fd5b14610521576040517f08c379a000000000000000000000000000000000000000000000000000000000815260040161051890610ed8565b60405180910390fd5b8261052d576000610530565b60025b8160050160006101000a81548160ff0219169083600281111561057c577f4e487b7100000000000000000000000000000000000000000000000000000000600052602160045260246000fd5b0217905550818160050160016101000a81548173ffffffffffffffffffffffffffffffffffffffff021916908373ffffffffffffffffffffffffffffffffffffffff160217905550837fc25571527af09955ad1a1bd319f7be3b51d102465f43666c364a492974af368b60405160405180910390a250505050565b60008060009054906101000a900473ffffffffffffffffffffffffffffffffffffffff1673ffffffffffffffffffffffffffffffffffffffff166340731c24846040518263ffffffff1660e01b81526004016106539190610f38565b60006040518083038186803b15801561066b57600080fd5b505afa15801561067f573d6000803e3d6000fd5b505050506040513d6000823e3d601f19601f820116820180604052508101906106a89190610c60565b9050600073ffffffffffffffffffffffffffffffffffffffff16816080015173ffffffffffffffffffffffffffffffffffffffff16141561071e576040517f08c379a000000000000000000000000000000000000000000000000000000000815260040161071590610f18565b60405180910390fd5b60006040518060e0016040528060025481526020018581526020013373ffffffffffffffffffffffffffffffffffffffff1681526020018481526020014281526020016001600281111561079b577f4e487b7100000000000000000000000000000000000000000000000000000000600052602160045260246000fd5b8152602001600073ffffffffffffffffffffffffffffffffffffffff1681525090506001819080600181540180825580915050600190039060005260206000209060060201600090919091909150600082015181600001556020820151816001015560408201518160020160006101000a81548173ffffffffffffffffffffffffffffffffffffffff021916908373ffffffffffffffffffffffffffffffffffffffff16021790555060608201518160030190805190602001906108609291906109a3565b506080820151816004015560a08201518160050160006101000a81548160ff021916908360028111156108bc577f4e487b7100000000000000000000000000000000000000000000000000000000600052602160045260246000fd5b021790555060c08201518160050160016101000a81548173ffffffffffffffffffffffffffffffffffffffff021916908373ffffffffffffffffffffffffffffffffffffffff1602179055505050836002547fda8a6016712dbca7a4f9c91f0f34c32acb4dd162d617d0021390a7e6a24353d13360405161093d9190610ea2565b60405180910390a3600260008154809291906109589061114b565b919050555050505050565b50805461096f90611119565b6000825580601f1061098157506109a0565b601f01602090049060005260206000209081019061099f9190610a29565b5b50565b8280546109af90611119565b90600052602060002090601f0160209004810192826109d15760008555610a18565b82601f106109ea57805160ff1916838001178555610a18565b82800160010185558215610a18579182015b82811115610a175782518255916020019190600101906109fc565b5b509050610a259190610a29565b5090565b5b80821115610a42576000816000905550600101610a2a565b5090565b6000610a59610a5484610ffa565b610fc9565b905082815260208101848484011115610a7157600080fd5b610a7c8482856110d7565b509392505050565b6000610a97610a9284610ffa565b610fc9565b905082815260208101848484011115610aaf57600080fd5b610aba8482856110e6565b509392505050565b600081359050610ad181611275565b92915050565b600081519050610ae681611275565b92915050565b600081359050610afb8161128c565b92915050565b600081519050610b10816112a3565b92915050565b600082601f830112610b2757600080fd5b8135610b37848260208601610a46565b91505092915050565b600082601f830112610b5157600080fd5b8151610b61848260208601610a84565b91505092915050565b600060c08284031215610b7c57600080fd5b610b8660c0610fc9565b90506000610b9684828501610c4b565b600083015250602082015167ffffffffffffffff811115610bb657600080fd5b610bc284828501610b40565b602083015250604082015167ffffffffffffffff811115610be257600080fd5b610bee84828501610b40565b6040830152506060610c0284828501610c4b565b6060830152506080610c1684828501610ad7565b60808301525060a0610c2a84828501610b01565b60a08301525092915050565b600081359050610c45816112b3565b92915050565b600081519050610c5a816112b3565b92915050565b600060208284031215610c7257600080fd5b600082015167ffffffffffffffff811115610c8c57600080fd5b610c9884828501610b6a565b91505092915050565b600060208284031215610cb357600080fd5b6000610cc184828501610c36565b91505092915050565b600080600060608486031215610cdf57600080fd5b6000610ced86828701610c36565b9350506020610cfe86828701610aec565b9250506040610d0f86828701610ac2565b9150509250925092565b60008060408385031215610d2c57600080fd5b6000610d3a85828601610c36565b925050602083013567ffffffffffffffff811115610d5757600080fd5b610d6385828601610b16565b9150509250929050565b610d7681611046565b82525050565b610d85816110a1565b82525050565b610d94816110c5565b82525050565b6000610da58261102a565b610daf8185611035565b9350610dbf8185602086016110e6565b610dc881611250565b840191505092915050565b6000610de0601e83611035565b91507f5265706f7274206973206e6f7420696e20766f74696e672073746167652e00006000830152602082019050919050565b6000610e20601683611035565b91507f5265706f727420646f6573206e6f742065786973742e000000000000000000006000830152602082019050919050565b6000610e60601483611035565b91507f506f737420646f6573206e6f742065786973742e0000000000000000000000006000830152602082019050919050565b610e9c81611097565b82525050565b6000602082019050610eb76000830184610d6d565b92915050565b6000602082019050610ed26000830184610d7c565b92915050565b60006020820190508181036000830152610ef181610dd3565b9050919050565b60006020820190508181036000830152610f1181610e13565b9050919050565b60006020820190508181036000830152610f3181610e53565b9050919050565b6000602082019050610f4d6000830184610e93565b92915050565b600060e082019050610f68600083018a610e93565b610f756020830189610e93565b610f826040830188610d6d565b8181036060830152610f948187610d9a565b9050610fa36080830186610e93565b610fb060a0830185610d8b565b610fbd60c0830184610d6d565b98975050505050505050565b6000604051905081810181811067ffffffffffffffff82111715610ff057610fef611221565b5b8060405250919050565b600067ffffffffffffffff82111561101557611014611221565b5b601f19601f8301169050602081019050919050565b600081519050919050565b600082825260208201905092915050565b600061105182611077565b9050919050565b60008115159050919050565b600081905061107282611261565b919050565b600073ffffffffffffffffffffffffffffffffffffffff82169050919050565b6000819050919050565b60006110ac826110b3565b9050919050565b60006110be82611077565b9050919050565b60006110d082611064565b9050919050565b82818337600083830152505050565b60005b838110156111045780820151818401526020810190506110e9565b83811115611113576000848401525b50505050565b6000600282049050600182168061113157607f821691505b60208210811415611145576111446111f2565b5b50919050565b600061115682611097565b91507fffffffffffffffffffffffffffffffffffffffffffffffffffffffffffffffff82141561118957611188611194565b5b600182019050919050565b7f4e487b7100000000000000000000000000000000000000000000000000000000600052601160045260246000fd5b7f4e487b7100000000000000000000000000000000000000000000000000000000600052602160045260246000fd5b7f4e487b7100000000000000000000000000000000000000000000000000000000600052602260045260246000fd5b7f4e487b7100000000000000000000000000000000000000000000000000000000600052604160045260246000fd5b6000601f19601f8301169050919050565b60038110611272576112716111c3565b5b50565b61127e81611046565b811461128957600080fd5b50565b61129581611058565b81146112a057600080fd5b50565b600381106112b057600080fd5b50565b6112bc81611097565b81146112c757600080fd5b5056fea264697066735822122090e5f97e605a188cb3174025264db9c79b341ce1a28b456b337dfdf5331d8df864736f6c63430008000033",
  "immutableReferences": {},
  "source": "// SPDX-License-Identifier: MIT\npragma solidity ^0.8.0;\n\nimport \"./Post.sol\";\n\ncontract MisinformationReport {\n    enum VerificationStatusEnum { INVALID, VOTING_IN_PROGRESS, VERIFIED }\n\n    struct MisinformationReportStruct {\n        uint256 reportId;\n        uint256 postId;\n        address reporter;\n        string justification;\n        uint256 timestamp;\n        VerificationStatusEnum status;\n        address verifier;\n    }\n\n    Post public postContract;\n    MisinformationReportStruct[] public reports;\n    uint256 public nextReportId;\n\n    event MisinformationReportCreated(uint256 indexed reportId, uint256 indexed postId, address reporter);\n    event MisinformationReportUpdated(uint256 indexed reportId);\n    event MisinformationReportDeleted(uint256 indexed reportId);\n\n    constructor(address _postContractAddress) {\n        postContract = Post(_postContractAddress);\n    }\n\n    function addMisinformationReport(uint256 _postId, string memory _justification) public {\n        Post.PostStruct memory postData = postContract.getPost(_postId);\n        require(postData.createdBy != address(0), \"Post does not exist.\");\n\n        MisinformationReportStruct memory newReport = MisinformationReportStruct({\n            reportId: nextReportId,\n            postId: _postId,\n            reporter: msg.sender,\n            justification: _justification,\n            timestamp: block.timestamp,\n            status: VerificationStatusEnum.VOTING_IN_PROGRESS,\n            verifier: address(0) \n        });\n\n        reports.push(newReport);\n        emit MisinformationReportCreated(nextReportId, _postId, msg.sender);\n        nextReportId++;\n    }\n\n    function updateMisinformationReport(uint256 _reportId, bool _isValid, address _verifier) public {\n        require(_reportId < reports.length, \"Report does not exist.\");\n        MisinformationReportStruct storage report = reports[_reportId];\n        require(report.status == VerificationStatusEnum.VOTING_IN_PROGRESS, \"Report is not in voting stage.\");\n\n        report.status = _isValid ? VerificationStatusEnum.VERIFIED : VerificationStatusEnum.INVALID;\n        report.verifier = _verifier;\n\n        emit MisinformationReportUpdated(_reportId);\n    }\n\n    function deleteMisinformationReport(uint256 _reportId) public {\n        require(_reportId < reports.length, \"Report does not exist.\");\n        delete reports[_reportId];\n        emit MisinformationReportDeleted(_reportId);\n    }\n\n}\n",
  "sourcePath": "/Users/GuoJun/Documents/NUS/Y4S2/IS4302/IS4302-GP2/contracts/MisinformationReport.sol",
  "compiler": {
    "name": "solc",
    "version": "0.8.0+commit.c7dfd78e.Emscripten.clang"
  },
  "schemaVersion": "3.4.16",
  "updatedAt": "2024-04-15T18:15:55.529Z",
  "networkType": "ethereum",
  "devdoc": {
    "kind": "dev",
    "methods": {},
    "version": 1
  },
  "userdoc": {
    "kind": "user",
    "methods": {},
    "version": 1
  }
}