{
  "contractName": "Post",
  "abi": [
    {
      "anonymous": false,
      "inputs": [
        {
          "indexed": true,
          "internalType": "uint256",
          "name": "postId",
          "type": "uint256"
        }
      ],
      "name": "createPostEvent",
      "type": "event"
    },
    {
      "anonymous": false,
      "inputs": [
        {
          "indexed": true,
          "internalType": "uint256",
          "name": "postId",
          "type": "uint256"
        }
      ],
      "name": "deletePostEvent",
      "type": "event"
    },
    {
      "inputs": [],
      "name": "nextPostId",
      "outputs": [
        {
          "internalType": "uint256",
          "name": "",
          "type": "uint256"
        }
      ],
      "stateMutability": "view",
      "type": "function",
      "constant": true
    },
    {
      "inputs": [
        {
          "internalType": "uint256",
          "name": "",
          "type": "uint256"
        }
      ],
      "name": "posts",
      "outputs": [
        {
          "internalType": "uint256",
          "name": "id",
          "type": "uint256"
        },
        {
          "internalType": "string",
          "name": "title",
          "type": "string"
        },
        {
          "internalType": "string",
          "name": "content",
          "type": "string"
        },
        {
          "internalType": "uint256",
          "name": "createdAt",
          "type": "uint256"
        },
        {
          "internalType": "address",
          "name": "createdBy",
          "type": "address"
        },
        {
          "internalType": "enum Post.VerificationStatus",
          "name": "status",
          "type": "uint8"
        }
      ],
      "stateMutability": "view",
      "type": "function",
      "constant": true
    },
    {
      "inputs": [
        {
          "internalType": "string",
          "name": "_title",
          "type": "string"
        },
        {
          "internalType": "string",
          "name": "_content",
          "type": "string"
        }
      ],
      "name": "createPost",
      "outputs": [],
      "stateMutability": "nonpayable",
      "type": "function"
    },
    {
      "inputs": [
        {
          "internalType": "uint256",
          "name": "_postId",
          "type": "uint256"
        }
      ],
      "name": "getPost",
      "outputs": [
        {
          "components": [
            {
              "internalType": "uint256",
              "name": "id",
              "type": "uint256"
            },
            {
              "internalType": "string",
              "name": "title",
              "type": "string"
            },
            {
              "internalType": "string",
              "name": "content",
              "type": "string"
            },
            {
              "internalType": "uint256",
              "name": "createdAt",
              "type": "uint256"
            },
            {
              "internalType": "address",
              "name": "createdBy",
              "type": "address"
            },
            {
              "internalType": "enum Post.VerificationStatus",
              "name": "status",
              "type": "uint8"
            }
          ],
          "internalType": "struct Post.PostStruct",
          "name": "",
          "type": "tuple"
        }
      ],
      "stateMutability": "view",
      "type": "function",
      "constant": true
    },
    {
      "inputs": [
        {
          "internalType": "uint256",
          "name": "_postId",
          "type": "uint256"
        }
      ],
      "name": "deletePost",
      "outputs": [],
      "stateMutability": "nonpayable",
      "type": "function"
    }
  ],
  "bytecode": "0x608060405234801561001057600080fd5b50611192806100206000396000f3fe608060405234801561001057600080fd5b50600436106100575760003560e01c8063094cd5ee1461005c5780630b1e7f8314610078578063392338f5146100ad57806340731c24146100c95780635c09bd98146100f9575b600080fd5b61007660048036038101906100719190610ba1565b610117565b005b610092600480360381019061008d9190610ba1565b61031d565b6040516100a496959493929190610e49565b60405180910390f35b6100c760048036038101906100c29190610b35565b6104a6565b005b6100e360048036038101906100de9190610ba1565b61068d565b6040516100f09190610e0c565b60405180910390f35b61010161094b565b60405161010e9190610e2e565b60405180910390f35b600080549050811061015e576040517f08c379a000000000000000000000000000000000000000000000000000000000815260040161015590610dec565b60405180910390fd5b3373ffffffffffffffffffffffffffffffffffffffff16600082815481106101af577f4e487b7100000000000000000000000000000000000000000000000000000000600052603260045260246000fd5b906000526020600020906005020160040160009054906101000a900473ffffffffffffffffffffffffffffffffffffffff1673ffffffffffffffffffffffffffffffffffffffff1614610237576040517f08c379a000000000000000000000000000000000000000000000000000000000815260040161022e90610dcc565b60405180910390fd5b807f031291878697fe5fa9616636a135d250e2db88dc322aacf618a8a75baaffeda560405160405180910390a26000818154811061029e577f4e487b7100000000000000000000000000000000000000000000000000000000600052603260045260246000fd5b90600052602060002090600502016000808201600090556001820160006102c59190610951565b6002820160006102d59190610951565b60038201600090556004820160006101000a81549073ffffffffffffffffffffffffffffffffffffffff02191690556004820160146101000a81549060ff0219169055505050565b6000818154811061032d57600080fd5b906000526020600020906005020160009150905080600001549080600101805461035690610fe9565b80601f016020809104026020016040519081016040528092919081815260200182805461038290610fe9565b80156103cf5780601f106103a4576101008083540402835291602001916103cf565b820191906000526020600020905b8154815290600101906020018083116103b257829003601f168201915b5050505050908060020180546103e490610fe9565b80601f016020809104026020016040519081016040528092919081815260200182805461041090610fe9565b801561045d5780601f106104325761010080835404028352916020019161045d565b820191906000526020600020905b81548152906001019060200180831161044057829003601f168201915b5050505050908060030154908060040160009054906101000a900473ffffffffffffffffffffffffffffffffffffffff16908060040160149054906101000a900460ff16905086565b60006040518060c0016040528060015481526020018481526020018381526020014281526020013373ffffffffffffffffffffffffffffffffffffffff16815260200160016002811115610523577f4e487b7100000000000000000000000000000000000000000000000000000000600052602160045260246000fd5b8152509050600081908060018154018082558091505060019003906000526020600020906005020160009091909190915060008201518160000155602082015181600101908051906020019061057a929190610991565b506040820151816002019080519060200190610597929190610991565b506060820151816003015560808201518160040160006101000a81548173ffffffffffffffffffffffffffffffffffffffff021916908373ffffffffffffffffffffffffffffffffffffffff16021790555060a08201518160040160146101000a81548160ff0219169083600281111561063a577f4e487b7100000000000000000000000000000000000000000000000000000000600052602160045260246000fd5b021790555050506001547fc6af11d29446f8e345398464ca70a227b688dbd045527726f8a5b0d56fe05e6a60405160405180910390a2600160008154809291906106839061101b565b9190505550505050565b610695610a17565b60008054905082106106dc576040517f08c379a00000000000000000000000000000000000000000000000000000000081526004016106d390610dec565b60405180910390fd5b60008281548110610716577f4e487b7100000000000000000000000000000000000000000000000000000000600052603260045260246000fd5b90600052602060002090600502016040518060c00160405290816000820154815260200160018201805461074990610fe9565b80601f016020809104026020016040519081016040528092919081815260200182805461077590610fe9565b80156107c25780601f10610797576101008083540402835291602001916107c2565b820191906000526020600020905b8154815290600101906020018083116107a557829003601f168201915b505050505081526020016002820180546107db90610fe9565b80601f016020809104026020016040519081016040528092919081815260200182805461080790610fe9565b80156108545780601f1061082957610100808354040283529160200191610854565b820191906000526020600020905b81548152906001019060200180831161083757829003601f168201915b50505050508152602001600382015481526020016004820160009054906101000a900473ffffffffffffffffffffffffffffffffffffffff1673ffffffffffffffffffffffffffffffffffffffff1673ffffffffffffffffffffffffffffffffffffffff1681526020016004820160149054906101000a900460ff166002811115610908577f4e487b7100000000000000000000000000000000000000000000000000000000600052602160045260246000fd5b6002811115610940577f4e487b7100000000000000000000000000000000000000000000000000000000600052602160045260246000fd5b815250509050919050565b60015481565b50805461095d90610fe9565b6000825580601f1061096f575061098e565b601f01602090049060005260206000209081019061098d9190610a9b565b5b50565b82805461099d90610fe9565b90600052602060002090601f0160209004810192826109bf5760008555610a06565b82601f106109d857805160ff1916838001178555610a06565b82800160010185558215610a06579182015b82811115610a055782518255916020019190600101906109ea565b5b509050610a139190610a9b565b5090565b6040518060c0016040528060008152602001606081526020016060815260200160008152602001600073ffffffffffffffffffffffffffffffffffffffff16815260200160006002811115610a95577f4e487b7100000000000000000000000000000000000000000000000000000000600052602160045260246000fd5b81525090565b5b80821115610ab4576000816000905550600101610a9c565b5090565b6000610acb610ac684610ee9565b610eb8565b905082815260208101848484011115610ae357600080fd5b610aee848285610fa7565b509392505050565b600082601f830112610b0757600080fd5b8135610b17848260208601610ab8565b91505092915050565b600081359050610b2f81611145565b92915050565b60008060408385031215610b4857600080fd5b600083013567ffffffffffffffff811115610b6257600080fd5b610b6e85828601610af6565b925050602083013567ffffffffffffffff811115610b8b57600080fd5b610b9785828601610af6565b9150509250929050565b600060208284031215610bb357600080fd5b6000610bc184828501610b20565b91505092915050565b610bd381610f46565b82525050565b610be281610f46565b82525050565b610bf181610f95565b82525050565b610c0081610f95565b82525050565b6000610c1182610f19565b610c1b8185610f24565b9350610c2b818560208601610fb6565b610c3481611120565b840191505092915050565b6000610c4a82610f19565b610c548185610f35565b9350610c64818560208601610fb6565b610c6d81611120565b840191505092915050565b6000610c85602683610f35565b91507f4f6e6c792074686520617574686f722063616e2064656c65746520746865697260008301527f20706f73742e00000000000000000000000000000000000000000000000000006020830152604082019050919050565b6000610ceb601483610f35565b91507f506f737420646f6573206e6f742065786973742e0000000000000000000000006000830152602082019050919050565b600060c083016000830151610d366000860182610dae565b5060208301518482036020860152610d4e8282610c06565b91505060408301518482036040860152610d688282610c06565b9150506060830151610d7d6060860182610dae565b506080830151610d906080860182610bca565b5060a0830151610da360a0860182610be8565b508091505092915050565b610db781610f8b565b82525050565b610dc681610f8b565b82525050565b60006020820190508181036000830152610de581610c78565b9050919050565b60006020820190508181036000830152610e0581610cde565b9050919050565b60006020820190508181036000830152610e268184610d1e565b905092915050565b6000602082019050610e436000830184610dbd565b92915050565b600060c082019050610e5e6000830189610dbd565b8181036020830152610e708188610c3f565b90508181036040830152610e848187610c3f565b9050610e936060830186610dbd565b610ea06080830185610bd9565b610ead60a0830184610bf7565b979650505050505050565b6000604051905081810181811067ffffffffffffffff82111715610edf57610ede6110f1565b5b8060405250919050565b600067ffffffffffffffff821115610f0457610f036110f1565b5b601f19601f8301169050602081019050919050565b600081519050919050565b600082825260208201905092915050565b600082825260208201905092915050565b6000610f5182610f6b565b9050919050565b6000819050610f6682611131565b919050565b600073ffffffffffffffffffffffffffffffffffffffff82169050919050565b6000819050919050565b6000610fa082610f58565b9050919050565b82818337600083830152505050565b60005b83811015610fd4578082015181840152602081019050610fb9565b83811115610fe3576000848401525b50505050565b6000600282049050600182168061100157607f821691505b60208210811415611015576110146110c2565b5b50919050565b600061102682610f8b565b91507fffffffffffffffffffffffffffffffffffffffffffffffffffffffffffffffff82141561105957611058611064565b5b600182019050919050565b7f4e487b7100000000000000000000000000000000000000000000000000000000600052601160045260246000fd5b7f4e487b7100000000000000000000000000000000000000000000000000000000600052602160045260246000fd5b7f4e487b7100000000000000000000000000000000000000000000000000000000600052602260045260246000fd5b7f4e487b7100000000000000000000000000000000000000000000000000000000600052604160045260246000fd5b6000601f19601f8301169050919050565b6003811061114257611141611093565b5b50565b61114e81610f8b565b811461115957600080fd5b5056fea2646970667358221220ce25bb934e3960190deddf7d667464c7fffc251db7557a3d5b7e5ce21a35bf3e64736f6c63430008000033",
  "immutableReferences": {},
  "source": "// SPDX-License-Identifier: MIT\npragma solidity ^0.8.0;\n\ncontract Post {\n    enum VerificationStatus { INVALID, VOTING_IN_PROGRESS, VERIFIED } // Added enum to match the ERD\n\n    struct PostStruct {\n        uint256 id;\n        string title;\n        string content;\n        uint256 createdAt;\n        address createdBy;\n        VerificationStatus status;\n    }\n\n    PostStruct[] public posts;\n    uint256 public nextPostId;\n\n    event createPostEvent(uint256 indexed postId);\n    event deletePostEvent(uint256 indexed postId);\n\n    function createPost(string memory _title, string memory _content) public {\n        PostStruct memory newPost = PostStruct({\n            id: nextPostId,\n            title: _title,\n            content: _content,\n            createdAt: block.timestamp,\n            createdBy: msg.sender,\n            status: VerificationStatus.VOTING_IN_PROGRESS\n        });\n\n        posts.push(newPost);\n        emit createPostEvent(nextPostId);\n        nextPostId++;\n    }\n\n    function getPost(uint256 _postId) public view returns (PostStruct memory) {\n        require(_postId < posts.length, \"Post does not exist.\");\n        return posts[_postId];\n    }\n\n    function deletePost(uint256 _postId) public {\n        require(_postId < posts.length, \"Post does not exist.\");\n        require(posts[_postId].createdBy == msg.sender, \"Only the author can delete their post.\");\n\n        emit deletePostEvent(_postId);\n        delete posts[_postId];\n    }\n}\n",
  "sourcePath": "/Users/GuoJun/Documents/NUS/Y4S2/IS4302/IS4302-GP2/contracts/Post.sol",
  "compiler": {
    "name": "solc",
    "version": "0.8.0+commit.c7dfd78e.Emscripten.clang"
  },
  "schemaVersion": "3.4.16",
  "updatedAt": "2024-04-15T18:15:55.466Z",
  "networkType": "ethereum",
  "devdoc": {
    "kind": "dev",
    "methods": {},
    "version": 1
  },
  "userdoc": {
    "kind": "user",
    "methods": {},
    "version": 1
  }
}