{
  "contractName": "Post",
  "abi": [
    {
      "anonymous": false,
      "inputs": [
        {
          "indexed": false,
          "internalType": "uint256",
          "name": "postId",
          "type": "uint256"
        },
        {
          "indexed": false,
          "internalType": "address",
          "name": "postedBy",
          "type": "address"
        },
        {
          "indexed": false,
          "internalType": "string",
          "name": "title",
          "type": "string"
        }
      ],
      "name": "PostAdded",
      "type": "event"
    },
    {
      "anonymous": false,
      "inputs": [
        {
          "indexed": false,
          "internalType": "string",
          "name": "title",
          "type": "string"
        },
        {
          "indexed": false,
          "internalType": "string",
          "name": "content",
          "type": "string"
        }
      ],
      "name": "PostDeleted",
      "type": "event"
    },
    {
      "inputs": [],
      "name": "numPosts",
      "outputs": [
        {
          "internalType": "uint256",
          "name": "",
          "type": "uint256"
        }
      ],
      "stateMutability": "view",
      "type": "function",
      "constant": true
    },
    {
      "inputs": [
        {
          "internalType": "uint256",
          "name": "",
          "type": "uint256"
        }
      ],
      "name": "posts",
      "outputs": [
        {
          "internalType": "string",
          "name": "title",
          "type": "string"
        },
        {
          "internalType": "string",
          "name": "content",
          "type": "string"
        },
        {
          "internalType": "enum Post.postStatus",
          "name": "status",
          "type": "uint8"
        },
        {
          "internalType": "uint256",
          "name": "postedAt",
          "type": "uint256"
        },
        {
          "internalType": "address",
          "name": "poster",
          "type": "address"
        }
      ],
      "stateMutability": "view",
      "type": "function",
      "constant": true
    },
    {
      "inputs": [
        {
          "internalType": "string",
          "name": "title",
          "type": "string"
        },
        {
          "internalType": "string",
          "name": "content",
          "type": "string"
        }
      ],
      "name": "addPost",
      "outputs": [
        {
          "internalType": "uint256",
          "name": "postId",
          "type": "uint256"
        }
      ],
      "stateMutability": "nonpayable",
      "type": "function"
    },
    {
      "inputs": [],
      "name": "viewAllPosts",
      "outputs": [
        {
          "internalType": "string",
          "name": "_posts",
          "type": "string"
        }
      ],
      "stateMutability": "view",
      "type": "function",
      "constant": true
    },
    {
      "inputs": [
        {
          "internalType": "uint256",
          "name": "postId",
          "type": "uint256"
        }
      ],
      "name": "viewPostById",
      "outputs": [
        {
          "internalType": "string",
          "name": "_post",
          "type": "string"
        }
      ],
      "stateMutability": "view",
      "type": "function",
      "constant": true
    },
    {
      "inputs": [
        {
          "internalType": "address",
          "name": "userAddress",
          "type": "address"
        }
      ],
      "name": "viewPostsByUserAddress",
      "outputs": [
        {
          "internalType": "string",
          "name": "_posts",
          "type": "string"
        }
      ],
      "stateMutability": "view",
      "type": "function",
      "constant": true
    },
    {
      "inputs": [
        {
          "internalType": "uint256",
          "name": "postId",
          "type": "uint256"
        }
      ],
      "name": "deletePost",
      "outputs": [],
      "stateMutability": "nonpayable",
      "type": "function"
    },
    {
      "inputs": [
        {
          "internalType": "uint256",
          "name": "postId",
          "type": "uint256"
        }
      ],
      "name": "getPostTitle",
      "outputs": [
        {
          "internalType": "string",
          "name": "",
          "type": "string"
        }
      ],
      "stateMutability": "view",
      "type": "function",
      "constant": true
    },
    {
      "inputs": [
        {
          "internalType": "uint256",
          "name": "postId",
          "type": "uint256"
        }
      ],
      "name": "getPostContent",
      "outputs": [
        {
          "internalType": "string",
          "name": "",
          "type": "string"
        }
      ],
      "stateMutability": "view",
      "type": "function",
      "constant": true
    },
    {
      "inputs": [
        {
          "internalType": "uint256",
          "name": "postId",
          "type": "uint256"
        }
      ],
      "name": "getPostPostedAt",
      "outputs": [
        {
          "internalType": "uint256",
          "name": "",
          "type": "uint256"
        }
      ],
      "stateMutability": "view",
      "type": "function",
      "constant": true
    },
    {
      "inputs": [
        {
          "internalType": "uint256",
          "name": "postId",
          "type": "uint256"
        }
      ],
      "name": "getPostPoster",
      "outputs": [
        {
          "internalType": "address",
          "name": "",
          "type": "address"
        }
      ],
      "stateMutability": "view",
      "type": "function",
      "constant": true
    }
  ],
  "bytecode": "0x60806040526000805534801561001457600080fd5b50612778806100246000396000f3fe608060405234801561001057600080fd5b50600436106100a95760003560e01c8063722a0d8f11610071578063722a0d8f1461017c578063791ccf08146101ac5780639666c66b146101dc578063b02c65161461020c578063b519421f1461023c578063ec7331e91461026c576100a9565b8063094cd5ee146100ae5780630b1e7f83146100ca578063314128c0146100fe5780633cfc47ea1461012e578063534f425f1461015e575b600080fd5b6100c860048036038101906100c39190611bab565b61028a565b005b6100e460048036038101906100df9190611bab565b610441565b6040516100f595949392919061214b565b60405180910390f35b61011860048036038101906101139190611bab565b6105b4565b6040516101259190612129565b60405180910390f35b61014860048036038101906101439190611bab565b6106a2565b604051610155919061210e565b60405180910390f35b610166610728565b6040516101739190612129565b60405180910390f35b61019660048036038101906101919190611bab565b610820565b6040516101a39190612129565b60405180910390f35b6101c660048036038101906101c19190611bab565b610878565b6040516101d39190612129565b60405180910390f35b6101f660048036038101906101f19190611bab565b610966565b6040516102039190612263565b60405180910390f35b61022660048036038101906102219190611b3f565b6109cc565b6040516102339190612263565b60405180910390f35b61025660048036038101906102519190611b16565b610c2a565b6040516102639190612129565b60405180910390f35b610274610daa565b6040516102819190612263565b60405180910390f35b8060005481106102cf576040517f08c379a00000000000000000000000000000000000000000000000000000000081526004016102c6906121e3565b60405180910390fd5b600060016000848152602001908152602001600020905060038081111561031f577f4e487b7100000000000000000000000000000000000000000000000000000000600052602160045260246000fd5b8160020160009054906101000a900460ff166003811115610369577f4e487b7100000000000000000000000000000000000000000000000000000000600052602160045260246000fd5b14156103aa576040517f08c379a00000000000000000000000000000000000000000000000000000000081526004016103a190612223565b60405180910390fd5b60038160020160006101000a81548160ff021916908360038111156103f8577f4e487b7100000000000000000000000000000000000000000000000000000000600052602160045260246000fd5b02179055507f9864283e04be3fa2e40385b361dc08a835de0184468627a039f4a3fcac1b720081600001826001016040516104349291906121ac565b60405180910390a1505050565b600160205280600052604060002060009150905080600001805461046490612527565b80601f016020809104026020016040519081016040528092919081815260200182805461049090612527565b80156104dd5780601f106104b2576101008083540402835291602001916104dd565b820191906000526020600020905b8154815290600101906020018083116104c057829003601f168201915b5050505050908060010180546104f290612527565b80601f016020809104026020016040519081016040528092919081815260200182805461051e90612527565b801561056b5780601f106105405761010080835404028352916020019161056b565b820191906000526020600020905b81548152906001019060200180831161054e57829003601f168201915b5050505050908060020160009054906101000a900460ff16908060030154908060040160009054906101000a900473ffffffffffffffffffffffffffffffffffffffff16905085565b60608160005481106105fb576040517f08c379a00000000000000000000000000000000000000000000000000000000081526004016105f2906121e3565b60405180910390fd5b60016000848152602001908152602001600020600101805461061c90612527565b80601f016020809104026020016040519081016040528092919081815260200182805461064890612527565b80156106955780601f1061066a57610100808354040283529160200191610695565b820191906000526020600020905b81548152906001019060200180831161067857829003601f168201915b5050505050915050919050565b60008160005481106106e9576040517f08c379a00000000000000000000000000000000000000000000000000000000081526004016106e0906121e3565b60405180910390fd5b6001600084815260200190815260200160002060040160009054906101000a900473ffffffffffffffffffffffffffffffffffffffff16915050919050565b60606000805467ffffffffffffffff81111561076d577f4e487b7100000000000000000000000000000000000000000000000000000000600052604160045260246000fd5b6040519080825280602002602001820160405280156107a057816020015b606081526020019060019003908161078b5790505b50905060005b600054811015610810576107b981610db0565b8282815181106107f2577f4e487b7100000000000000000000000000000000000000000000000000000000600052603260045260246000fd5b6020026020010181905250808061080890612559565b9150506107a6565b5061081a81611045565b91505090565b6060816000548110610867576040517f08c379a000000000000000000000000000000000000000000000000000000000815260040161085e906121e3565b60405180910390fd5b61087083610db0565b915050919050565b60608160005481106108bf576040517f08c379a00000000000000000000000000000000000000000000000000000000081526004016108b6906121e3565b60405180910390fd5b6001600084815260200190815260200160002060000180546108e090612527565b80601f016020809104026020016040519081016040528092919081815260200182805461090c90612527565b80156109595780601f1061092e57610100808354040283529160200191610959565b820191906000526020600020905b81548152906001019060200180831161093c57829003601f168201915b5050505050915050919050565b60008160005481106109ad576040517f08c379a00000000000000000000000000000000000000000000000000000000081526004016109a4906121e3565b60405180910390fd5b6001600084815260200190815260200160002060030154915050919050565b600080835111610a11576040517f08c379a0000000000000000000000000000000000000000000000000000000008152600401610a0890612243565b60405180910390fd5b6000825111610a55576040517f08c379a0000000000000000000000000000000000000000000000000000000008152600401610a4c90612203565b60405180910390fd5b60006040518060a0016040528085815260200184815260200160006003811115610aa8577f4e487b7100000000000000000000000000000000000000000000000000000000600052602160045260246000fd5b81526020014281526020013373ffffffffffffffffffffffffffffffffffffffff16815250905060008054905081600160008381526020019081526020016000206000820151816000019080519060200190610b059291906119e1565b506020820151816001019080519060200190610b229291906119e1565b5060408201518160020160006101000a81548160ff02191690836003811115610b74577f4e487b7100000000000000000000000000000000000000000000000000000000600052602160045260246000fd5b02179055506060820151816003015560808201518160040160006101000a81548173ffffffffffffffffffffffffffffffffffffffff021916908373ffffffffffffffffffffffffffffffffffffffff160217905550905050600080815480929190610bdf90612559565b91905055507f06faa5d8b2c429af8567bbb8365d36256267bbe96472cf76b76cc643489c0225813387604051610c179392919061227e565b60405180910390a1809250505092915050565b60606000805467ffffffffffffffff811115610c6f577f4e487b7100000000000000000000000000000000000000000000000000000000600052604160045260246000fd5b604051908082528060200260200182016040528015610ca257816020015b6060815260200190600190039081610c8d5790505b5090506000805b600054811015610d97578473ffffffffffffffffffffffffffffffffffffffff166001600083815260200190815260200160002060040160009054906101000a900473ffffffffffffffffffffffffffffffffffffffff1673ffffffffffffffffffffffffffffffffffffffff161415610d7957610d2681610db0565b838381518110610d5f577f4e487b7100000000000000000000000000000000000000000000000000000000600052603260045260246000fd5b60200260200101819052508180610d7590612559565b9250505b610d8283611045565b93508080610d8f90612559565b915050610ca9565b50610da182611045565b92505050919050565b60005481565b60606000600160008481526020019081526020016000206040518060a0016040529081600082018054610de290612527565b80601f0160208091040260200160405190810160405280929190818152602001828054610e0e90612527565b8015610e5b5780601f10610e3057610100808354040283529160200191610e5b565b820191906000526020600020905b815481529060010190602001808311610e3e57829003601f168201915b50505050508152602001600182018054610e7490612527565b80601f0160208091040260200160405190810160405280929190818152602001828054610ea090612527565b8015610eed5780601f10610ec257610100808354040283529160200191610eed565b820191906000526020600020905b815481529060010190602001808311610ed057829003601f168201915b505050505081526020016002820160009054906101000a900460ff166003811115610f41577f4e487b7100000000000000000000000000000000000000000000000000000000600052602160045260246000fd5b6003811115610f79577f4e487b7100000000000000000000000000000000000000000000000000000000600052602160045260246000fd5b8152602001600382015481526020016004820160009054906101000a900473ffffffffffffffffffffffffffffffffffffffff1673ffffffffffffffffffffffffffffffffffffffff1673ffffffffffffffffffffffffffffffffffffffff16815250509050610fe8836110d5565b81600001518260200151610fff8460400151611294565b61100c85606001516110d5565b6110198660800151611573565b60405160200161102e96959493929190612032565b604051602081830303815290604052915050919050565b60608060005b83518110156110cb578184828151811061108e577f4e487b7100000000000000000000000000000000000000000000000000000000600052603260045260246000fd5b60200260200101516040516020016110a792919061200e565b604051602081830303815290604052915080806110c390612559565b91505061104b565b5080915050919050565b6060600082141561111d576040518060400160405280600181526020017f3000000000000000000000000000000000000000000000000000000000000000815250905061128f565b600082905060005b6000821461114f57808061113890612559565b915050600a8261114891906123c5565b9150611125565b60008167ffffffffffffffff811115611191577f4e487b7100000000000000000000000000000000000000000000000000000000600052604160045260246000fd5b6040519080825280601f01601f1916602001820160405280156111c35781602001600182028036833780820191505090505b50905060008290505b60008614611287576001816111e19190612450565b90506000600a876111f291906125c6565b60306111fe919061236f565b905060008160f81b905080848481518110611242577f4e487b7100000000000000000000000000000000000000000000000000000000600052603260045260246000fd5b60200101907effffffffffffffffffffffffffffffffffffffffffffffffffffffffffffff1916908160001a905350600a8861127e91906123c5565b975050506111cc565b819450505050505b919050565b6060600060038111156112d0577f4e487b7100000000000000000000000000000000000000000000000000000000600052602160045260246000fd5b826003811115611309577f4e487b7100000000000000000000000000000000000000000000000000000000600052602160045260246000fd5b141561134c576040518060400160405280601281526020017f564f54494e4720494e2050524f47524553530000000000000000000000000000815250905061156e565b60016003811115611386577f4e487b7100000000000000000000000000000000000000000000000000000000600052602160045260246000fd5b8260038111156113bf577f4e487b7100000000000000000000000000000000000000000000000000000000600052602160045260246000fd5b1415611402576040518060400160405280600781526020017f494e56414c494400000000000000000000000000000000000000000000000000815250905061156e565b6002600381111561143c577f4e487b7100000000000000000000000000000000000000000000000000000000600052602160045260246000fd5b826003811115611475577f4e487b7100000000000000000000000000000000000000000000000000000000600052602160045260246000fd5b14156114b8576040518060400160405280600881526020017f5645524946494544000000000000000000000000000000000000000000000000815250905061156e565b6003808111156114f1577f4e487b7100000000000000000000000000000000000000000000000000000000600052602160045260246000fd5b82600381111561152a577f4e487b7100000000000000000000000000000000000000000000000000000000600052602160045260246000fd5b141561156d576040518060400160405280600781526020017f44454c4554454400000000000000000000000000000000000000000000000000815250905061156e565b5b919050565b60606000826040516020016115889190611ff3565b60405160208183030381529060405280519060200120905060006040518060400160405280601081526020017f303132333435363738396162636465660000000000000000000000000000000081525090506000602a67ffffffffffffffff81111561161d577f4e487b7100000000000000000000000000000000000000000000000000000000600052604160045260246000fd5b6040519080825280601f01601f19166020018201604052801561164f5781602001600182028036833780820191505090505b5090507f3000000000000000000000000000000000000000000000000000000000000000816000815181106116ad577f4e487b7100000000000000000000000000000000000000000000000000000000600052603260045260246000fd5b60200101907effffffffffffffffffffffffffffffffffffffffffffffffffffffffffffff1916908160001a9053507f780000000000000000000000000000000000000000000000000000000000000081600181518110611737577f4e487b7100000000000000000000000000000000000000000000000000000000600052603260045260246000fd5b60200101907effffffffffffffffffffffffffffffffffffffffffffffffffffffffffffff1916908160001a90535060005b60148110156119d55782600485600c84611783919061236f565b602081106117ba577f4e487b7100000000000000000000000000000000000000000000000000000000600052603260045260246000fd5b1a60f81b7effffffffffffffffffffffffffffffffffffffffffffffffffffffffffffff1916901c60f81c60ff168151811061181f577f4e487b7100000000000000000000000000000000000000000000000000000000600052603260045260246000fd5b602001015160f81c60f81b8260028361183891906123f6565b6002611844919061236f565b8151811061187b577f4e487b7100000000000000000000000000000000000000000000000000000000600052603260045260246000fd5b60200101907effffffffffffffffffffffffffffffffffffffffffffffffffffffffffffff1916908160001a90535082600f60f81b85600c846118be919061236f565b602081106118f5577f4e487b7100000000000000000000000000000000000000000000000000000000600052603260045260246000fd5b1a60f81b1660f81c60ff1681518110611937577f4e487b7100000000000000000000000000000000000000000000000000000000600052603260045260246000fd5b602001015160f81c60f81b8260028361195091906123f6565b600361195c919061236f565b81518110611993577f4e487b7100000000000000000000000000000000000000000000000000000000600052603260045260246000fd5b60200101907effffffffffffffffffffffffffffffffffffffffffffffffffffffffffffff1916908160001a90535080806119cd90612559565b915050611769565b50809350505050919050565b8280546119ed90612527565b90600052602060002090601f016020900481019282611a0f5760008555611a56565b82601f10611a2857805160ff1916838001178555611a56565b82800160010185558215611a56579182015b82811115611a55578251825591602001919060010190611a3a565b5b509050611a639190611a67565b5090565b5b80821115611a80576000816000905550600101611a68565b5090565b6000611a97611a92846122ed565b6122bc565b905082815260208101848484011115611aaf57600080fd5b611aba8482856124e5565b509392505050565b600081359050611ad181612714565b92915050565b600082601f830112611ae857600080fd5b8135611af8848260208601611a84565b91505092915050565b600081359050611b108161272b565b92915050565b600060208284031215611b2857600080fd5b6000611b3684828501611ac2565b91505092915050565b60008060408385031215611b5257600080fd5b600083013567ffffffffffffffff811115611b6c57600080fd5b611b7885828601611ad7565b925050602083013567ffffffffffffffff811115611b9557600080fd5b611ba185828601611ad7565b9150509250929050565b600060208284031215611bbd57600080fd5b6000611bcb84828501611b01565b91505092915050565b611bdd81612484565b82525050565b611bf4611bef82612484565b6125a2565b82525050565b6000611c0582612332565b611c0f8185612348565b9350611c1f8185602086016124f4565b80840191505092915050565b611c34816124d3565b82525050565b6000611c458261233d565b611c4f8185612353565b9350611c5f8185602086016124f4565b611c68816126e2565b840191505092915050565b6000611c7e8261233d565b611c888185612364565b9350611c988185602086016124f4565b80840191505092915050565b60008154611cb181612527565b611cbb8186612353565b94506001821660008114611cd65760018114611ce857611d1b565b60ff1983168652602086019350611d1b565b611cf18561231d565b60005b83811015611d1357815481890152600182019150602081019050611cf4565b808801955050505b50505092915050565b6000611d31600183612364565b91507f0a000000000000000000000000000000000000000000000000000000000000006000830152600182019050919050565b6000611d71600983612364565b91507f436f6e74656e743a2000000000000000000000000000000000000000000000006000830152600982019050919050565b6000611db1601883612353565b91507f54686520706f7374206964206973206e6f742076616c696400000000000000006000830152602082019050919050565b6000611df1601c83612353565b91507f506f737420636f6e74656e742063616e6e6f7420626520656d707479000000006000830152602082019050919050565b6000611e31600483612364565b91507f49443a20000000000000000000000000000000000000000000000000000000006000830152600482019050919050565b6000611e71600883612364565b91507f5374617475733a200000000000000000000000000000000000000000000000006000830152600882019050919050565b6000611eb1601d83612353565b91507f506f73742068617320616c7265616479206265656e2064656c657465640000006000830152602082019050919050565b6000611ef1600c83612364565b91507f437265617465642042793a2000000000000000000000000000000000000000006000830152600c82019050919050565b6000611f31601a83612353565b91507f506f7374207469746c652063616e6e6f7420626520656d7074790000000000006000830152602082019050919050565b6000611f71600c83612364565b91507f437265617465642041743a2000000000000000000000000000000000000000006000830152600c82019050919050565b6000611fb1600783612364565b91507f5469746c653a20000000000000000000000000000000000000000000000000006000830152600782019050919050565b611fed816124c9565b82525050565b6000611fff8284611be3565b60148201915081905092915050565b600061201a8285611bfa565b91506120268284611c73565b91508190509392505050565b600061203d82611e24565b91506120498289611c73565b915061205482611d24565b915061205f82611fa4565b915061206b8288611c73565b915061207682611d24565b915061208182611d64565b915061208d8287611c73565b915061209882611d24565b91506120a382611e64565b91506120af8286611c73565b91506120ba82611d24565b91506120c582611f64565b91506120d18285611c73565b91506120dc82611d24565b91506120e782611ee4565b91506120f38284611c73565b91506120fe82611d24565b9150819050979650505050505050565b60006020820190506121236000830184611bd4565b92915050565b600060208201905081810360008301526121438184611c3a565b905092915050565b600060a08201905081810360008301526121658188611c3a565b905081810360208301526121798187611c3a565b90506121886040830186611c2b565b6121956060830185611fe4565b6121a26080830184611bd4565b9695505050505050565b600060408201905081810360008301526121c68185611ca4565b905081810360208301526121da8184611ca4565b90509392505050565b600060208201905081810360008301526121fc81611da4565b9050919050565b6000602082019050818103600083015261221c81611de4565b9050919050565b6000602082019050818103600083015261223c81611ea4565b9050919050565b6000602082019050818103600083015261225c81611f24565b9050919050565b60006020820190506122786000830184611fe4565b92915050565b60006060820190506122936000830186611fe4565b6122a06020830185611bd4565b81810360408301526122b28184611c3a565b9050949350505050565b6000604051905081810181811067ffffffffffffffff821117156122e3576122e26126b3565b5b8060405250919050565b600067ffffffffffffffff821115612308576123076126b3565b5b601f19601f8301169050602081019050919050565b60008190508160005260206000209050919050565b600081519050919050565b600081519050919050565b600081905092915050565b600082825260208201905092915050565b600081905092915050565b600061237a826124c9565b9150612385836124c9565b9250827fffffffffffffffffffffffffffffffffffffffffffffffffffffffffffffffff038211156123ba576123b96125f7565b5b828201905092915050565b60006123d0826124c9565b91506123db836124c9565b9250826123eb576123ea612626565b5b828204905092915050565b6000612401826124c9565b915061240c836124c9565b9250817fffffffffffffffffffffffffffffffffffffffffffffffffffffffffffffffff0483118215151615612445576124446125f7565b5b828202905092915050565b600061245b826124c9565b9150612466836124c9565b925082821015612479576124786125f7565b5b828203905092915050565b600061248f826124a9565b9050919050565b60008190506124a482612700565b919050565b600073ffffffffffffffffffffffffffffffffffffffff82169050919050565b6000819050919050565b60006124de82612496565b9050919050565b82818337600083830152505050565b60005b838110156125125780820151818401526020810190506124f7565b83811115612521576000848401525b50505050565b6000600282049050600182168061253f57607f821691505b6020821081141561255357612552612684565b5b50919050565b6000612564826124c9565b91507fffffffffffffffffffffffffffffffffffffffffffffffffffffffffffffffff821415612597576125966125f7565b5b600182019050919050565b60006125ad826125b4565b9050919050565b60006125bf826126f3565b9050919050565b60006125d1826124c9565b91506125dc836124c9565b9250826125ec576125eb612626565b5b828206905092915050565b7f4e487b7100000000000000000000000000000000000000000000000000000000600052601160045260246000fd5b7f4e487b7100000000000000000000000000000000000000000000000000000000600052601260045260246000fd5b7f4e487b7100000000000000000000000000000000000000000000000000000000600052602160045260246000fd5b7f4e487b7100000000000000000000000000000000000000000000000000000000600052602260045260246000fd5b7f4e487b7100000000000000000000000000000000000000000000000000000000600052604160045260246000fd5b6000601f19601f8301169050919050565b60008160601b9050919050565b6004811061271157612710612655565b5b50565b61271d81612484565b811461272857600080fd5b50565b612734816124c9565b811461273f57600080fd5b5056fea2646970667358221220601edca954cbf6df59d805dea60bca002f7077bc632fa077cfd58b126da03d9464736f6c63430008000033",
  "immutableReferences": {},
  "source": "// SPDX-License-Identifier: MIT\npragma solidity ^0.8.0;\npragma experimental ABIEncoderV2;\n\ncontract Post {\n    enum postStatus { VOTING_IN_PROGRESS, INVALID, VERIFIED, DELETED }\n\n    struct post {\n        string title;\n        string content;\n        postStatus status;\n        uint256 postedAt;\n        address poster;\n    }\n\n    uint256 public numPosts = 0;\n\n    mapping(uint256 => post) public posts;\n\n    event PostAdded(uint256 postId, address postedBy, string title);\n    event PostDeleted(string title, string content);\n\n    modifier validPostId(uint256 postId) {\n        require(postId < numPosts, \"The post id is not valid\");\n        _;\n    }\n\n    function addPost(string memory title, string memory content) public returns (uint256 postId) {\n        require(bytes(title).length > 0, \"Post title cannot be empty\");\n        require(bytes(content).length > 0, \"Post content cannot be empty\");\n\n        post memory newPost = post(\n            title,\n            content,\n            postStatus.VOTING_IN_PROGRESS,\n            block.timestamp,\n            msg.sender\n        );\n\n        uint256 newPostId = numPosts;\n        posts[newPostId] = newPost;\n        numPosts++;\n\n        // add logic for verification voting\n        \n        emit PostAdded(newPostId, msg.sender, title);\n\n        return newPostId;\n    }\n\n    function viewAllPosts() public view returns (string memory _posts) {\n        string[] memory allPosts = new string[](numPosts);\n\n        for (uint256 i = 0; i < numPosts; i++) {\n            allPosts[i] = encodePostToString(i);\n        }\n\n        _posts = concat(allPosts);\n    }\n\n    function viewPostById(uint256 postId) public view validPostId(postId) returns (string memory _post) {\n        _post = encodePostToString(postId);\n    }\n\n    function viewPostsByUserAddress(address userAddress) public view returns (string memory _posts) {\n        string[] memory userPosts = new string[](numPosts);\n        uint256 userPostCount = 0;\n\n        for (uint256 i = 0; i < numPosts; i++) {\n            if (posts[i].poster == userAddress) {\n                userPosts[userPostCount] = encodePostToString(i);\n                userPostCount++;\n            }\n        \n        _posts = concat(userPosts);\n    }\n\n    return concat(userPosts);    }\n\n    function deletePost(uint256 postId) public validPostId(postId) {\n        post storage postToBeDeleted = posts[postId];\n\n        require(postToBeDeleted.status != postStatus.DELETED, \"Post has already been deleted\");\n\n        postToBeDeleted.status = postStatus.DELETED;\n\n        emit PostDeleted(postToBeDeleted.title, postToBeDeleted.content);\n    }\n\n    /* Getter Functions */\n\n    function getPostTitle(uint256 postId) public view validPostId(postId) returns (string memory) {\n        return posts[postId].title;\n    }\n\n    function getPostContent(uint256 postId) public view validPostId(postId) returns (string memory) {\n        return posts[postId].content;\n    }\n\n    function getPostPostedAt(uint256 postId) public view validPostId(postId) returns (uint256) {\n        return posts[postId].postedAt;\n    }\n\n    function getPostPoster(uint256 postId) public view validPostId(postId) returns (address) {\n        return posts[postId].poster;\n    }\n\n    /* Helper Functions */\n\n    /**\n        @dev Concat an array of strings into a string\n        @param words The array of strings to concat\n    */\n    function concat(string[] memory words) private pure returns (string memory) {\n        bytes memory output;\n        for (uint256 i = 0; i < words.length; i++) {\n        output = abi.encodePacked(output, words[i]);\n        }\n        return string(output);\n    }\n\n    /**\n        @dev Encode a credential into a formatted string\n        @param postId The id of the credential to encode\n    */\n    function encodePostToString(uint256 postId) private view returns (string memory) {\n        post memory p = posts[postId];\n\n        return string(\n            abi.encodePacked(\n                \"ID: \",\n                uint256ToString(postId),\n                \"\\n\",\n                \"Title: \",\n                p.title,\n                \"\\n\",\n                \"Content: \",\n                p.content,\n                \"\\n\",\n                \"Status: \",\n                postStatusToString(p.status),\n                \"\\n\",\n                \"Created At: \",\n                uint256ToString(p.postedAt),\n                \"\\n\",\n                \"Created By: \",\n                addressToString(p.poster),\n                \"\\n\"\n            )\n        );\n    }\n    \n    /**\n        @dev Convert uint256 into string\n        @param _i uint256 to convert\n    */\n    function uint256ToString(uint256 _i) private pure returns (string memory) {\n        if (_i == 0) {\n            return \"0\";\n        }\n        uint256 j = _i;\n        uint256 length;\n        \n        while (j != 0) {\n            length++;\n            j /= 10;\n        }\n\n        bytes memory bstr = new bytes(length);\n        uint256 k = length;\n        \n        while (_i != 0) {\n            k = k - 1;\n            uint8 temp = uint8(48 + (_i % 10));\n            bytes1 b1 = bytes1(temp);\n            bstr[k] = b1;\n            _i /= 10;\n        }\n\n        return string(bstr);\n    }\n\n    /**\n        @dev Convert address into string\n        @param _address addresss to convert\n    */\n    function addressToString(\n        address _address\n    ) private pure returns (string memory) {\n        bytes32 value = keccak256(abi.encodePacked(_address));\n        bytes memory alphabet = \"0123456789abcdef\";\n        bytes memory str = new bytes(42);\n        str[0] = \"0\";\n        str[1] = \"x\";\n\n        for (uint256 i = 0; i < 20; i++) {\n            str[2 + i * 2] = alphabet[uint8(value[i + 12] >> 4)];\n            str[3 + i * 2] = alphabet[uint8(value[i + 12] & 0x0f)];\n        }\n\n        return string(str);\n    }\n\n    /**\n        @dev Convert credentialState into string\n        @param _status credentialState to convert\n    */\n    function postStatusToString(\n        postStatus _status\n    ) private pure returns (string memory state) {\n        if (_status == postStatus.VOTING_IN_PROGRESS) {\n            return \"VOTING IN PROGRESS\";\n        } else if (_status == postStatus.INVALID) {\n            return \"INVALID\";\n        } else if (_status == postStatus.VERIFIED) {\n            return \"VERIFIED\";\n        } else if (_status == postStatus.DELETED) {\n            return \"DELETED\";\n        }\n    }\n}\n",
  "sourcePath": "/Users/meganyee/Desktop/IS4302-GP2/contracts/Post.sol",
  "compiler": {
    "name": "solc",
    "version": "0.8.0+commit.c7dfd78e.Emscripten.clang"
  },
  "schemaVersion": "3.4.16",
  "updatedAt": "2024-04-21T15:00:17.005Z",
  "networkType": "ethereum",
  "devdoc": {
    "kind": "dev",
    "methods": {},
    "version": 1
  },
  "userdoc": {
    "kind": "user",
    "methods": {},
    "version": 1
  }
}