{
  "contractName": "Post",
  "abi": [
    {
      "inputs": [],
      "name": "nextPostId",
      "outputs": [
        {
          "internalType": "uint256",
          "name": "",
          "type": "uint256"
        }
      ],
      "stateMutability": "view",
      "type": "function",
      "constant": true
    },
    {
      "inputs": [
        {
          "internalType": "uint256",
          "name": "",
          "type": "uint256"
        }
      ],
      "name": "posts",
      "outputs": [
        {
          "internalType": "uint256",
          "name": "id",
          "type": "uint256"
        },
        {
          "internalType": "address",
          "name": "author",
          "type": "address"
        },
        {
          "internalType": "string",
          "name": "content",
          "type": "string"
        },
        {
          "internalType": "uint256",
          "name": "timestamp",
          "type": "uint256"
        }
      ],
      "stateMutability": "view",
      "type": "function",
      "constant": true
    },
    {
      "inputs": [
        {
          "internalType": "string",
          "name": "_content",
          "type": "string"
        }
      ],
      "name": "createPost",
      "outputs": [],
      "stateMutability": "nonpayable",
      "type": "function"
    },
    {
      "inputs": [
        {
          "internalType": "uint256",
          "name": "_postId",
          "type": "uint256"
        }
      ],
      "name": "getPost",
      "outputs": [
        {
          "components": [
            {
              "internalType": "uint256",
              "name": "id",
              "type": "uint256"
            },
            {
              "internalType": "address",
              "name": "author",
              "type": "address"
            },
            {
              "internalType": "string",
              "name": "content",
              "type": "string"
            },
            {
              "internalType": "uint256",
              "name": "timestamp",
              "type": "uint256"
            }
          ],
          "internalType": "struct Post.PostData",
          "name": "",
          "type": "tuple"
        }
      ],
      "stateMutability": "view",
      "type": "function",
      "constant": true
    },
    {
      "inputs": [
        {
          "internalType": "uint256",
          "name": "_postId",
          "type": "uint256"
        }
      ],
      "name": "deletePost",
      "outputs": [],
      "stateMutability": "nonpayable",
      "type": "function"
    }
  ],
  "bytecode": "0x608060405234801561001057600080fd5b50610d50806100206000396000f3fe608060405234801561001057600080fd5b50600436106100575760003560e01c8063094cd5ee1461005c5780630b1e7f831461007857806340731c24146100ab5780635c09bd98146100db578063c7303c61146100f9575b600080fd5b61007660048036038101906100719190610835565b610115565b005b610092600480360381019061008d9190610835565b6102ca565b6040516100a29493929190610a92565b60405180910390f35b6100c560048036038101906100c09190610835565b6103b2565b6040516100d29190610a55565b60405180910390f35b6100e3610557565b6040516100f09190610a77565b60405180910390f35b610113600480360381019061010e91906107f4565b61055d565b005b600080549050811061015c576040517f08c379a000000000000000000000000000000000000000000000000000000000815260040161015390610a35565b60405180910390fd5b3373ffffffffffffffffffffffffffffffffffffffff16600082815481106101ad577f4e487b7100000000000000000000000000000000000000000000000000000000600052603260045260246000fd5b906000526020600020906004020160010160009054906101000a900473ffffffffffffffffffffffffffffffffffffffff1673ffffffffffffffffffffffffffffffffffffffff1614610235576040517f08c379a000000000000000000000000000000000000000000000000000000000815260040161022c90610a15565b60405180910390fd5b6000818154811061026f577f4e487b7100000000000000000000000000000000000000000000000000000000600052603260045260246000fd5b90600052602060002090600402016000808201600090556001820160006101000a81549073ffffffffffffffffffffffffffffffffffffffff02191690556002820160006102bd9190610656565b6003820160009055505050565b600081815481106102da57600080fd5b90600052602060002090600402016000915090508060000154908060010160009054906101000a900473ffffffffffffffffffffffffffffffffffffffff169080600201805461032990610bea565b80601f016020809104026020016040519081016040528092919081815260200182805461035590610bea565b80156103a25780601f10610377576101008083540402835291602001916103a2565b820191906000526020600020905b81548152906001019060200180831161038557829003601f168201915b5050505050908060030154905084565b6103ba610696565b6000805490508210610401576040517f08c379a00000000000000000000000000000000000000000000000000000000081526004016103f890610a35565b60405180910390fd5b6000828154811061043b577f4e487b7100000000000000000000000000000000000000000000000000000000600052603260045260246000fd5b9060005260206000209060040201604051806080016040529081600082015481526020016001820160009054906101000a900473ffffffffffffffffffffffffffffffffffffffff1673ffffffffffffffffffffffffffffffffffffffff1673ffffffffffffffffffffffffffffffffffffffff1681526020016002820180546104c490610bea565b80601f01602080910402602001604051908101604052809291908181526020018280546104f090610bea565b801561053d5780601f106105125761010080835404028352916020019161053d565b820191906000526020600020905b81548152906001019060200180831161052057829003601f168201915b505050505081526020016003820154815250509050919050565b60015481565b6000604051806080016040528060015481526020013373ffffffffffffffffffffffffffffffffffffffff1681526020018381526020014281525090806001815401808255809150506001900390600052602060002090600402016000909190919091506000820151816000015560208201518160010160006101000a81548173ffffffffffffffffffffffffffffffffffffffff021916908373ffffffffffffffffffffffffffffffffffffffff160217905550604082015181600201908051906020019061062e9291906106d4565b506060820151816003015550506001600081548092919061064e90610c1c565b919050555050565b50805461066290610bea565b6000825580601f106106745750610693565b601f016020900490600052602060002090810190610692919061075a565b5b50565b604051806080016040528060008152602001600073ffffffffffffffffffffffffffffffffffffffff16815260200160608152602001600081525090565b8280546106e090610bea565b90600052602060002090601f0160209004810192826107025760008555610749565b82601f1061071b57805160ff1916838001178555610749565b82800160010185558215610749579182015b8281111561074857825182559160200191906001019061072d565b5b509050610756919061075a565b5090565b5b8082111561077357600081600090555060010161075b565b5090565b600061078a61078584610b0f565b610ade565b9050828152602081018484840111156107a257600080fd5b6107ad848285610ba8565b509392505050565b600082601f8301126107c657600080fd5b81356107d6848260208601610777565b91505092915050565b6000813590506107ee81610d03565b92915050565b60006020828403121561080657600080fd5b600082013567ffffffffffffffff81111561082057600080fd5b61082c848285016107b5565b91505092915050565b60006020828403121561084757600080fd5b6000610855848285016107df565b91505092915050565b61086781610b6c565b82525050565b61087681610b6c565b82525050565b600061088782610b3f565b6108918185610b4a565b93506108a1818560208601610bb7565b6108aa81610cf2565b840191505092915050565b60006108c082610b3f565b6108ca8185610b5b565b93506108da818560208601610bb7565b6108e381610cf2565b840191505092915050565b60006108fb602683610b5b565b91507f4f6e6c792074686520617574686f722063616e2064656c65746520746865697260008301527f20706f73742e00000000000000000000000000000000000000000000000000006020830152604082019050919050565b6000610961601483610b5b565b91507f506f737420646f6573206e6f742065786973742e0000000000000000000000006000830152602082019050919050565b60006080830160008301516109ac60008601826109f7565b5060208301516109bf602086018261085e565b50604083015184820360408601526109d7828261087c565b91505060608301516109ec60608601826109f7565b508091505092915050565b610a0081610b9e565b82525050565b610a0f81610b9e565b82525050565b60006020820190508181036000830152610a2e816108ee565b9050919050565b60006020820190508181036000830152610a4e81610954565b9050919050565b60006020820190508181036000830152610a6f8184610994565b905092915050565b6000602082019050610a8c6000830184610a06565b92915050565b6000608082019050610aa76000830187610a06565b610ab4602083018661086d565b8181036040830152610ac681856108b5565b9050610ad56060830184610a06565b95945050505050565b6000604051905081810181811067ffffffffffffffff82111715610b0557610b04610cc3565b5b8060405250919050565b600067ffffffffffffffff821115610b2a57610b29610cc3565b5b601f19601f8301169050602081019050919050565b600081519050919050565b600082825260208201905092915050565b600082825260208201905092915050565b6000610b7782610b7e565b9050919050565b600073ffffffffffffffffffffffffffffffffffffffff82169050919050565b6000819050919050565b82818337600083830152505050565b60005b83811015610bd5578082015181840152602081019050610bba565b83811115610be4576000848401525b50505050565b60006002820490506001821680610c0257607f821691505b60208210811415610c1657610c15610c94565b5b50919050565b6000610c2782610b9e565b91507fffffffffffffffffffffffffffffffffffffffffffffffffffffffffffffffff821415610c5a57610c59610c65565b5b600182019050919050565b7f4e487b7100000000000000000000000000000000000000000000000000000000600052601160045260246000fd5b7f4e487b7100000000000000000000000000000000000000000000000000000000600052602260045260246000fd5b7f4e487b7100000000000000000000000000000000000000000000000000000000600052604160045260246000fd5b6000601f19601f8301169050919050565b610d0c81610b9e565b8114610d1757600080fd5b5056fea2646970667358221220cc7073b9d3a1b1ed6e9ab0a9e3e402ea3decf95a5b4722da6d29a84e86d7f38764736f6c63430008000033",
  "immutableReferences": {},
  "source": "// SPDX-License-Identifier: MIT\npragma solidity ^0.8.0;\n\ncontract Post {\n    struct PostData {\n        uint id;\n        address author;\n        string content;\n        uint timestamp;\n    }\n\n    PostData[] public posts;\n    uint public nextPostId;\n\n    function createPost(string memory _content) public {\n        posts.push(PostData(nextPostId, msg.sender, _content, block.timestamp));\n        nextPostId++;\n    }\n\n    function getPost(uint _postId) public view returns (PostData memory) {\n        require(_postId < posts.length, \"Post does not exist.\");\n        return posts[_postId];\n    }\n\n    function deletePost(uint _postId) public {\n        require(_postId < posts.length, \"Post does not exist.\");\n        require(posts[_postId].author == msg.sender, \"Only the author can delete their post.\");\n        delete posts[_postId];\n    }\n}\n",
  "sourcePath": "/Users/GuoJun/Documents/NUS/Y4S2/IS4302/IS4302-GP2/contracts/Post.sol",
  "compiler": {
    "name": "solc",
    "version": "0.8.0+commit.c7dfd78e.Emscripten.clang"
  },
  "schemaVersion": "3.4.16",
  "updatedAt": "2024-04-10T05:38:18.378Z",
  "networkType": "ethereum",
  "devdoc": {
    "kind": "dev",
    "methods": {},
    "version": 1
  },
  "userdoc": {
    "kind": "user",
    "methods": {},
    "version": 1
  }
}