{
  "contractName": "Post",
  "abi": [
    {
      "anonymous": false,
      "inputs": [
        {
          "indexed": false,
          "internalType": "uint256",
          "name": "postId",
          "type": "uint256"
        },
        {
          "indexed": false,
          "internalType": "address",
          "name": "createdBy",
          "type": "address"
        },
        {
          "indexed": false,
          "internalType": "string",
          "name": "title",
          "type": "string"
        }
      ],
      "name": "PostAdded",
      "type": "event"
    },
    {
      "anonymous": false,
      "inputs": [
        {
          "indexed": false,
          "internalType": "string",
          "name": "title",
          "type": "string"
        },
        {
          "indexed": false,
          "internalType": "string",
          "name": "content",
          "type": "string"
        }
      ],
      "name": "PostDeleted",
      "type": "event"
    },
    {
      "inputs": [],
      "name": "numPosts",
      "outputs": [
        {
          "internalType": "uint256",
          "name": "",
          "type": "uint256"
        }
      ],
      "stateMutability": "view",
      "type": "function",
      "constant": true
    },
    {
      "inputs": [
        {
          "internalType": "uint256",
          "name": "",
          "type": "uint256"
        }
      ],
      "name": "posts",
      "outputs": [
        {
          "internalType": "string",
          "name": "title",
          "type": "string"
        },
        {
          "internalType": "string",
          "name": "content",
          "type": "string"
        },
        {
          "internalType": "enum Post.postStatus",
          "name": "status",
          "type": "uint8"
        },
        {
          "internalType": "uint256",
          "name": "createdAt",
          "type": "uint256"
        },
        {
          "internalType": "address",
          "name": "createdBy",
          "type": "address"
        }
      ],
      "stateMutability": "view",
      "type": "function",
      "constant": true
    },
    {
      "inputs": [
        {
          "internalType": "string",
          "name": "title",
          "type": "string"
        },
        {
          "internalType": "string",
          "name": "content",
          "type": "string"
        }
      ],
      "name": "addPost",
      "outputs": [
        {
          "internalType": "uint256",
          "name": "postId",
          "type": "uint256"
        }
      ],
      "stateMutability": "nonpayable",
      "type": "function"
    },
    {
      "inputs": [],
      "name": "viewAllPosts",
      "outputs": [
        {
          "internalType": "string",
          "name": "_posts",
          "type": "string"
        }
      ],
      "stateMutability": "view",
      "type": "function",
      "constant": true
    },
    {
      "inputs": [
        {
          "internalType": "uint256",
          "name": "postId",
          "type": "uint256"
        }
      ],
      "name": "viewPostById",
      "outputs": [
        {
          "internalType": "string",
          "name": "_post",
          "type": "string"
        }
      ],
      "stateMutability": "view",
      "type": "function",
      "constant": true
    },
    {
      "inputs": [
        {
          "internalType": "address",
          "name": "userAddress",
          "type": "address"
        }
      ],
      "name": "viewPostsByUserAddress",
      "outputs": [
        {
          "internalType": "string",
          "name": "_posts",
          "type": "string"
        }
      ],
      "stateMutability": "view",
      "type": "function",
      "constant": true
    },
    {
      "inputs": [
        {
          "internalType": "uint256",
          "name": "postId",
          "type": "uint256"
        }
      ],
      "name": "deletePost",
      "outputs": [],
      "stateMutability": "nonpayable",
      "type": "function"
    },
    {
      "inputs": [
        {
          "internalType": "uint256",
          "name": "postId",
          "type": "uint256"
        }
      ],
      "name": "getPostTitle",
      "outputs": [
        {
          "internalType": "string",
          "name": "",
          "type": "string"
        }
      ],
      "stateMutability": "view",
      "type": "function",
      "constant": true
    },
    {
      "inputs": [
        {
          "internalType": "uint256",
          "name": "postId",
          "type": "uint256"
        }
      ],
      "name": "getPostContent",
      "outputs": [
        {
          "internalType": "string",
          "name": "",
          "type": "string"
        }
      ],
      "stateMutability": "view",
      "type": "function",
      "constant": true
    },
    {
      "inputs": [
        {
          "internalType": "uint256",
          "name": "postId",
          "type": "uint256"
        }
      ],
      "name": "getPostCreatedAt",
      "outputs": [
        {
          "internalType": "uint256",
          "name": "",
          "type": "uint256"
        }
      ],
      "stateMutability": "view",
      "type": "function",
      "constant": true
    },
    {
      "inputs": [
        {
          "internalType": "uint256",
          "name": "postId",
          "type": "uint256"
        }
      ],
      "name": "getPostCreatedBy",
      "outputs": [
        {
          "internalType": "address",
          "name": "",
          "type": "address"
        }
      ],
      "stateMutability": "view",
      "type": "function",
      "constant": true
    }
  ],
  "bytecode": "0x60806040526000805534801561001457600080fd5b50612291806100246000396000f3fe608060405234801561001057600080fd5b50600436106100a95760003560e01c8063722a0d8f11610071578063722a0d8f1461017c578063791ccf08146101ac578063b02c6516146101dc578063b519421f1461020c578063ec7331e91461023c578063fa0b19b41461025a576100a9565b8063094cd5ee146100ae5780630b1e7f83146100ca578063314128c0146100fe578063534f425f1461012e5780635bc05cd71461014c575b600080fd5b6100c860048036038101906100c39190611735565b61028a565b005b6100e460048036038101906100df9190611735565b610441565b6040516100f5959493929190611cbe565b60405180910390f35b61011860048036038101906101139190611735565b6105b4565b6040516101259190611c9c565b60405180910390f35b6101366106a2565b6040516101439190611c9c565b60405180910390f35b61016660048036038101906101619190611735565b61079a565b6040516101739190611dd6565b60405180910390f35b61019660048036038101906101919190611735565b610800565b6040516101a39190611c9c565b60405180910390f35b6101c660048036038101906101c19190611735565b610858565b6040516101d39190611c9c565b60405180910390f35b6101f660048036038101906101f191906116c9565b610946565b6040516102039190611dd6565b60405180910390f35b610226600480360381019061022191906116a0565b610ba4565b6040516102339190611c9c565b60405180910390f35b610244610d24565b6040516102519190611dd6565b60405180910390f35b610274600480360381019061026f9190611735565b610d2a565b6040516102819190611c81565b60405180910390f35b8060005481106102cf576040517f08c379a00000000000000000000000000000000000000000000000000000000081526004016102c690611d56565b60405180910390fd5b600060016000848152602001908152602001600020905060038081111561031f577f4e487b7100000000000000000000000000000000000000000000000000000000600052602160045260246000fd5b8160020160009054906101000a900460ff166003811115610369577f4e487b7100000000000000000000000000000000000000000000000000000000600052602160045260246000fd5b14156103aa576040517f08c379a00000000000000000000000000000000000000000000000000000000081526004016103a190611d96565b60405180910390fd5b60038160020160006101000a81548160ff021916908360038111156103f8577f4e487b7100000000000000000000000000000000000000000000000000000000600052602160045260246000fd5b02179055507f9864283e04be3fa2e40385b361dc08a835de0184468627a039f4a3fcac1b72008160000182600101604051610434929190611d1f565b60405180910390a1505050565b600160205280600052604060002060009150905080600001805461046490612040565b80601f016020809104026020016040519081016040528092919081815260200182805461049090612040565b80156104dd5780601f106104b2576101008083540402835291602001916104dd565b820191906000526020600020905b8154815290600101906020018083116104c057829003601f168201915b5050505050908060010180546104f290612040565b80601f016020809104026020016040519081016040528092919081815260200182805461051e90612040565b801561056b5780601f106105405761010080835404028352916020019161056b565b820191906000526020600020905b81548152906001019060200180831161054e57829003601f168201915b5050505050908060020160009054906101000a900460ff16908060030154908060040160009054906101000a900473ffffffffffffffffffffffffffffffffffffffff16905085565b60608160005481106105fb576040517f08c379a00000000000000000000000000000000000000000000000000000000081526004016105f290611d56565b60405180910390fd5b60016000848152602001908152602001600020600101805461061c90612040565b80601f016020809104026020016040519081016040528092919081815260200182805461064890612040565b80156106955780601f1061066a57610100808354040283529160200191610695565b820191906000526020600020905b81548152906001019060200180831161067857829003601f168201915b5050505050915050919050565b60606000805467ffffffffffffffff8111156106e7577f4e487b7100000000000000000000000000000000000000000000000000000000600052604160045260246000fd5b60405190808252806020026020018201604052801561071a57816020015b60608152602001906001900390816107055790505b50905060005b60005481101561078a5761073381610db0565b82828151811061076c577f4e487b7100000000000000000000000000000000000000000000000000000000600052603260045260246000fd5b6020026020010181905250808061078290612072565b915050610720565b506107948161103d565b91505090565b60008160005481106107e1576040517f08c379a00000000000000000000000000000000000000000000000000000000081526004016107d890611d56565b60405180910390fd5b6001600084815260200190815260200160002060030154915050919050565b6060816000548110610847576040517f08c379a000000000000000000000000000000000000000000000000000000000815260040161083e90611d56565b60405180910390fd5b61085083610db0565b915050919050565b606081600054811061089f576040517f08c379a000000000000000000000000000000000000000000000000000000000815260040161089690611d56565b60405180910390fd5b6001600084815260200190815260200160002060000180546108c090612040565b80601f01602080910402602001604051908101604052809291908181526020018280546108ec90612040565b80156109395780601f1061090e57610100808354040283529160200191610939565b820191906000526020600020905b81548152906001019060200180831161091c57829003601f168201915b5050505050915050919050565b60008083511161098b576040517f08c379a000000000000000000000000000000000000000000000000000000000815260040161098290611db6565b60405180910390fd5b60008251116109cf576040517f08c379a00000000000000000000000000000000000000000000000000000000081526004016109c690611d76565b60405180910390fd5b60006040518060a0016040528085815260200184815260200160006003811115610a22577f4e487b7100000000000000000000000000000000000000000000000000000000600052602160045260246000fd5b81526020014281526020013373ffffffffffffffffffffffffffffffffffffffff16815250905060008054905081600160008381526020019081526020016000206000820151816000019080519060200190610a7f92919061156b565b506020820151816001019080519060200190610a9c92919061156b565b5060408201518160020160006101000a81548160ff02191690836003811115610aee577f4e487b7100000000000000000000000000000000000000000000000000000000600052602160045260246000fd5b02179055506060820151816003015560808201518160040160006101000a81548173ffffffffffffffffffffffffffffffffffffffff021916908373ffffffffffffffffffffffffffffffffffffffff160217905550905050600080815480929190610b5990612072565b91905055507f06faa5d8b2c429af8567bbb8365d36256267bbe96472cf76b76cc643489c0225813387604051610b9193929190611df1565b60405180910390a1809250505092915050565b60606000805467ffffffffffffffff811115610be9577f4e487b7100000000000000000000000000000000000000000000000000000000600052604160045260246000fd5b604051908082528060200260200182016040528015610c1c57816020015b6060815260200190600190039081610c075790505b5090506000805b600054811015610d11578473ffffffffffffffffffffffffffffffffffffffff166001600083815260200190815260200160002060040160009054906101000a900473ffffffffffffffffffffffffffffffffffffffff1673ffffffffffffffffffffffffffffffffffffffff161415610cf357610ca081610db0565b838381518110610cd9577f4e487b7100000000000000000000000000000000000000000000000000000000600052603260045260246000fd5b60200260200101819052508180610cef90612072565b9250505b610cfc8361103d565b93508080610d0990612072565b915050610c23565b50610d1b8261103d565b92505050919050565b60005481565b6000816000548110610d71576040517f08c379a0000000000000000000000000000000000000000000000000000000008152600401610d6890611d56565b60405180910390fd5b6001600084815260200190815260200160002060040160009054906101000a900473ffffffffffffffffffffffffffffffffffffffff16915050919050565b60606000600160008481526020019081526020016000206040518060a0016040529081600082018054610de290612040565b80601f0160208091040260200160405190810160405280929190818152602001828054610e0e90612040565b8015610e5b5780601f10610e3057610100808354040283529160200191610e5b565b820191906000526020600020905b815481529060010190602001808311610e3e57829003601f168201915b50505050508152602001600182018054610e7490612040565b80601f0160208091040260200160405190810160405280929190818152602001828054610ea090612040565b8015610eed5780601f10610ec257610100808354040283529160200191610eed565b820191906000526020600020905b815481529060010190602001808311610ed057829003601f168201915b505050505081526020016002820160009054906101000a900460ff166003811115610f41577f4e487b7100000000000000000000000000000000000000000000000000000000600052602160045260246000fd5b6003811115610f79577f4e487b7100000000000000000000000000000000000000000000000000000000600052602160045260246000fd5b8152602001600382015481526020016004820160009054906101000a900473ffffffffffffffffffffffffffffffffffffffff1673ffffffffffffffffffffffffffffffffffffffff1673ffffffffffffffffffffffffffffffffffffffff16815250509050610fe8836110cd565b81600001518260200151610fff846040015161128c565b61100c85606001516110cd565b856080015160405160200161102696959493929190611ba1565b604051602081830303815290604052915050919050565b60608060005b83518110156110c35781848281518110611086577f4e487b7100000000000000000000000000000000000000000000000000000000600052603260045260246000fd5b602002602001015160405160200161109f929190611b7d565b604051602081830303815290604052915080806110bb90612072565b915050611043565b5080915050919050565b60606000821415611115576040518060400160405280600181526020017f30000000000000000000000000000000000000000000000000000000000000008152509050611287565b600082905060005b6000821461114757808061113090612072565b915050600a826111409190611f38565b915061111d565b60008167ffffffffffffffff811115611189577f4e487b7100000000000000000000000000000000000000000000000000000000600052604160045260246000fd5b6040519080825280601f01601f1916602001820160405280156111bb5781602001600182028036833780820191505090505b50905060008290505b6000861461127f576001816111d99190611f69565b90506000600a876111ea91906120df565b60306111f69190611ee2565b905060008160f81b90508084848151811061123a577f4e487b7100000000000000000000000000000000000000000000000000000000600052603260045260246000fd5b60200101907effffffffffffffffffffffffffffffffffffffffffffffffffffffffffffff1916908160001a905350600a886112769190611f38565b975050506111c4565b819450505050505b919050565b6060600060038111156112c8577f4e487b7100000000000000000000000000000000000000000000000000000000600052602160045260246000fd5b826003811115611301577f4e487b7100000000000000000000000000000000000000000000000000000000600052602160045260246000fd5b1415611344576040518060400160405280601281526020017f564f54494e475f494e5f50524f475245535300000000000000000000000000008152509050611566565b6001600381111561137e577f4e487b7100000000000000000000000000000000000000000000000000000000600052602160045260246000fd5b8260038111156113b7577f4e487b7100000000000000000000000000000000000000000000000000000000600052602160045260246000fd5b14156113fa576040518060400160405280600781526020017f494e56414c4944000000000000000000000000000000000000000000000000008152509050611566565b60026003811115611434577f4e487b7100000000000000000000000000000000000000000000000000000000600052602160045260246000fd5b82600381111561146d577f4e487b7100000000000000000000000000000000000000000000000000000000600052602160045260246000fd5b14156114b0576040518060400160405280600881526020017f56455249464945440000000000000000000000000000000000000000000000008152509050611566565b6003808111156114e9577f4e487b7100000000000000000000000000000000000000000000000000000000600052602160045260246000fd5b826003811115611522577f4e487b7100000000000000000000000000000000000000000000000000000000600052602160045260246000fd5b1415611565576040518060400160405280600781526020017f44454c45544544000000000000000000000000000000000000000000000000008152509050611566565b5b919050565b82805461157790612040565b90600052602060002090601f01602090048101928261159957600085556115e0565b82601f106115b257805160ff19168380011785556115e0565b828001600101855582156115e0579182015b828111156115df5782518255916020019190600101906115c4565b5b5090506115ed91906115f1565b5090565b5b8082111561160a5760008160009055506001016115f2565b5090565b600061162161161c84611e60565b611e2f565b90508281526020810184848401111561163957600080fd5b611644848285611ffe565b509392505050565b60008135905061165b8161222d565b92915050565b600082601f83011261167257600080fd5b813561168284826020860161160e565b91505092915050565b60008135905061169a81612244565b92915050565b6000602082840312156116b257600080fd5b60006116c08482850161164c565b91505092915050565b600080604083850312156116dc57600080fd5b600083013567ffffffffffffffff8111156116f657600080fd5b61170285828601611661565b925050602083013567ffffffffffffffff81111561171f57600080fd5b61172b85828601611661565b9150509250929050565b60006020828403121561174757600080fd5b60006117558482850161168b565b91505092915050565b61176781611f9d565b82525050565b61177e61177982611f9d565b6120bb565b82525050565b600061178f82611ea5565b6117998185611ebb565b93506117a981856020860161200d565b80840191505092915050565b6117be81611fec565b82525050565b60006117cf82611eb0565b6117d98185611ec6565b93506117e981856020860161200d565b6117f2816121fb565b840191505092915050565b600061180882611eb0565b6118128185611ed7565b935061182281856020860161200d565b80840191505092915050565b6000815461183b81612040565b6118458186611ec6565b945060018216600081146118605760018114611872576118a5565b60ff19831686526020860193506118a5565b61187b85611e90565b60005b8381101561189d5781548189015260018201915060208101905061187e565b808801955050505b50505092915050565b60006118bb600183611ed7565b91507f0a000000000000000000000000000000000000000000000000000000000000006000830152600182019050919050565b60006118fb600983611ed7565b91507f436f6e74656e743a2000000000000000000000000000000000000000000000006000830152600982019050919050565b600061193b601883611ec6565b91507f54686520706f7374206964206973206e6f742076616c696400000000000000006000830152602082019050919050565b600061197b601c83611ec6565b91507f506f737420636f6e74656e742063616e6e6f7420626520656d707479000000006000830152602082019050919050565b60006119bb600483611ed7565b91507f49443a20000000000000000000000000000000000000000000000000000000006000830152600482019050919050565b60006119fb600883611ed7565b91507f5374617475733a200000000000000000000000000000000000000000000000006000830152600882019050919050565b6000611a3b601d83611ec6565b91507f506f73742068617320616c7265616479206265656e2064656c657465640000006000830152602082019050919050565b6000611a7b600c83611ed7565b91507f437265617465642042793a2000000000000000000000000000000000000000006000830152600c82019050919050565b6000611abb601a83611ec6565b91507f506f7374207469746c652063616e6e6f7420626520656d7074790000000000006000830152602082019050919050565b6000611afb600c83611ed7565b91507f437265617465642041743a2000000000000000000000000000000000000000006000830152600c82019050919050565b6000611b3b600783611ed7565b91507f5469746c653a20000000000000000000000000000000000000000000000000006000830152600782019050919050565b611b7781611fe2565b82525050565b6000611b898285611784565b9150611b9582846117fd565b91508190509392505050565b6000611bac826119ae565b9150611bb882896117fd565b9150611bc3826118ae565b9150611bce82611b2e565b9150611bda82886117fd565b9150611be5826118ae565b9150611bf0826118ee565b9150611bfc82876117fd565b9150611c07826118ae565b9150611c12826119ee565b9150611c1e82866117fd565b9150611c29826118ae565b9150611c3482611aee565b9150611c4082856117fd565b9150611c4b826118ae565b9150611c5682611a6e565b9150611c62828461176d565b601482019150611c71826118ae565b9150819050979650505050505050565b6000602082019050611c96600083018461175e565b92915050565b60006020820190508181036000830152611cb681846117c4565b905092915050565b600060a0820190508181036000830152611cd881886117c4565b90508181036020830152611cec81876117c4565b9050611cfb60408301866117b5565b611d086060830185611b6e565b611d15608083018461175e565b9695505050505050565b60006040820190508181036000830152611d39818561182e565b90508181036020830152611d4d818461182e565b90509392505050565b60006020820190508181036000830152611d6f8161192e565b9050919050565b60006020820190508181036000830152611d8f8161196e565b9050919050565b60006020820190508181036000830152611daf81611a2e565b9050919050565b60006020820190508181036000830152611dcf81611aae565b9050919050565b6000602082019050611deb6000830184611b6e565b92915050565b6000606082019050611e066000830186611b6e565b611e13602083018561175e565b8181036040830152611e2581846117c4565b9050949350505050565b6000604051905081810181811067ffffffffffffffff82111715611e5657611e556121cc565b5b8060405250919050565b600067ffffffffffffffff821115611e7b57611e7a6121cc565b5b601f19601f8301169050602081019050919050565b60008190508160005260206000209050919050565b600081519050919050565b600081519050919050565b600081905092915050565b600082825260208201905092915050565b600081905092915050565b6000611eed82611fe2565b9150611ef883611fe2565b9250827fffffffffffffffffffffffffffffffffffffffffffffffffffffffffffffffff03821115611f2d57611f2c612110565b5b828201905092915050565b6000611f4382611fe2565b9150611f4e83611fe2565b925082611f5e57611f5d61213f565b5b828204905092915050565b6000611f7482611fe2565b9150611f7f83611fe2565b925082821015611f9257611f91612110565b5b828203905092915050565b6000611fa882611fc2565b9050919050565b6000819050611fbd82612219565b919050565b600073ffffffffffffffffffffffffffffffffffffffff82169050919050565b6000819050919050565b6000611ff782611faf565b9050919050565b82818337600083830152505050565b60005b8381101561202b578082015181840152602081019050612010565b8381111561203a576000848401525b50505050565b6000600282049050600182168061205857607f821691505b6020821081141561206c5761206b61219d565b5b50919050565b600061207d82611fe2565b91507fffffffffffffffffffffffffffffffffffffffffffffffffffffffffffffffff8214156120b0576120af612110565b5b600182019050919050565b60006120c6826120cd565b9050919050565b60006120d88261220c565b9050919050565b60006120ea82611fe2565b91506120f583611fe2565b9250826121055761210461213f565b5b828206905092915050565b7f4e487b7100000000000000000000000000000000000000000000000000000000600052601160045260246000fd5b7f4e487b7100000000000000000000000000000000000000000000000000000000600052601260045260246000fd5b7f4e487b7100000000000000000000000000000000000000000000000000000000600052602160045260246000fd5b7f4e487b7100000000000000000000000000000000000000000000000000000000600052602260045260246000fd5b7f4e487b7100000000000000000000000000000000000000000000000000000000600052604160045260246000fd5b6000601f19601f8301169050919050565b60008160601b9050919050565b6004811061222a5761222961216e565b5b50565b61223681611f9d565b811461224157600080fd5b50565b61224d81611fe2565b811461225857600080fd5b5056fea2646970667358221220e5f2a71c0296b0d30cef933e29b631eb6b79392d11c5373c31c85a9a223f136764736f6c63430008000033",
  "immutableReferences": {},
  "source": "// SPDX-License-Identifier: MIT\npragma solidity ^0.8.0;\npragma experimental ABIEncoderV2;\n\ncontract Post {\n    enum postStatus { VOTING_IN_PROGRESS, INVALID, VERIFIED, DELETED }\n\n    struct post {\n        string title;\n        string content;\n        postStatus status;\n        uint256 createdAt;\n        address createdBy;\n    }\n\n    uint256 public numPosts = 0;\n\n    mapping(uint256 => post) public posts;\n\n    event PostAdded(uint256 postId, address createdBy, string title);\n    event PostDeleted(string title, string content);\n\n    modifier validPostId(uint256 postId) {\n        require(postId < numPosts, \"The post id is not valid\");\n        _;\n    }\n\n    function addPost(string memory title, string memory content) public returns (uint256 postId) {\n        require(bytes(title).length > 0, \"Post title cannot be empty\");\n        require(bytes(content).length > 0, \"Post content cannot be empty\");\n\n        post memory newPost = post(\n            title,\n            content,\n            postStatus.VOTING_IN_PROGRESS,\n            block.timestamp,\n            msg.sender\n        );\n\n        uint256 newPostId = numPosts;\n        posts[newPostId] = newPost;\n        numPosts++;\n\n        // add logic for verification voting\n        \n        emit PostAdded(newPostId, msg.sender, title);\n\n        return newPostId;\n    }\n\n    function viewAllPosts() public view returns (string memory _posts) {\n        string[] memory allPosts = new string[](numPosts);\n\n        for (uint256 i = 0; i < numPosts; i++) {\n            allPosts[i] = encodePostToString(i);\n        }\n\n        _posts = concat(allPosts);\n    }\n\n    function viewPostById(uint256 postId) public view validPostId(postId) returns (string memory _post) {\n        _post = encodePostToString(postId);\n    }\n\n    function viewPostsByUserAddress(address userAddress) public view returns (string memory _posts) {\n        string[] memory userPosts = new string[](numPosts);\n        uint256 userPostCount = 0;\n\n        for (uint256 i = 0; i < numPosts; i++) {\n            if (posts[i].createdBy == userAddress) {\n                userPosts[userPostCount] = encodePostToString(i);\n                userPostCount++;\n            }\n        \n        _posts = concat(userPosts);\n    }\n\n    return concat(userPosts);    }\n\n    function deletePost(uint256 postId) public validPostId(postId) {\n        post storage postToBeDeleted = posts[postId];\n\n        require(postToBeDeleted.status != postStatus.DELETED, \"Post has already been deleted\");\n\n        postToBeDeleted.status = postStatus.DELETED;\n\n        emit PostDeleted(postToBeDeleted.title, postToBeDeleted.content);\n    }\n\n    /* Getter Functions */\n\n    function getPostTitle(uint256 postId) public view validPostId(postId) returns (string memory) {\n        return posts[postId].title;\n    }\n\n    function getPostContent(uint256 postId) public view validPostId(postId) returns (string memory) {\n        return posts[postId].content;\n    }\n\n    function getPostCreatedAt(uint256 postId) public view validPostId(postId) returns (uint256) {\n        return posts[postId].createdAt;\n    }\n\n    function getPostCreatedBy(uint256 postId) public view validPostId(postId) returns (address) {\n        return posts[postId].createdBy;\n    }\n\n    /* Helper Functions */\n\n    /**\n        @dev Concat an array of strings into a string\n        @param words The array of strings to concat\n    */\n    function concat(string[] memory words) private pure returns (string memory) {\n        bytes memory output;\n        for (uint256 i = 0; i < words.length; i++) {\n        output = abi.encodePacked(output, words[i]);\n        }\n        return string(output);\n    }\n\n    /**\n        @dev Encode a credential into a formatted string\n        @param postId The id of the credential to encode\n    */\n    function encodePostToString(uint256 postId) private view returns (string memory) {\n        post memory p = posts[postId];\n\n        return string(\n            abi.encodePacked(\n                \"ID: \",\n                uint256ToString(postId),\n                \"\\n\",\n                \"Title: \",\n                p.title,\n                \"\\n\",\n                \"Content: \",\n                p.content,\n                \"\\n\",\n                \"Status: \",\n                postStatusToString(p.status),\n                \"\\n\",\n                \"Created At: \",\n                uint256ToString(p.createdAt),\n                \"\\n\",\n                \"Created By: \",\n                p.createdBy,\n                \"\\n\"\n            )\n        );\n    }\n    \n    /**\n        @dev Convert uint256 into string\n        @param _i uint256 to convert\n    */\n    function uint256ToString(uint256 _i) private pure returns (string memory) {\n        if (_i == 0) {\n            return \"0\";\n        }\n        uint256 j = _i;\n        uint256 length;\n        \n        while (j != 0) {\n            length++;\n            j /= 10;\n        }\n\n        bytes memory bstr = new bytes(length);\n        uint256 k = length;\n        \n        while (_i != 0) {\n            k = k - 1;\n            uint8 temp = uint8(48 + (_i % 10));\n            bytes1 b1 = bytes1(temp);\n            bstr[k] = b1;\n            _i /= 10;\n        }\n\n        return string(bstr);\n    }\n\n    /**\n        @dev Convert address into string\n        @param _address addresss to convert\n    */\n    function addressToString(\n        address _address\n    ) private pure returns (string memory) {\n        bytes32 value = keccak256(abi.encodePacked(_address));\n        bytes memory alphabet = \"0123456789abcdef\";\n        bytes memory str = new bytes(42);\n        str[0] = \"0\";\n        str[1] = \"x\";\n\n        for (uint256 i = 0; i < 20; i++) {\n            str[2 + i * 2] = alphabet[uint8(value[i + 12] >> 4)];\n            str[3 + i * 2] = alphabet[uint8(value[i + 12] & 0x0f)];\n        }\n\n        return string(str);\n    }\n\n    /**\n        @dev Convert credentialState into string\n        @param _status credentialState to convert\n    */\n    function postStatusToString(\n        postStatus _status\n    ) private pure returns (string memory state) {\n        if (_status == postStatus.VOTING_IN_PROGRESS) {\n            return \"VOTING_IN_PROGRESS\";\n        } else if (_status == postStatus.INVALID) {\n            return \"INVALID\";\n        } else if (_status == postStatus.VERIFIED) {\n            return \"VERIFIED\";\n        } else if (_status == postStatus.DELETED) {\n            return \"DELETED\";\n        }\n    }\n}\n",
  "sourcePath": "/Users/GuoJun/Documents/NUS/Y4S2/IS4302/IS4302-GP2/contracts/Post.sol",
  "compiler": {
    "name": "solc",
    "version": "0.8.0+commit.c7dfd78e.Emscripten.clang"
  },
  "schemaVersion": "3.4.16",
  "updatedAt": "2024-04-16T17:24:49.557Z",
  "networkType": "ethereum",
  "devdoc": {
    "kind": "dev",
    "methods": {},
    "version": 1
  },
  "userdoc": {
    "kind": "user",
    "methods": {},
    "version": 1
  }
}