{
  "contractName": "Report",
  "abi": [
    {
      "inputs": [
        {
          "internalType": "contract Post",
          "name": "postContractAddress",
          "type": "address"
        }
      ],
      "stateMutability": "nonpayable",
      "type": "constructor"
    },
    {
      "anonymous": false,
      "inputs": [
        {
          "indexed": false,
          "internalType": "uint256",
          "name": "reportId",
          "type": "uint256"
        },
        {
          "indexed": false,
          "internalType": "uint256",
          "name": "postId",
          "type": "uint256"
        },
        {
          "indexed": false,
          "internalType": "address",
          "name": "reporter",
          "type": "address"
        }
      ],
      "name": "ReportAdded",
      "type": "event"
    },
    {
      "anonymous": false,
      "inputs": [
        {
          "indexed": false,
          "internalType": "uint256",
          "name": "reportId",
          "type": "uint256"
        }
      ],
      "name": "ReportDeleted",
      "type": "event"
    },
    {
      "anonymous": false,
      "inputs": [
        {
          "indexed": false,
          "internalType": "uint256",
          "name": "reportId",
          "type": "uint256"
        },
        {
          "indexed": false,
          "internalType": "enum Report.reportStatus",
          "name": "status",
          "type": "uint8"
        }
      ],
      "name": "ReportUpdated",
      "type": "event"
    },
    {
      "inputs": [],
      "name": "numReports",
      "outputs": [
        {
          "internalType": "uint256",
          "name": "",
          "type": "uint256"
        }
      ],
      "stateMutability": "view",
      "type": "function",
      "constant": true
    },
    {
      "inputs": [
        {
          "internalType": "uint256",
          "name": "",
          "type": "uint256"
        }
      ],
      "name": "reports",
      "outputs": [
        {
          "internalType": "uint256",
          "name": "postId",
          "type": "uint256"
        },
        {
          "internalType": "string",
          "name": "justification",
          "type": "string"
        },
        {
          "internalType": "enum Report.reportStatus",
          "name": "status",
          "type": "uint8"
        },
        {
          "internalType": "uint256",
          "name": "reportedAt",
          "type": "uint256"
        },
        {
          "internalType": "address",
          "name": "reporter",
          "type": "address"
        }
      ],
      "stateMutability": "view",
      "type": "function",
      "constant": true
    },
    {
      "inputs": [
        {
          "internalType": "uint256",
          "name": "postId",
          "type": "uint256"
        },
        {
          "internalType": "string",
          "name": "justification",
          "type": "string"
        }
      ],
      "name": "addReport",
      "outputs": [
        {
          "internalType": "uint256",
          "name": "reportId",
          "type": "uint256"
        }
      ],
      "stateMutability": "payable",
      "type": "function",
      "payable": true
    },
    {
      "inputs": [
        {
          "internalType": "uint256",
          "name": "reportId",
          "type": "uint256"
        },
        {
          "internalType": "enum Report.reportStatus",
          "name": "newStatus",
          "type": "uint8"
        }
      ],
      "name": "updateReport",
      "outputs": [],
      "stateMutability": "nonpayable",
      "type": "function"
    },
    {
      "inputs": [
        {
          "internalType": "uint256",
          "name": "reportId",
          "type": "uint256"
        }
      ],
      "name": "deleteReport",
      "outputs": [],
      "stateMutability": "nonpayable",
      "type": "function"
    },
    {
      "inputs": [
        {
          "internalType": "uint256",
          "name": "reportId",
          "type": "uint256"
        }
      ],
      "name": "getReportPostId",
      "outputs": [
        {
          "internalType": "uint256",
          "name": "",
          "type": "uint256"
        }
      ],
      "stateMutability": "view",
      "type": "function",
      "constant": true
    },
    {
      "inputs": [
        {
          "internalType": "uint256",
          "name": "reportId",
          "type": "uint256"
        }
      ],
      "name": "getReportJustification",
      "outputs": [
        {
          "internalType": "string",
          "name": "",
          "type": "string"
        }
      ],
      "stateMutability": "view",
      "type": "function",
      "constant": true
    },
    {
      "inputs": [
        {
          "internalType": "uint256",
          "name": "reportId",
          "type": "uint256"
        }
      ],
      "name": "getReportReportedAt",
      "outputs": [
        {
          "internalType": "uint256",
          "name": "",
          "type": "uint256"
        }
      ],
      "stateMutability": "view",
      "type": "function",
      "constant": true
    },
    {
      "inputs": [
        {
          "internalType": "uint256",
          "name": "reportId",
          "type": "uint256"
        }
      ],
      "name": "getReportReporter",
      "outputs": [
        {
          "internalType": "address",
          "name": "",
          "type": "address"
        }
      ],
      "stateMutability": "view",
      "type": "function",
      "constant": true
    }
  ],
  "bytecode": "0x608060405260006001553480156200001657600080fd5b50604051620016613803806200166183398181016040528101906200003c91906200009a565b806000806101000a81548173ffffffffffffffffffffffffffffffffffffffff021916908373ffffffffffffffffffffffffffffffffffffffff1602179055505062000128565b60008151905062000094816200010e565b92915050565b600060208284031215620000ad57600080fd5b6000620000bd8482850162000083565b91505092915050565b6000620000d382620000ee565b9050919050565b6000620000e782620000c6565b9050919050565b600073ffffffffffffffffffffffffffffffffffffffff82169050919050565b6200011981620000da565b81146200012557600080fd5b50565b61152980620001386000396000f3fe6080604052600436106100865760003560e01c8063a24ede2611610059578063a24ede2614610157578063a3d8f27f14610182578063aa3eef64146101bf578063b8da299e146101ef578063c942adf71461022c57610086565b80631e2160d11461008b5780631eab9cd7146100b457806369ae3306146100dd5780636f15be8c1461011a575b600080fd5b34801561009757600080fd5b506100b260048036038101906100ad9190610d44565b61026d565b005b3480156100c057600080fd5b506100db60048036038101906100d69190610d96565b6104ae565b005b3480156100e957600080fd5b5061010460048036038101906100ff9190610d44565b610595565b604051610111919061117b565b60405180910390f35b34801561012657600080fd5b50610141600480360381019061013c9190610d44565b6105fb565b60405161014e919061107e565b60405180910390f35b34801561016357600080fd5b5061016c610681565b604051610179919061117b565b60405180910390f35b34801561018e57600080fd5b506101a960048036038101906101a49190610d44565b610687565b6040516101b69190611099565b60405180910390f35b6101d960048036038101906101d49190610dd2565b610775565b6040516101e6919061117b565b60405180910390f35b3480156101fb57600080fd5b5061021660048036038101906102119190610d44565b610aa9565b604051610223919061117b565b60405180910390f35b34801561023857600080fd5b50610253600480360381019061024e9190610d44565b610b0f565b6040516102649594939291906111bf565b60405180910390f35b8060015481106102b2576040517f08c379a00000000000000000000000000000000000000000000000000000000081526004016102a9906110fb565b60405180910390fd5b60006002600084815260200190815260200160002090508060040160009054906101000a900473ffffffffffffffffffffffffffffffffffffffff1673ffffffffffffffffffffffffffffffffffffffff163373ffffffffffffffffffffffffffffffffffffffff161461035b576040517f08c379a0000000000000000000000000000000000000000000000000000000008152600401610352906110bb565b60405180910390fd5b600380811115610394577f4e487b7100000000000000000000000000000000000000000000000000000000600052602160045260246000fd5b8160020160009054906101000a900460ff1660038111156103de577f4e487b7100000000000000000000000000000000000000000000000000000000600052602160045260246000fd5b141561041f576040517f08c379a00000000000000000000000000000000000000000000000000000000081526004016104169061115b565b60405180910390fd5b60038160020160006101000a81548160ff0219169083600381111561046d577f4e487b7100000000000000000000000000000000000000000000000000000000600052602160045260246000fd5b02179055507fc63446f6a3f09f152286ed59c9e80460d70feb0907851e18d99af034d42fe2fb836040516104a1919061117b565b60405180910390a1505050565b8160015481106104f3576040517f08c379a00000000000000000000000000000000000000000000000000000000081526004016104ea906110fb565b60405180910390fd5b816002600085815260200190815260200160002060020160006101000a81548160ff02191690836003811115610552577f4e487b7100000000000000000000000000000000000000000000000000000000600052602160045260246000fd5b02179055507f58b69be6bff441068516ae1c90e7667c0de3f3912ce9f1d17051f573941e93bc8383604051610588929190611196565b60405180910390a1505050565b60008160015481106105dc576040517f08c379a00000000000000000000000000000000000000000000000000000000081526004016105d3906110fb565b60405180910390fd5b6002600084815260200190815260200160002060000154915050919050565b6000816001548110610642576040517f08c379a0000000000000000000000000000000000000000000000000000000008152600401610639906110fb565b60405180910390fd5b6002600084815260200190815260200160002060040160009054906101000a900473ffffffffffffffffffffffffffffffffffffffff16915050919050565b60015481565b60608160015481106106ce576040517f08c379a00000000000000000000000000000000000000000000000000000000081526004016106c5906110fb565b60405180910390fd5b6002600084815260200190815260200160002060010180546106ef90611370565b80601f016020809104026020016040519081016040528092919081815260200182805461071b90611370565b80156107685780601f1061073d57610100808354040283529160200191610768565b820191906000526020600020905b81548152906001019060200180831161074b57829003601f168201915b5050505050915050919050565b60008260008054906101000a900473ffffffffffffffffffffffffffffffffffffffff1673ffffffffffffffffffffffffffffffffffffffff1663ec7331e96040518163ffffffff1660e01b815260040160206040518083038186803b1580156107de57600080fd5b505afa1580156107f2573d6000803e3d6000fd5b505050506040513d601f19601f820116820180604052508101906108169190610d6d565b8110610857576040517f08c379a000000000000000000000000000000000000000000000000000000000815260040161084e906110db565b60405180910390fd5b655af3107a40003410156108a0576040517f08c379a00000000000000000000000000000000000000000000000000000000081526004016108979061111b565b60405180910390fd5b60008351116108e4576040517f08c379a00000000000000000000000000000000000000000000000000000000081526004016108db9061113b565b60405180910390fd5b60006040518060a0016040528086815260200185815260200160016003811115610937577f4e487b7100000000000000000000000000000000000000000000000000000000600052602160045260246000fd5b81526020014281526020013373ffffffffffffffffffffffffffffffffffffffff16815250905060006001549050816002600083815260200190815260200160002060008201518160000155602082015181600101908051906020019061099f929190610bfa565b5060408201518160020160006101000a81548160ff021916908360038111156109f1577f4e487b7100000000000000000000000000000000000000000000000000000000600052602160045260246000fd5b02179055506060820151816003015560808201518160040160006101000a81548173ffffffffffffffffffffffffffffffffffffffff021916908373ffffffffffffffffffffffffffffffffffffffff16021790555090505060016000815480929190610a5d906113a2565b91905055507fcb44e52c761717cec42099819ef4a1a7d9fa50f5514ee43e350a0113489ede47818733604051610a9593929190611219565b60405180910390a180935050505092915050565b6000816001548110610af0576040517f08c379a0000000000000000000000000000000000000000000000000000000008152600401610ae7906110fb565b60405180910390fd5b6002600084815260200190815260200160002060030154915050919050565b6002602052806000526040600020600091509050806000015490806001018054610b3890611370565b80601f0160208091040260200160405190810160405280929190818152602001828054610b6490611370565b8015610bb15780601f10610b8657610100808354040283529160200191610bb1565b820191906000526020600020905b815481529060010190602001808311610b9457829003601f168201915b5050505050908060020160009054906101000a900460ff16908060030154908060040160009054906101000a900473ffffffffffffffffffffffffffffffffffffffff16905085565b828054610c0690611370565b90600052602060002090601f016020900481019282610c285760008555610c6f565b82601f10610c4157805160ff1916838001178555610c6f565b82800160010185558215610c6f579182015b82811115610c6e578251825591602001919060010190610c53565b5b509050610c7c9190610c80565b5090565b5b80821115610c99576000816000905550600101610c81565b5090565b6000610cb0610cab84611281565b611250565b905082815260208101848484011115610cc857600080fd5b610cd384828561132e565b509392505050565b600081359050610cea816114cc565b92915050565b600082601f830112610d0157600080fd5b8135610d11848260208601610c9d565b91505092915050565b600081359050610d29816114dc565b92915050565b600081519050610d3e816114dc565b92915050565b600060208284031215610d5657600080fd5b6000610d6484828501610d1a565b91505092915050565b600060208284031215610d7f57600080fd5b6000610d8d84828501610d2f565b91505092915050565b60008060408385031215610da957600080fd5b6000610db785828601610d1a565b9250506020610dc885828601610cdb565b9150509250929050565b60008060408385031215610de557600080fd5b6000610df385828601610d1a565b925050602083013567ffffffffffffffff811115610e1057600080fd5b610e1c85828601610cf0565b9150509250929050565b610e2f816112cd565b82525050565b610e3e8161131c565b82525050565b6000610e4f826112b1565b610e5981856112bc565b9350610e6981856020860161133d565b610e72816114a7565b840191505092915050565b6000610e8a6025836112bc565b91507f4f6e6c7920746865206f776e65722063616e2064656c6574652074686973207260008301527f65706f72740000000000000000000000000000000000000000000000000000006020830152604082019050919050565b6000610ef06018836112bc565b91507f54686520706f7374206964206973206e6f742076616c696400000000000000006000830152602082019050919050565b6000610f30601a836112bc565b91507f546865207265706f7274206964206973206e6f742076616c69640000000000006000830152602082019050919050565b6000610f706029836112bc565b91507f496e73756666696369656e742065746865722073656e7420666f72206164646960008301527f6e67207265706f727400000000000000000000000000000000000000000000006020830152604082019050919050565b6000610fd66024836112bc565b91507f5265706f7274206a757374696669636174696f6e2063616e6e6f74206265206560008301527f6d707479000000000000000000000000000000000000000000000000000000006020830152604082019050919050565b600061103c601f836112bc565b91507f5265706f72742068617320616c7265616479206265656e2064656c65746564006000830152602082019050919050565b61107881611312565b82525050565b60006020820190506110936000830184610e26565b92915050565b600060208201905081810360008301526110b38184610e44565b905092915050565b600060208201905081810360008301526110d481610e7d565b9050919050565b600060208201905081810360008301526110f481610ee3565b9050919050565b6000602082019050818103600083015261111481610f23565b9050919050565b6000602082019050818103600083015261113481610f63565b9050919050565b6000602082019050818103600083015261115481610fc9565b9050919050565b600060208201905081810360008301526111748161102f565b9050919050565b6000602082019050611190600083018461106f565b92915050565b60006040820190506111ab600083018561106f565b6111b86020830184610e35565b9392505050565b600060a0820190506111d4600083018861106f565b81810360208301526111e68187610e44565b90506111f56040830186610e35565b611202606083018561106f565b61120f6080830184610e26565b9695505050505050565b600060608201905061122e600083018661106f565b61123b602083018561106f565b6112486040830184610e26565b949350505050565b6000604051905081810181811067ffffffffffffffff8211171561127757611276611478565b5b8060405250919050565b600067ffffffffffffffff82111561129c5761129b611478565b5b601f19601f8301169050602081019050919050565b600081519050919050565b600082825260208201905092915050565b60006112d8826112f2565b9050919050565b60008190506112ed826114b8565b919050565b600073ffffffffffffffffffffffffffffffffffffffff82169050919050565b6000819050919050565b6000611327826112df565b9050919050565b82818337600083830152505050565b60005b8381101561135b578082015181840152602081019050611340565b8381111561136a576000848401525b50505050565b6000600282049050600182168061138857607f821691505b6020821081141561139c5761139b611449565b5b50919050565b60006113ad82611312565b91507fffffffffffffffffffffffffffffffffffffffffffffffffffffffffffffffff8214156113e0576113df6113eb565b5b600182019050919050565b7f4e487b7100000000000000000000000000000000000000000000000000000000600052601160045260246000fd5b7f4e487b7100000000000000000000000000000000000000000000000000000000600052602160045260246000fd5b7f4e487b7100000000000000000000000000000000000000000000000000000000600052602260045260246000fd5b7f4e487b7100000000000000000000000000000000000000000000000000000000600052604160045260246000fd5b6000601f19601f8301169050919050565b600481106114c9576114c861141a565b5b50565b600481106114d957600080fd5b50565b6114e581611312565b81146114f057600080fd5b5056fea2646970667358221220c95c9cc336d8c368c332aa88f491c26b2f4ea347b44cd3a2031efd196106d0fb64736f6c63430008000033",
  "immutableReferences": {},
  "source": "// SPDX-License-Identifier: MIT\npragma solidity ^0.8.0;\n\nimport \"./Post.sol\";\n\ncontract Report {\n    enum reportStatus { INVALID, VOTING_IN_PROGRESS, VERIFIED, DELETED }\n\n    struct report {\n        uint256 postId;\n        string justification;\n        reportStatus status;\n        uint256 reportedAt;\n        address reporter;\n    }\n\n    Post postContract;\n\n    constructor(Post postContractAddress) {\n        postContract = postContractAddress;\n    }\n\n    uint256 public numReports = 0;\n\n    mapping(uint256 => report) public reports;\n\n    event ReportAdded(uint256 reportId, uint256 postId, address reporter);\n    event ReportUpdated(uint256 reportId, reportStatus status);\n    event ReportDeleted(uint256 reportId);\n\n    modifier validReportId(uint256 reportId) {\n        require(reportId < numReports, \"The report id is not valid\");\n        _;\n    }\n\n    modifier validPostId(uint256 postId) {\n        require(postId < postContract.numPosts(), \"The post id is not valid\");\n        _;\n    }\n\n    function addReport(uint256 postId, string memory justification) public payable validPostId(postId) returns (uint256 reportId) {\n        require(msg.value >= 100000000000000, \"Insufficient ether sent for adding report\");\n        require(bytes(justification).length > 0, \"Report justification cannot be empty\");\n        \n        report memory newReport = report(\n            postId,\n            justification,\n            reportStatus.VOTING_IN_PROGRESS,\n            block.timestamp,\n            msg.sender\n        );\n  \n        uint256 newReportId = numReports;\n        reports[newReportId] = newReport;\n        numReports++;\n\n        emit ReportAdded(newReportId, postId, msg.sender);\n\n        return newReportId;\n    }\n    \n    function updateReport(uint256 reportId, reportStatus newStatus) public validReportId(reportId) {\n        reports[reportId].status = newStatus;\n        emit ReportUpdated(reportId, newStatus);\n    }\n\n    function deleteReport(uint256 reportId) public validReportId(reportId) {\n        report storage reportToBeDeleted = reports[reportId];\n\n        require(msg.sender == reportToBeDeleted.reporter, \"Only the owner can delete this report\");\n        require(reportToBeDeleted.status != reportStatus.DELETED, \"Report has already been deleted\");\n   \n        reportToBeDeleted.status = reportStatus.DELETED;\n\n        emit ReportDeleted(reportId);\n    }\n\n    /* Getter Functions */\n\n    function getReportPostId(uint256 reportId) public view validReportId(reportId) returns (uint256) {\n        return reports[reportId].postId;\n    }\n\n    function getReportJustification(uint256 reportId) public view validReportId(reportId) returns (string memory) {\n        return reports[reportId].justification;\n    }\n\n    function getReportReportedAt(uint256 reportId) public view validReportId(reportId) returns (uint256) {\n        return reports[reportId].reportedAt;\n    }\n\n    function getReportReporter(uint256 reportId) public view validReportId(reportId) returns (address) {\n        return reports[reportId].reporter;\n    }\n}\n",
  "sourcePath": "/Users/meganyee/Desktop/IS4302-GP2/contracts/Report.sol",
  "compiler": {
    "name": "solc",
    "version": "0.8.0+commit.c7dfd78e.Emscripten.clang"
  },
  "schemaVersion": "3.4.16",
  "updatedAt": "2024-04-21T14:03:10.573Z",
  "networkType": "ethereum",
  "devdoc": {
    "kind": "dev",
    "methods": {},
    "version": 1
  },
  "userdoc": {
    "kind": "user",
    "methods": {},
    "version": 1
  }
}