{
  "contractName": "Report",
  "abi": [
    {
      "anonymous": false,
      "inputs": [
        {
          "indexed": false,
          "internalType": "uint256",
          "name": "reportId",
          "type": "uint256"
        },
        {
          "indexed": false,
          "internalType": "uint256",
          "name": "postId",
          "type": "uint256"
        },
        {
          "indexed": false,
          "internalType": "address",
          "name": "reporter",
          "type": "address"
        }
      ],
      "name": "ReportAdded",
      "type": "event"
    },
    {
      "anonymous": false,
      "inputs": [
        {
          "indexed": false,
          "internalType": "uint256",
          "name": "reportId",
          "type": "uint256"
        },
        {
          "indexed": false,
          "internalType": "enum Report.reportStatus",
          "name": "status",
          "type": "uint8"
        }
      ],
      "name": "ReportUpdated",
      "type": "event"
    },
    {
      "inputs": [],
      "name": "numReports",
      "outputs": [
        {
          "internalType": "uint256",
          "name": "",
          "type": "uint256"
        }
      ],
      "stateMutability": "view",
      "type": "function",
      "constant": true
    },
    {
      "inputs": [],
      "name": "postContract",
      "outputs": [
        {
          "internalType": "contract Post",
          "name": "",
          "type": "address"
        }
      ],
      "stateMutability": "view",
      "type": "function",
      "constant": true
    },
    {
      "inputs": [
        {
          "internalType": "uint256",
          "name": "",
          "type": "uint256"
        }
      ],
      "name": "reports",
      "outputs": [
        {
          "internalType": "uint256",
          "name": "postId",
          "type": "uint256"
        },
        {
          "internalType": "string",
          "name": "justification",
          "type": "string"
        },
        {
          "internalType": "enum Report.reportStatus",
          "name": "status",
          "type": "uint8"
        },
        {
          "internalType": "uint256",
          "name": "reportedAt",
          "type": "uint256"
        },
        {
          "internalType": "address",
          "name": "reporter",
          "type": "address"
        }
      ],
      "stateMutability": "view",
      "type": "function",
      "constant": true
    },
    {
      "inputs": [
        {
          "internalType": "uint256",
          "name": "postId",
          "type": "uint256"
        },
        {
          "internalType": "string",
          "name": "justification",
          "type": "string"
        }
      ],
      "name": "addReport",
      "outputs": [
        {
          "internalType": "uint256",
          "name": "reportId",
          "type": "uint256"
        }
      ],
      "stateMutability": "nonpayable",
      "type": "function"
    },
    {
      "inputs": [
        {
          "internalType": "uint256",
          "name": "reportId",
          "type": "uint256"
        },
        {
          "internalType": "enum Report.reportStatus",
          "name": "newStatus",
          "type": "uint8"
        }
      ],
      "name": "updateReport",
      "outputs": [],
      "stateMutability": "nonpayable",
      "type": "function"
    },
    {
      "inputs": [
        {
          "internalType": "uint256",
          "name": "reportId",
          "type": "uint256"
        }
      ],
      "name": "getReportPostId",
      "outputs": [
        {
          "internalType": "uint256",
          "name": "",
          "type": "uint256"
        }
      ],
      "stateMutability": "view",
      "type": "function",
      "constant": true
    },
    {
      "inputs": [
        {
          "internalType": "uint256",
          "name": "reportId",
          "type": "uint256"
        }
      ],
      "name": "getReportJustification",
      "outputs": [
        {
          "internalType": "string",
          "name": "",
          "type": "string"
        }
      ],
      "stateMutability": "view",
      "type": "function",
      "constant": true
    },
    {
      "inputs": [
        {
          "internalType": "uint256",
          "name": "reportId",
          "type": "uint256"
        }
      ],
      "name": "getReportReportedAt",
      "outputs": [
        {
          "internalType": "uint256",
          "name": "",
          "type": "uint256"
        }
      ],
      "stateMutability": "view",
      "type": "function",
      "constant": true
    },
    {
      "inputs": [
        {
          "internalType": "uint256",
          "name": "reportId",
          "type": "uint256"
        }
      ],
      "name": "getReportReporter",
      "outputs": [
        {
          "internalType": "address",
          "name": "",
          "type": "address"
        }
      ],
      "stateMutability": "view",
      "type": "function",
      "constant": true
    }
  ],
  "bytecode": "0x6080604052600060015534801561001557600080fd5b5061114c806100256000396000f3fe608060405234801561001057600080fd5b50600436106100935760003560e01c8063a24ede2611610066578063a24ede2614610132578063a3d8f27f14610150578063aa3eef6414610180578063b8da299e146101b0578063c942adf7146101e057610093565b80631eab9cd7146100985780634ad65106146100b457806369ae3306146100d25780636f15be8c14610102575b600080fd5b6100b260048036038101906100ad9190610ad7565b610214565b005b6100bc6102fb565b6040516100c99190610cdd565b60405180910390f35b6100ec60048036038101906100e79190610a85565b61031f565b6040516100f99190610d7a565b60405180910390f35b61011c60048036038101906101179190610a85565b610385565b6040516101299190610cc2565b60405180910390f35b61013a61040b565b6040516101479190610d7a565b60405180910390f35b61016a60048036038101906101659190610a85565b610411565b6040516101779190610cf8565b60405180910390f35b61019a60048036038101906101959190610b13565b6104ff565b6040516101a79190610d7a565b60405180910390f35b6101ca60048036038101906101c59190610a85565b6107ea565b6040516101d79190610d7a565b60405180910390f35b6101fa60048036038101906101f59190610a85565b610850565b60405161020b959493929190610dbe565b60405180910390f35b816001548110610259576040517f08c379a000000000000000000000000000000000000000000000000000000000815260040161025090610d3a565b60405180910390fd5b816002600085815260200190815260200160002060020160006101000a81548160ff021916908360028111156102b8577f4e487b7100000000000000000000000000000000000000000000000000000000600052602160045260246000fd5b02179055507f58b69be6bff441068516ae1c90e7667c0de3f3912ce9f1d17051f573941e93bc83836040516102ee929190610d95565b60405180910390a1505050565b60008054906101000a900473ffffffffffffffffffffffffffffffffffffffff1681565b6000816001548110610366576040517f08c379a000000000000000000000000000000000000000000000000000000000815260040161035d90610d3a565b60405180910390fd5b6002600084815260200190815260200160002060000154915050919050565b60008160015481106103cc576040517f08c379a00000000000000000000000000000000000000000000000000000000081526004016103c390610d3a565b60405180910390fd5b6002600084815260200190815260200160002060040160009054906101000a900473ffffffffffffffffffffffffffffffffffffffff16915050919050565b60015481565b6060816001548110610458576040517f08c379a000000000000000000000000000000000000000000000000000000000815260040161044f90610d3a565b60405180910390fd5b60026000848152602001908152602001600020600101805461047990610f93565b80601f01602080910402602001604051908101604052809291908181526020018280546104a590610f93565b80156104f25780601f106104c7576101008083540402835291602001916104f2565b820191906000526020600020905b8154815290600101906020018083116104d557829003601f168201915b5050505050915050919050565b60008260008054906101000a900473ffffffffffffffffffffffffffffffffffffffff1673ffffffffffffffffffffffffffffffffffffffff1663ec7331e96040518163ffffffff1660e01b815260040160206040518083038186803b15801561056857600080fd5b505afa15801561057c573d6000803e3d6000fd5b505050506040513d601f19601f820116820180604052508101906105a09190610aae565b81106105e1576040517f08c379a00000000000000000000000000000000000000000000000000000000081526004016105d890610d1a565b60405180910390fd5b6000835111610625576040517f08c379a000000000000000000000000000000000000000000000000000000000815260040161061c90610d5a565b60405180910390fd5b60006040518060a0016040528086815260200185815260200160016002811115610678577f4e487b7100000000000000000000000000000000000000000000000000000000600052602160045260246000fd5b81526020014281526020013373ffffffffffffffffffffffffffffffffffffffff1681525090506000600154905081600260008381526020019081526020016000206000820151816000015560208201518160010190805190602001906106e092919061093b565b5060408201518160020160006101000a81548160ff02191690836002811115610732577f4e487b7100000000000000000000000000000000000000000000000000000000600052602160045260246000fd5b02179055506060820151816003015560808201518160040160006101000a81548173ffffffffffffffffffffffffffffffffffffffff021916908373ffffffffffffffffffffffffffffffffffffffff1602179055509050506001600081548092919061079e90610fc5565b91905055507fcb44e52c761717cec42099819ef4a1a7d9fa50f5514ee43e350a0113489ede478187336040516107d693929190610e18565b60405180910390a180935050505092915050565b6000816001548110610831576040517f08c379a000000000000000000000000000000000000000000000000000000000815260040161082890610d3a565b60405180910390fd5b6002600084815260200190815260200160002060030154915050919050565b600260205280600052604060002060009150905080600001549080600101805461087990610f93565b80601f01602080910402602001604051908101604052809291908181526020018280546108a590610f93565b80156108f25780601f106108c7576101008083540402835291602001916108f2565b820191906000526020600020905b8154815290600101906020018083116108d557829003601f168201915b5050505050908060020160009054906101000a900460ff16908060030154908060040160009054906101000a900473ffffffffffffffffffffffffffffffffffffffff16905085565b82805461094790610f93565b90600052602060002090601f01602090048101928261096957600085556109b0565b82601f1061098257805160ff19168380011785556109b0565b828001600101855582156109b0579182015b828111156109af578251825591602001919060010190610994565b5b5090506109bd91906109c1565b5090565b5b808211156109da5760008160009055506001016109c2565b5090565b60006109f16109ec84610e80565b610e4f565b905082815260208101848484011115610a0957600080fd5b610a14848285610f51565b509392505050565b600081359050610a2b816110ef565b92915050565b600082601f830112610a4257600080fd5b8135610a528482602086016109de565b91505092915050565b600081359050610a6a816110ff565b92915050565b600081519050610a7f816110ff565b92915050565b600060208284031215610a9757600080fd5b6000610aa584828501610a5b565b91505092915050565b600060208284031215610ac057600080fd5b6000610ace84828501610a70565b91505092915050565b60008060408385031215610aea57600080fd5b6000610af885828601610a5b565b9250506020610b0985828601610a1c565b9150509250929050565b60008060408385031215610b2657600080fd5b6000610b3485828601610a5b565b925050602083013567ffffffffffffffff811115610b5157600080fd5b610b5d85828601610a31565b9150509250929050565b610b7081610ecc565b82525050565b610b7f81610f1b565b82525050565b610b8e81610f3f565b82525050565b6000610b9f82610eb0565b610ba98185610ebb565b9350610bb9818560208601610f60565b610bc2816110ca565b840191505092915050565b6000610bda601883610ebb565b91507f54686520706f7374206964206973206e6f742076616c696400000000000000006000830152602082019050919050565b6000610c1a601a83610ebb565b91507f546865207265706f7274206964206973206e6f742076616c69640000000000006000830152602082019050919050565b6000610c5a602483610ebb565b91507f5265706f7274206a757374696669636174696f6e2063616e6e6f74206265206560008301527f6d707479000000000000000000000000000000000000000000000000000000006020830152604082019050919050565b610cbc81610f11565b82525050565b6000602082019050610cd76000830184610b67565b92915050565b6000602082019050610cf26000830184610b76565b92915050565b60006020820190508181036000830152610d128184610b94565b905092915050565b60006020820190508181036000830152610d3381610bcd565b9050919050565b60006020820190508181036000830152610d5381610c0d565b9050919050565b60006020820190508181036000830152610d7381610c4d565b9050919050565b6000602082019050610d8f6000830184610cb3565b92915050565b6000604082019050610daa6000830185610cb3565b610db76020830184610b85565b9392505050565b600060a082019050610dd36000830188610cb3565b8181036020830152610de58187610b94565b9050610df46040830186610b85565b610e016060830185610cb3565b610e0e6080830184610b67565b9695505050505050565b6000606082019050610e2d6000830186610cb3565b610e3a6020830185610cb3565b610e476040830184610b67565b949350505050565b6000604051905081810181811067ffffffffffffffff82111715610e7657610e7561109b565b5b8060405250919050565b600067ffffffffffffffff821115610e9b57610e9a61109b565b5b601f19601f8301169050602081019050919050565b600081519050919050565b600082825260208201905092915050565b6000610ed782610ef1565b9050919050565b6000819050610eec826110db565b919050565b600073ffffffffffffffffffffffffffffffffffffffff82169050919050565b6000819050919050565b6000610f2682610f2d565b9050919050565b6000610f3882610ef1565b9050919050565b6000610f4a82610ede565b9050919050565b82818337600083830152505050565b60005b83811015610f7e578082015181840152602081019050610f63565b83811115610f8d576000848401525b50505050565b60006002820490506001821680610fab57607f821691505b60208210811415610fbf57610fbe61106c565b5b50919050565b6000610fd082610f11565b91507fffffffffffffffffffffffffffffffffffffffffffffffffffffffffffffffff8214156110035761100261100e565b5b600182019050919050565b7f4e487b7100000000000000000000000000000000000000000000000000000000600052601160045260246000fd5b7f4e487b7100000000000000000000000000000000000000000000000000000000600052602160045260246000fd5b7f4e487b7100000000000000000000000000000000000000000000000000000000600052602260045260246000fd5b7f4e487b7100000000000000000000000000000000000000000000000000000000600052604160045260246000fd5b6000601f19601f8301169050919050565b600381106110ec576110eb61103d565b5b50565b600381106110fc57600080fd5b50565b61110881610f11565b811461111357600080fd5b5056fea26469706673582212201b888ef9bfac6f78ab3da4a86cafc91a2e9534bcfee59f04e1c803279f95b5cd64736f6c63430008000033",
  "immutableReferences": {},
  "source": "// SPDX-License-Identifier: MIT\npragma solidity ^0.8.0;\n\nimport \"./Post.sol\";\n\ncontract Report {\n    enum reportStatus { INVALID, VOTING_IN_PROGRESS, VERIFIED }\n\n    struct report {\n        uint256 postId;\n        string justification;\n        reportStatus status;\n        uint256 reportedAt;\n        address reporter;\n    }\n\n    Post public postContract;\n\n    uint256 public numReports = 0;\n\n    mapping(uint256 => report) public reports;\n\n    event ReportAdded(uint256 reportId, uint256 postId, address reporter);\n    event ReportUpdated(uint256 reportId, reportStatus status);\n\n    modifier validReportId(uint256 reportId) {\n        require(reportId < numReports, \"The report id is not valid\");\n        _;\n    }\n\n    modifier validPostId(uint256 postId) {\n        require(postId < postContract.numPosts(), \"The post id is not valid\");\n        _;\n    }\n\n    function addReport(uint256 postId, string memory justification) public validPostId(postId) returns (uint256 reportId) {\n        require(bytes(justification).length > 0, \"Report justification cannot be empty\");\n        \n        report memory newReport = report(\n            postId,\n            justification,\n            reportStatus.VOTING_IN_PROGRESS,\n            block.timestamp,\n            msg.sender\n        );\n  \n        uint256 newReportId = numReports;\n        reports[newReportId] = newReport;\n        numReports++;\n\n        emit ReportAdded(newReportId, postId, msg.sender);\n\n        return newReportId;\n    }\n    \n    function updateReport(uint256 reportId, reportStatus newStatus) public validReportId(reportId) {\n        reports[reportId].status = newStatus;\n        emit ReportUpdated(reportId, newStatus);\n    }\n\n    /* Getter Functions */\n\n    function getReportPostId(uint256 reportId) public view validReportId(reportId) returns (uint256) {\n        return reports[reportId].postId;\n    }\n\n    function getReportJustification(uint256 reportId) public view validReportId(reportId) returns (string memory) {\n        return reports[reportId].justification;\n    }\n\n    function getReportReportedAt(uint256 reportId) public view validReportId(reportId) returns (uint256) {\n        return reports[reportId].reportedAt;\n    }\n\n    function getReportReporter(uint256 reportId) public view validReportId(reportId) returns (address) {\n        return reports[reportId].reporter;\n    }\n}\n",
  "sourcePath": "/Users/GuoJun/Documents/NUS/Y4S2/IS4302/IS4302-GP2/contracts/Report.sol",
  "compiler": {
    "name": "solc",
    "version": "0.8.0+commit.c7dfd78e.Emscripten.clang"
  },
  "schemaVersion": "3.4.16",
  "updatedAt": "2024-04-17T07:12:55.980Z",
  "networkType": "ethereum",
  "devdoc": {
    "kind": "dev",
    "methods": {},
    "version": 1
  },
  "userdoc": {
    "kind": "user",
    "methods": {},
    "version": 1
  }
}