{
  "contractName": "Token",
  "abi": [
    {
      "inputs": [],
      "stateMutability": "nonpayable",
      "type": "constructor"
    },
    {
      "inputs": [
        {
          "internalType": "address",
          "name": "recipient",
          "type": "address"
        },
        {
          "internalType": "uint256",
          "name": "weiAmt",
          "type": "uint256"
        }
      ],
      "name": "getCredit",
      "outputs": [
        {
          "internalType": "uint256",
          "name": "",
          "type": "uint256"
        }
      ],
      "stateMutability": "nonpayable",
      "type": "function"
    },
    {
      "inputs": [
        {
          "internalType": "address",
          "name": "ad",
          "type": "address"
        }
      ],
      "name": "checkCredit",
      "outputs": [
        {
          "internalType": "uint256",
          "name": "",
          "type": "uint256"
        }
      ],
      "stateMutability": "view",
      "type": "function",
      "constant": true
    },
    {
      "inputs": [
        {
          "internalType": "address",
          "name": "recipient",
          "type": "address"
        },
        {
          "internalType": "uint256",
          "name": "amt",
          "type": "uint256"
        }
      ],
      "name": "transferCredit",
      "outputs": [],
      "stateMutability": "nonpayable",
      "type": "function"
    }
  ],
  "bytecode": "0x608060405234801561001057600080fd5b50600060405161001f906100c5565b604051809103906000f08015801561003b573d6000803e3d6000fd5b509050806000806101000a81548173ffffffffffffffffffffffffffffffffffffffff021916908373ffffffffffffffffffffffffffffffffffffffff16021790555033600160006101000a81548173ffffffffffffffffffffffffffffffffffffffff021916908373ffffffffffffffffffffffffffffffffffffffff160217905550506100d2565b610dd08061068883390190565b6105a7806100e16000396000f3fe608060405234801561001057600080fd5b50600436106100415760003560e01c806329851d6b146100465780637920769714610076578063cc58a6bb146100a6575b600080fd5b610060600480360381019061005b9190610350565b6100c2565b60405161006d9190610469565b60405180910390f35b610090600480360381019061008b9190610379565b610179565b60405161009d9190610469565b60405180910390f35b6100c060048036038101906100bb9190610379565b61024a565b005b60008060008054906101000a900473ffffffffffffffffffffffffffffffffffffffff1673ffffffffffffffffffffffffffffffffffffffff166370a08231846040518263ffffffff1660e01b815260040161011e9190610425565b60206040518083038186803b15801561013657600080fd5b505afa15801561014a573d6000803e3d6000fd5b505050506040513d601f19601f8201168201806040525081019061016e91906103de565b905080915050919050565b600080670de0b6b3a7640000836101909190610484565b905060008054906101000a900473ffffffffffffffffffffffffffffffffffffffff1673ffffffffffffffffffffffffffffffffffffffff166340c10f1985836040518363ffffffff1660e01b81526004016101ed929190610440565b602060405180830381600087803b15801561020757600080fd5b505af115801561021b573d6000803e3d6000fd5b505050506040513d601f19601f8201168201806040525081019061023f91906103b5565b508091505092915050565b60008054906101000a900473ffffffffffffffffffffffffffffffffffffffff1673ffffffffffffffffffffffffffffffffffffffff1663a9059cbb83836040518363ffffffff1660e01b81526004016102a5929190610440565b602060405180830381600087803b1580156102bf57600080fd5b505af11580156102d3573d6000803e3d6000fd5b505050506040513d601f19601f820116820180604052508101906102f791906103b5565b505050565b60008135905061030b8161052c565b92915050565b60008151905061032081610543565b92915050565b6000813590506103358161055a565b92915050565b60008151905061034a8161055a565b92915050565b60006020828403121561036257600080fd5b6000610370848285016102fc565b91505092915050565b6000806040838503121561038c57600080fd5b600061039a858286016102fc565b92505060206103ab85828601610326565b9150509250929050565b6000602082840312156103c757600080fd5b60006103d584828501610311565b91505092915050565b6000602082840312156103f057600080fd5b60006103fe8482850161033b565b91505092915050565b610410816104b5565b82525050565b61041f816104f3565b82525050565b600060208201905061043a6000830184610407565b92915050565b60006040820190506104556000830185610407565b6104626020830184610416565b9392505050565b600060208201905061047e6000830184610416565b92915050565b600061048f826104f3565b915061049a836104f3565b9250826104aa576104a96104fd565b5b828204905092915050565b60006104c0826104d3565b9050919050565b60008115159050919050565b600073ffffffffffffffffffffffffffffffffffffffff82169050919050565b6000819050919050565b7f4e487b7100000000000000000000000000000000000000000000000000000000600052601260045260246000fd5b610535816104b5565b811461054057600080fd5b50565b61054c816104c7565b811461055757600080fd5b50565b610563816104f3565b811461056e57600080fd5b5056fea2646970667358221220a5ae5e216a5cb08d1e2c34a031ba924a63a4b68ce2f90357e932c7359462895264736f6c63430008000033608060405260008060006101000a81548160ff02191690831515021790555033600060016101000a81548173ffffffffffffffffffffffffffffffffffffffff021916908373ffffffffffffffffffffffffffffffffffffffff16021790555034801561006b57600080fd5b50610d558061007b6000396000f3fe608060405234801561001057600080fd5b506004361061009e5760003560e01c8063893d20e811610066578063893d20e81461015d5780638da5cb5b1461017b57806395d89b41146101995780639dc29fac146101b7578063a9059cbb146101e75761009e565b806305d2035b146100a357806306fdde03146100c1578063313ce567146100df57806340c10f19146100fd57806370a082311461012d575b600080fd5b6100ab610217565b6040516100b89190610af0565b60405180910390f35b6100c9610228565b6040516100d69190610b0b565b60405180910390f35b6100e7610261565b6040516100f49190610b68565b60405180910390f35b610117600480360381019061011291906109be565b610266565b6040516101249190610af0565b60405180910390f35b61014760048036038101906101429190610995565b610447565b6040516101549190610b4d565b60405180910390f35b610165610490565b6040516101729190610ad5565b60405180910390f35b6101836104b9565b6040516101909190610ad5565b60405180910390f35b6101a16104df565b6040516101ae9190610b0b565b60405180910390f35b6101d160048036038101906101cc91906109be565b610518565b6040516101de9190610af0565b60405180910390f35b61020160048036038101906101fc91906109be565b61067b565b60405161020e9190610af0565b60405180910390f35b60008054906101000a900460ff1681565b6040518060400160405280600981526020017f42616e6b546f6b656e000000000000000000000000000000000000000000000081525081565b601281565b60008060019054906101000a900473ffffffffffffffffffffffffffffffffffffffff1673ffffffffffffffffffffffffffffffffffffffff163373ffffffffffffffffffffffffffffffffffffffff16146102c157600080fd5b60008054906101000a900460ff16156102d957600080fd5b6102ee826003546108d190919063ffffffff16565b60038190555061034682600260008673ffffffffffffffffffffffffffffffffffffffff1673ffffffffffffffffffffffffffffffffffffffff168152602001908152602001600020546108d190919063ffffffff16565b600260008573ffffffffffffffffffffffffffffffffffffffff1673ffffffffffffffffffffffffffffffffffffffff168152602001908152602001600020819055508273ffffffffffffffffffffffffffffffffffffffff167f0f6798a560793a54c3bcfe86a93cde1e73087d944c0ea20544137d4121396885836040516103cf9190610b4d565b60405180910390a28273ffffffffffffffffffffffffffffffffffffffff16600073ffffffffffffffffffffffffffffffffffffffff167fddf252ad1be2c89b69c2b068fc378daa952ba7f163c4a11628f55a4df523b3ef846040516104359190610b4d565b60405180910390a36001905092915050565b6000600260008373ffffffffffffffffffffffffffffffffffffffff1673ffffffffffffffffffffffffffffffffffffffff168152602001908152602001600020549050919050565b60008060019054906101000a900473ffffffffffffffffffffffffffffffffffffffff16905090565b600060019054906101000a900473ffffffffffffffffffffffffffffffffffffffff1681565b6040518060400160405280600281526020017f425400000000000000000000000000000000000000000000000000000000000081525081565b60008060019054906101000a900473ffffffffffffffffffffffffffffffffffffffff1673ffffffffffffffffffffffffffffffffffffffff163373ffffffffffffffffffffffffffffffffffffffff161461057357600080fd5b6105888260035461091e90919063ffffffff16565b6003819055506105e082600260008673ffffffffffffffffffffffffffffffffffffffff1673ffffffffffffffffffffffffffffffffffffffff1681526020019081526020016000205461091e90919063ffffffff16565b600260008573ffffffffffffffffffffffffffffffffffffffff1673ffffffffffffffffffffffffffffffffffffffff168152602001908152602001600020819055508273ffffffffffffffffffffffffffffffffffffffff167fcc16f5dbb4873280815c1ee09dbd06736cffcc184412cf7a71a0fdb75d397ca5836040516106699190610b4d565b60405180910390a26001905092915050565b60008073ffffffffffffffffffffffffffffffffffffffff168373ffffffffffffffffffffffffffffffffffffffff1614156106b657600080fd5b600260003273ffffffffffffffffffffffffffffffffffffffff1673ffffffffffffffffffffffffffffffffffffffff16815260200190815260200160002054821115610738576040517f08c379a000000000000000000000000000000000000000000000000000000000815260040161072f90610b2d565b60405180910390fd5b61078a82600260003273ffffffffffffffffffffffffffffffffffffffff1673ffffffffffffffffffffffffffffffffffffffff1681526020019081526020016000205461091e90919063ffffffff16565b600260003273ffffffffffffffffffffffffffffffffffffffff1673ffffffffffffffffffffffffffffffffffffffff1681526020019081526020016000208190555061081f82600260008673ffffffffffffffffffffffffffffffffffffffff1673ffffffffffffffffffffffffffffffffffffffff168152602001908152602001600020546108d190919063ffffffff16565b600260008573ffffffffffffffffffffffffffffffffffffffff1673ffffffffffffffffffffffffffffffffffffffff168152602001908152602001600020819055508273ffffffffffffffffffffffffffffffffffffffff163273ffffffffffffffffffffffffffffffffffffffff167fddf252ad1be2c89b69c2b068fc378daa952ba7f163c4a11628f55a4df523b3ef846040516108bf9190610b4d565b60405180910390a36001905092915050565b600081836108df9190610b9f565b905082811015610918577f4e487b7100000000000000000000000000000000000000000000000000000000600052600160045260246000fd5b92915050565b600082821115610957577f4e487b7100000000000000000000000000000000000000000000000000000000600052600160045260246000fd5b81836109639190610bf5565b905092915050565b60008135905061097a81610cf1565b92915050565b60008135905061098f81610d08565b92915050565b6000602082840312156109a757600080fd5b60006109b58482850161096b565b91505092915050565b600080604083850312156109d157600080fd5b60006109df8582860161096b565b92505060206109f085828601610980565b9150509250929050565b610a0381610c29565b82525050565b610a1281610c3b565b82525050565b6000610a2382610b83565b610a2d8185610b8e565b9350610a3d818560208601610c7e565b610a4681610ce0565b840191505092915050565b6000610a5e602683610b8e565b91507f6d73672e73656e64657220646f65736e2774206861766520656e6f756768206260008301527f616c616e636500000000000000000000000000000000000000000000000000006020830152604082019050919050565b610ac081610c67565b82525050565b610acf81610c71565b82525050565b6000602082019050610aea60008301846109fa565b92915050565b6000602082019050610b056000830184610a09565b92915050565b60006020820190508181036000830152610b258184610a18565b905092915050565b60006020820190508181036000830152610b4681610a51565b9050919050565b6000602082019050610b626000830184610ab7565b92915050565b6000602082019050610b7d6000830184610ac6565b92915050565b600081519050919050565b600082825260208201905092915050565b6000610baa82610c67565b9150610bb583610c67565b9250827fffffffffffffffffffffffffffffffffffffffffffffffffffffffffffffffff03821115610bea57610be9610cb1565b5b828201905092915050565b6000610c0082610c67565b9150610c0b83610c67565b925082821015610c1e57610c1d610cb1565b5b828203905092915050565b6000610c3482610c47565b9050919050565b60008115159050919050565b600073ffffffffffffffffffffffffffffffffffffffff82169050919050565b6000819050919050565b600060ff82169050919050565b60005b83811015610c9c578082015181840152602081019050610c81565b83811115610cab576000848401525b50505050565b7f4e487b7100000000000000000000000000000000000000000000000000000000600052601160045260246000fd5b6000601f19601f8301169050919050565b610cfa81610c29565b8114610d0557600080fd5b50565b610d1181610c67565b8114610d1c57600080fd5b5056fea2646970667358221220d4ce203c34803bab55225dd2dd6ae5204c2ecaf3f2aed3542599338c9244677464736f6c63430008000033",
  "immutableReferences": {},
  "source": "pragma solidity ^0.8.0;\n\nimport \"./ERC20.sol\";\n\ncontract Token {\n    ERC20 erc20Contract;\n    address owner;\n    \n    constructor() {\n        ERC20 e = new ERC20();\n        erc20Contract = e;\n        owner = msg.sender;\n    }\n\n\n    function getCredit(address recipient, uint256 weiAmt)\n        public\n        returns (uint256)\n    {\n        uint256 amt = weiAmt / (1 ether); \n        erc20Contract.mint(recipient, amt);\n        return amt; \n    }\n\n    function checkCredit(address ad) public view returns (uint256) {\n        uint256 credit = erc20Contract.balanceOf(ad);\n        return credit; \n    }\n\n    function transferCredit(address recipient, uint256 amt) public {\n        erc20Contract.transfer(recipient, amt);\n    }\n\n}",
  "sourcePath": "/Users/meganyee/Desktop/IS4302-GP2/contracts/Token.sol",
  "compiler": {
    "name": "solc",
    "version": "0.8.0+commit.c7dfd78e.Emscripten.clang"
  },
  "schemaVersion": "3.4.16",
  "updatedAt": "2024-04-21T14:03:10.579Z",
  "networkType": "ethereum",
  "devdoc": {
    "kind": "dev",
    "methods": {},
    "version": 1
  },
  "userdoc": {
    "kind": "user",
    "methods": {},
    "version": 1
  }
}