{
  "contractName": "User",
  "abi": [
    {
      "inputs": [],
      "stateMutability": "nonpayable",
      "type": "constructor"
    },
    {
      "anonymous": false,
      "inputs": [
        {
          "indexed": true,
          "internalType": "uint256",
          "name": "userId",
          "type": "uint256"
        }
      ],
      "name": "createUserEvent",
      "type": "event"
    },
    {
      "anonymous": false,
      "inputs": [
        {
          "indexed": true,
          "internalType": "uint256",
          "name": "userId",
          "type": "uint256"
        }
      ],
      "name": "deleteUserEvent",
      "type": "event"
    },
    {
      "anonymous": false,
      "inputs": [
        {
          "indexed": true,
          "internalType": "uint256",
          "name": "userId",
          "type": "uint256"
        }
      ],
      "name": "updateUserEvent",
      "type": "event"
    },
    {
      "inputs": [],
      "name": "numUsers",
      "outputs": [
        {
          "internalType": "uint256",
          "name": "",
          "type": "uint256"
        }
      ],
      "stateMutability": "view",
      "type": "function",
      "constant": true
    },
    {
      "inputs": [],
      "name": "owner",
      "outputs": [
        {
          "internalType": "address",
          "name": "",
          "type": "address"
        }
      ],
      "stateMutability": "view",
      "type": "function",
      "constant": true
    },
    {
      "inputs": [
        {
          "internalType": "address",
          "name": "",
          "type": "address"
        }
      ],
      "name": "users",
      "outputs": [
        {
          "internalType": "string",
          "name": "name",
          "type": "string"
        },
        {
          "internalType": "string",
          "name": "email",
          "type": "string"
        },
        {
          "internalType": "bool",
          "name": "voter",
          "type": "bool"
        }
      ],
      "stateMutability": "view",
      "type": "function",
      "constant": true
    },
    {
      "inputs": [
        {
          "internalType": "string",
          "name": "_name",
          "type": "string"
        },
        {
          "internalType": "string",
          "name": "_email",
          "type": "string"
        }
      ],
      "name": "addUser",
      "outputs": [
        {
          "internalType": "uint256",
          "name": "",
          "type": "uint256"
        }
      ],
      "stateMutability": "nonpayable",
      "type": "function"
    },
    {
      "inputs": [
        {
          "internalType": "uint256",
          "name": "_userId",
          "type": "uint256"
        },
        {
          "internalType": "string",
          "name": "_newEmail",
          "type": "string"
        }
      ],
      "name": "updateUser",
      "outputs": [],
      "stateMutability": "nonpayable",
      "type": "function"
    },
    {
      "inputs": [
        {
          "internalType": "uint256",
          "name": "_userId",
          "type": "uint256"
        }
      ],
      "name": "deleteUser",
      "outputs": [],
      "stateMutability": "nonpayable",
      "type": "function"
    }
  ],
  "bytecode": "0x608060405234801561001057600080fd5b5033600160006101000a81548173ffffffffffffffffffffffffffffffffffffffff021916908373ffffffffffffffffffffffffffffffffffffffff160217905550610ead806100616000396000f3fe608060405234801561001057600080fd5b50600436106100625760003560e01c8063079eaf341461006757806319a50f491461009757806338f14845146100b55780638da5cb5b146100d1578063a87430ba146100ef578063d85340e714610121575b600080fd5b610081600480360381019061007c91906108df565b61013d565b60405161008e9190610c0e565b60405180910390f35b61009f6102da565b6040516100ac9190610c0e565b60405180910390f35b6100cf60048036038101906100ca919061094b565b6102e0565b005b6100d9610466565b6040516100e69190610b2e565b60405180910390f35b610109600480360381019061010491906108b6565b61048c565b60405161011893929190610b49565b60405180910390f35b61013b60048036038101906101369190610974565b6105d3565b005b6000600160009054906101000a900473ffffffffffffffffffffffffffffffffffffffff1673ffffffffffffffffffffffffffffffffffffffff163373ffffffffffffffffffffffffffffffffffffffff16146101cf576040517f08c379a00000000000000000000000000000000000000000000000000000000081526004016101c690610b8e565b60405180910390fd5b600260008154809291906101e290610d62565b91905055506040518060600160405280848152602001838152602001600015158152506000803373ffffffffffffffffffffffffffffffffffffffff1673ffffffffffffffffffffffffffffffffffffffff168152602001908152602001600020600082015181600001908051906020019061025f929190610741565b50602082015181600101908051906020019061027c929190610741565b5060408201518160020160006101000a81548160ff0219169083151502179055509050506002547fcd85fa5516f1c94e3fb14c19907321427e3328c1bd5cb5057415a7835d0c85a460405160405180910390a2600254905092915050565b60025481565b600160009054906101000a900473ffffffffffffffffffffffffffffffffffffffff1673ffffffffffffffffffffffffffffffffffffffff163373ffffffffffffffffffffffffffffffffffffffff1614610370576040517f08c379a000000000000000000000000000000000000000000000000000000000815260040161036790610bee565b60405180910390fd5b60025481111580156103825750600081115b6103c1576040517f08c379a00000000000000000000000000000000000000000000000000000000081526004016103b890610bae565b60405180910390fd5b6000803373ffffffffffffffffffffffffffffffffffffffff1673ffffffffffffffffffffffffffffffffffffffff1681526020019081526020016000206000808201600061041091906107c7565b60018201600061042091906107c7565b6002820160006101000a81549060ff02191690555050807f4f5722ce8839355aa0852452515b47f48836124ffdbc3638587030ed7031033460405160405180910390a250565b600160009054906101000a900473ffffffffffffffffffffffffffffffffffffffff1681565b60006020528060005260406000206000915090508060000180546104af90610d30565b80601f01602080910402602001604051908101604052809291908181526020018280546104db90610d30565b80156105285780601f106104fd57610100808354040283529160200191610528565b820191906000526020600020905b81548152906001019060200180831161050b57829003601f168201915b50505050509080600101805461053d90610d30565b80601f016020809104026020016040519081016040528092919081815260200182805461056990610d30565b80156105b65780601f1061058b576101008083540402835291602001916105b6565b820191906000526020600020905b81548152906001019060200180831161059957829003601f168201915b5050505050908060020160009054906101000a900460ff16905083565b600160009054906101000a900473ffffffffffffffffffffffffffffffffffffffff1673ffffffffffffffffffffffffffffffffffffffff163373ffffffffffffffffffffffffffffffffffffffff1614610663576040517f08c379a000000000000000000000000000000000000000000000000000000000815260040161065a90610bce565b60405180910390fd5b60025482111580156106755750600082115b6106b4576040517f08c379a00000000000000000000000000000000000000000000000000000000081526004016106ab90610bae565b60405180910390fd5b60008060003373ffffffffffffffffffffffffffffffffffffffff1673ffffffffffffffffffffffffffffffffffffffff16815260200190815260200160002090508181600101908051906020019061070e929190610741565b50827f58a017cea6c8b6f1988fd521edb2a05b6d9c1a4ba5a960c69e622805f0e203c160405160405180910390a2505050565b82805461074d90610d30565b90600052602060002090601f01602090048101928261076f57600085556107b6565b82601f1061078857805160ff19168380011785556107b6565b828001600101855582156107b6579182015b828111156107b557825182559160200191906001019061079a565b5b5090506107c39190610807565b5090565b5080546107d390610d30565b6000825580601f106107e55750610804565b601f0160209004906000526020600020908101906108039190610807565b5b50565b5b80821115610820576000816000905550600101610808565b5090565b600061083761083284610c5a565b610c29565b90508281526020810184848401111561084f57600080fd5b61085a848285610cee565b509392505050565b60008135905061087181610e49565b92915050565b600082601f83011261088857600080fd5b8135610898848260208601610824565b91505092915050565b6000813590506108b081610e60565b92915050565b6000602082840312156108c857600080fd5b60006108d684828501610862565b91505092915050565b600080604083850312156108f257600080fd5b600083013567ffffffffffffffff81111561090c57600080fd5b61091885828601610877565b925050602083013567ffffffffffffffff81111561093557600080fd5b61094185828601610877565b9150509250929050565b60006020828403121561095d57600080fd5b600061096b848285016108a1565b91505092915050565b6000806040838503121561098757600080fd5b6000610995858286016108a1565b925050602083013567ffffffffffffffff8111156109b257600080fd5b6109be85828601610877565b9150509250929050565b6109d181610ca6565b82525050565b6109e081610cb8565b82525050565b60006109f182610c8a565b6109fb8185610c95565b9350610a0b818560208601610cfd565b610a1481610e38565b840191505092915050565b6000610a2c601d83610c95565b91507f4f6e6c7920746865206f776e65722063616e206164642075736572732e0000006000830152602082019050919050565b6000610a6c601083610c95565b91507f496e76616c696420757365722049442e000000000000000000000000000000006000830152602082019050919050565b6000610aac602083610c95565b91507f4f6e6c7920746865206f776e65722063616e207570646174652075736572732e6000830152602082019050919050565b6000610aec602083610c95565b91507f4f6e6c7920746865206f776e65722063616e2064656c6574652075736572732e6000830152602082019050919050565b610b2881610ce4565b82525050565b6000602082019050610b4360008301846109c8565b92915050565b60006060820190508181036000830152610b6381866109e6565b90508181036020830152610b7781856109e6565b9050610b8660408301846109d7565b949350505050565b60006020820190508181036000830152610ba781610a1f565b9050919050565b60006020820190508181036000830152610bc781610a5f565b9050919050565b60006020820190508181036000830152610be781610a9f565b9050919050565b60006020820190508181036000830152610c0781610adf565b9050919050565b6000602082019050610c236000830184610b1f565b92915050565b6000604051905081810181811067ffffffffffffffff82111715610c5057610c4f610e09565b5b8060405250919050565b600067ffffffffffffffff821115610c7557610c74610e09565b5b601f19601f8301169050602081019050919050565b600081519050919050565b600082825260208201905092915050565b6000610cb182610cc4565b9050919050565b60008115159050919050565b600073ffffffffffffffffffffffffffffffffffffffff82169050919050565b6000819050919050565b82818337600083830152505050565b60005b83811015610d1b578082015181840152602081019050610d00565b83811115610d2a576000848401525b50505050565b60006002820490506001821680610d4857607f821691505b60208210811415610d5c57610d5b610dda565b5b50919050565b6000610d6d82610ce4565b91507fffffffffffffffffffffffffffffffffffffffffffffffffffffffffffffffff821415610da057610d9f610dab565b5b600182019050919050565b7f4e487b7100000000000000000000000000000000000000000000000000000000600052601160045260246000fd5b7f4e487b7100000000000000000000000000000000000000000000000000000000600052602260045260246000fd5b7f4e487b7100000000000000000000000000000000000000000000000000000000600052604160045260246000fd5b6000601f19601f8301169050919050565b610e5281610ca6565b8114610e5d57600080fd5b50565b610e6981610ce4565b8114610e7457600080fd5b5056fea26469706673582212200efe444d6b46d1a058ae8c855ba4f04b840ea333ea0b6291d4ca151c022fbb9864736f6c63430008000033",
  "immutableReferences": {},
  "source": "// SPDX-License-Identifier: MIT\npragma solidity ^0.8.0;\n\ncontract User {\n    struct UserStruct {\n        string name;\n        string email;\n        bool voter;\n    }\n\n    mapping(address => UserStruct) public users;\n\n    address public owner;\n\n    uint256 public numUsers;\n\n    event createUserEvent(uint256 indexed userId);\n    event updateUserEvent(uint256 indexed userId);\n    event deleteUserEvent(uint256 indexed userId);\n\n    constructor() {\n        owner = msg.sender; \n    }\n\n    function addUser(string memory _name, string memory _email) public returns (uint256) {\n        require(msg.sender == owner, \"Only the owner can add users.\");\n        numUsers++; \n        users[msg.sender] = UserStruct(_name, _email, false); \n        emit createUserEvent(numUsers);\n        return numUsers;\n    }\n\n    function updateUser(uint256 _userId, string memory _newEmail) public {\n        require(msg.sender == owner, \"Only the owner can update users.\");\n        require(_userId <= numUsers && _userId > 0, \"Invalid user ID.\");\n        UserStruct storage user = users[msg.sender];\n        user.email = _newEmail;\n        emit updateUserEvent(_userId);\n    }\n\n    function deleteUser(uint256 _userId) public {\n        require(msg.sender == owner, \"Only the owner can delete users.\");\n        require(_userId <= numUsers && _userId > 0, \"Invalid user ID.\");\n        delete users[msg.sender];\n        emit deleteUserEvent(_userId);\n    }\n}\n",
  "sourcePath": "/Users/GuoJun/Documents/NUS/Y4S2/IS4302/IS4302-GP2/contracts/User.sol",
  "compiler": {
    "name": "solc",
    "version": "0.8.0+commit.c7dfd78e.Emscripten.clang"
  },
  "schemaVersion": "3.4.16",
  "updatedAt": "2024-04-14T06:39:26.743Z",
  "networkType": "ethereum",
  "devdoc": {
    "kind": "dev",
    "methods": {},
    "version": 1
  },
  "userdoc": {
    "kind": "user",
    "methods": {},
    "version": 1
  }
}