{
  "contractName": "User",
  "abi": [
    {
      "inputs": [],
      "stateMutability": "nonpayable",
      "type": "constructor"
    },
    {
      "anonymous": false,
      "inputs": [
        {
          "indexed": false,
          "internalType": "uint256",
          "name": "userAddress",
          "type": "uint256"
        },
        {
          "indexed": false,
          "internalType": "string",
          "name": "name",
          "type": "string"
        },
        {
          "indexed": false,
          "internalType": "string",
          "name": "email",
          "type": "string"
        }
      ],
      "name": "UserAdded",
      "type": "event"
    },
    {
      "anonymous": false,
      "inputs": [
        {
          "indexed": false,
          "internalType": "string",
          "name": "name",
          "type": "string"
        },
        {
          "indexed": false,
          "internalType": "string",
          "name": "email",
          "type": "string"
        }
      ],
      "name": "UserDeleted",
      "type": "event"
    },
    {
      "anonymous": false,
      "inputs": [
        {
          "indexed": false,
          "internalType": "uint256",
          "name": "userId",
          "type": "uint256"
        },
        {
          "indexed": false,
          "internalType": "enum User.userGroup",
          "name": "group",
          "type": "uint8"
        }
      ],
      "name": "UserUpdated",
      "type": "event"
    },
    {
      "inputs": [],
      "name": "numUsers",
      "outputs": [
        {
          "internalType": "uint256",
          "name": "",
          "type": "uint256"
        }
      ],
      "stateMutability": "view",
      "type": "function",
      "constant": true
    },
    {
      "inputs": [],
      "name": "owner",
      "outputs": [
        {
          "internalType": "address",
          "name": "",
          "type": "address"
        }
      ],
      "stateMutability": "view",
      "type": "function",
      "constant": true
    },
    {
      "inputs": [
        {
          "internalType": "uint256",
          "name": "",
          "type": "uint256"
        }
      ],
      "name": "users",
      "outputs": [
        {
          "internalType": "string",
          "name": "name",
          "type": "string"
        },
        {
          "internalType": "string",
          "name": "email",
          "type": "string"
        },
        {
          "internalType": "enum User.userGroup",
          "name": "group",
          "type": "uint8"
        },
        {
          "internalType": "address",
          "name": "owner",
          "type": "address"
        }
      ],
      "stateMutability": "view",
      "type": "function",
      "constant": true
    },
    {
      "inputs": [
        {
          "internalType": "address",
          "name": "",
          "type": "address"
        }
      ],
      "name": "usersByAddress",
      "outputs": [
        {
          "internalType": "string",
          "name": "name",
          "type": "string"
        },
        {
          "internalType": "string",
          "name": "email",
          "type": "string"
        },
        {
          "internalType": "enum User.userGroup",
          "name": "group",
          "type": "uint8"
        },
        {
          "internalType": "address",
          "name": "owner",
          "type": "address"
        }
      ],
      "stateMutability": "view",
      "type": "function",
      "constant": true
    },
    {
      "inputs": [
        {
          "internalType": "string",
          "name": "name",
          "type": "string"
        },
        {
          "internalType": "string",
          "name": "email",
          "type": "string"
        }
      ],
      "name": "addUser",
      "outputs": [
        {
          "internalType": "uint256",
          "name": "",
          "type": "uint256"
        }
      ],
      "stateMutability": "nonpayable",
      "type": "function"
    },
    {
      "inputs": [
        {
          "internalType": "uint256",
          "name": "userId",
          "type": "uint256"
        },
        {
          "internalType": "enum User.userGroup",
          "name": "group",
          "type": "uint8"
        }
      ],
      "name": "updateUserType",
      "outputs": [],
      "stateMutability": "nonpayable",
      "type": "function"
    },
    {
      "inputs": [
        {
          "internalType": "uint256",
          "name": "userId",
          "type": "uint256"
        }
      ],
      "name": "deleteUser",
      "outputs": [],
      "stateMutability": "nonpayable",
      "type": "function"
    },
    {
      "inputs": [
        {
          "internalType": "uint256",
          "name": "userId",
          "type": "uint256"
        }
      ],
      "name": "getUserGroup",
      "outputs": [
        {
          "internalType": "enum User.userGroup",
          "name": "",
          "type": "uint8"
        }
      ],
      "stateMutability": "view",
      "type": "function",
      "constant": true
    },
    {
      "inputs": [
        {
          "internalType": "address",
          "name": "_userAddress",
          "type": "address"
        }
      ],
      "name": "getUserGroupByAddress",
      "outputs": [
        {
          "internalType": "enum User.userGroup",
          "name": "",
          "type": "uint8"
        }
      ],
      "stateMutability": "view",
      "type": "function",
      "constant": true
    },
    {
      "inputs": [],
      "name": "getNumUsers",
      "outputs": [
        {
          "internalType": "uint256",
          "name": "",
          "type": "uint256"
        }
      ],
      "stateMutability": "view",
      "type": "function",
      "constant": true
    }
  ],
  "bytecode": "0x6080604052600060015534801561001557600080fd5b50336000806101000a81548173ffffffffffffffffffffffffffffffffffffffff021916908373ffffffffffffffffffffffffffffffffffffffff16021790555061172d806100656000396000f3fe608060405234801561001057600080fd5b506004361061009e5760003560e01c806338f148451161006657806338f148451461018457806351fb2aff146101a057806365f88c0d146101bc5780636bf693c4146101da5780638da5cb5b1461020d5761009e565b806303bc3466146100a3578063079eaf34146100d357806319a50f4914610103578063352704b714610121578063365b98b214610151575b600080fd5b6100bd60048036038101906100b89190610ef9565b61022b565b6040516100ca919061125a565b60405180910390f35b6100ed60048036038101906100e89190610f22565b610284565b6040516100fa919061139f565b60405180910390f35b61010b61062d565b604051610118919061139f565b60405180910390f35b61013b60048036038101906101369190610f8e565b610633565b604051610148919061125a565b60405180910390f35b61016b60048036038101906101669190610f8e565b610660565b60405161017b9493929190611275565b60405180910390f35b61019e60048036038101906101999190610f8e565b6107cd565b005b6101ba60048036038101906101b59190610fb7565b610a12565b005b6101c4610b87565b6040516101d1919061139f565b60405180910390f35b6101f460048036038101906101ef9190610ef9565b610b91565b6040516102049493929190611275565b60405180910390f35b610215610cfe565b604051610222919061123f565b60405180910390f35b6000600360008373ffffffffffffffffffffffffffffffffffffffff1673ffffffffffffffffffffffffffffffffffffffff16815260200190815260200160002060020160009054906101000a900460ff169050919050565b6000808351116102c9576040517f08c379a00000000000000000000000000000000000000000000000000000000081526004016102c0906112ff565b60405180910390fd5b600082511161030d576040517f08c379a00000000000000000000000000000000000000000000000000000000081526004016103049061137f565b60405180910390fd5b60006001549050604051806080016040528085815260200184815260200160006002811115610365577f4e487b7100000000000000000000000000000000000000000000000000000000600052602160045260246000fd5b81526020013373ffffffffffffffffffffffffffffffffffffffff168152506002600083815260200190815260200160002060008201518160000190805190602001906103b3929190610d22565b5060208201518160010190805190602001906103d0929190610d22565b5060408201518160020160006101000a81548160ff02191690836002811115610422577f4e487b7100000000000000000000000000000000000000000000000000000000600052602160045260246000fd5b021790555060608201518160020160016101000a81548173ffffffffffffffffffffffffffffffffffffffff021916908373ffffffffffffffffffffffffffffffffffffffff16021790555090505060026000828152602001908152602001600020600360003373ffffffffffffffffffffffffffffffffffffffff1673ffffffffffffffffffffffffffffffffffffffff16815260200190815260200160002060008201816000019080546104d79061155d565b6104e2929190610da8565b5060018201816001019080546104f79061155d565b610502929190610da8565b506002820160009054906101000a900460ff168160020160006101000a81548160ff02191690836002811115610561577f4e487b7100000000000000000000000000000000000000000000000000000000600052602160045260246000fd5b02179055506002820160019054906101000a900473ffffffffffffffffffffffffffffffffffffffff168160020160016101000a81548173ffffffffffffffffffffffffffffffffffffffff021916908373ffffffffffffffffffffffffffffffffffffffff160217905550905050600160008154809291906105e39061158f565b91905055507f1abdb95ba643a5034d9c11d4f0c1b1a04c1319f7f0a1dcb48790b1caf0d38e3581858560405161061b939291906113e3565b60405180910390a18091505092915050565b60015481565b60006002600083815260200190815260200160002060020160009054906101000a900460ff169050919050565b60026020528060005260406000206000915090508060000180546106839061155d565b80601f01602080910402602001604051908101604052809291908181526020018280546106af9061155d565b80156106fc5780601f106106d1576101008083540402835291602001916106fc565b820191906000526020600020905b8154815290600101906020018083116106df57829003601f168201915b5050505050908060010180546107119061155d565b80601f016020809104026020016040519081016040528092919081815260200182805461073d9061155d565b801561078a5780601f1061075f5761010080835404028352916020019161078a565b820191906000526020600020905b81548152906001019060200180831161076d57829003601f168201915b5050505050908060020160009054906101000a900460ff16908060020160019054906101000a900473ffffffffffffffffffffffffffffffffffffffff16905084565b60008054906101000a900473ffffffffffffffffffffffffffffffffffffffff1673ffffffffffffffffffffffffffffffffffffffff163373ffffffffffffffffffffffffffffffffffffffff161461085b576040517f08c379a00000000000000000000000000000000000000000000000000000000081526004016108529061131f565b60405180910390fd5b8060015481106108a0576040517f08c379a00000000000000000000000000000000000000000000000000000000081526004016108979061135f565b60405180910390fd5b60006002600084815260200190815260200160002090506002808111156108f0577f4e487b7100000000000000000000000000000000000000000000000000000000600052602160045260246000fd5b8160020160009054906101000a900460ff16600281111561093a577f4e487b7100000000000000000000000000000000000000000000000000000000600052602160045260246000fd5b141561097b576040517f08c379a00000000000000000000000000000000000000000000000000000000081526004016109729061133f565b60405180910390fd5b60028160020160006101000a81548160ff021916908360028111156109c9577f4e487b7100000000000000000000000000000000000000000000000000000000600052602160045260246000fd5b02179055507fe42246d13f641ca3a33350fe14c54d9691fc158a0d608de71a1be6c618f984f78160000182600101604051610a059291906112c8565b60405180910390a1505050565b60008054906101000a900473ffffffffffffffffffffffffffffffffffffffff1673ffffffffffffffffffffffffffffffffffffffff163373ffffffffffffffffffffffffffffffffffffffff1614610aa0576040517f08c379a0000000000000000000000000000000000000000000000000000000008152600401610a979061131f565b60405180910390fd5b816001548110610ae5576040517f08c379a0000000000000000000000000000000000000000000000000000000008152600401610adc9061135f565b60405180910390fd5b816002600085815260200190815260200160002060020160006101000a81548160ff02191690836002811115610b44577f4e487b7100000000000000000000000000000000000000000000000000000000600052602160045260246000fd5b02179055507f687265481195f342f2fe5eede43e2f28ac0fcfe04f51317b696b616a67fa9e5d8383604051610b7a9291906113ba565b60405180910390a1505050565b6000600154905090565b6003602052806000526040600020600091509050806000018054610bb49061155d565b80601f0160208091040260200160405190810160405280929190818152602001828054610be09061155d565b8015610c2d5780601f10610c0257610100808354040283529160200191610c2d565b820191906000526020600020905b815481529060010190602001808311610c1057829003601f168201915b505050505090806001018054610c429061155d565b80601f0160208091040260200160405190810160405280929190818152602001828054610c6e9061155d565b8015610cbb5780601f10610c9057610100808354040283529160200191610cbb565b820191906000526020600020905b815481529060010190602001808311610c9e57829003601f168201915b5050505050908060020160009054906101000a900460ff16908060020160019054906101000a900473ffffffffffffffffffffffffffffffffffffffff16905084565b60008054906101000a900473ffffffffffffffffffffffffffffffffffffffff1681565b828054610d2e9061155d565b90600052602060002090601f016020900481019282610d505760008555610d97565b82601f10610d6957805160ff1916838001178555610d97565b82800160010185558215610d97579182015b82811115610d96578251825591602001919060010190610d7b565b5b509050610da49190610e35565b5090565b828054610db49061155d565b90600052602060002090601f016020900481019282610dd65760008555610e24565b82601f10610de75780548555610e24565b82800160010185558215610e2457600052602060002091601f016020900482015b82811115610e23578254825591600101919060010190610e08565b5b509050610e319190610e35565b5090565b5b80821115610e4e576000816000905550600101610e36565b5090565b6000610e65610e6084611459565b611428565b905082815260208101848484011115610e7d57600080fd5b610e8884828561151b565b509392505050565b600081359050610e9f816116b9565b92915050565b600081359050610eb4816116d0565b92915050565b600082601f830112610ecb57600080fd5b8135610edb848260208601610e52565b91505092915050565b600081359050610ef3816116e0565b92915050565b600060208284031215610f0b57600080fd5b6000610f1984828501610e90565b91505092915050565b60008060408385031215610f3557600080fd5b600083013567ffffffffffffffff811115610f4f57600080fd5b610f5b85828601610eba565b925050602083013567ffffffffffffffff811115610f7857600080fd5b610f8485828601610eba565b9150509250929050565b600060208284031215610fa057600080fd5b6000610fae84828501610ee4565b91505092915050565b60008060408385031215610fca57600080fd5b6000610fd885828601610ee4565b9250506020610fe985828601610ea5565b9150509250929050565b610ffc816114ba565b82525050565b61100b81611509565b82525050565b600061101c8261149e565b61102681856114a9565b935061103681856020860161152a565b61103f81611694565b840191505092915050565b600081546110578161155d565b61106181866114a9565b9450600182166000811461107c576001811461108e576110c1565b60ff19831686526020860193506110c1565b61109785611489565b60005b838110156110b95781548189015260018201915060208101905061109a565b808801955050505b50505092915050565b60006110d76019836114a9565b91507f55736572206e616d652063616e6e6f7420626520656d707479000000000000006000830152602082019050919050565b6000611117602a836114a9565b91507f4f6e6c7920636f6e7472616374206f776e65722063616e2063616c6c2074686960008301527f732066756e6374696f6e000000000000000000000000000000000000000000006020830152604082019050919050565b600061117d601d836114a9565b91507f557365722068617320616c7265616479206265656e2064656c657465640000006000830152602082019050919050565b60006111bd6018836114a9565b91507f5468652075736572206964206973206e6f742076616c696400000000000000006000830152602082019050919050565b60006111fd601a836114a9565b91507f5573657220656d61696c2063616e6e6f7420626520656d7074790000000000006000830152602082019050919050565b611239816114ff565b82525050565b60006020820190506112546000830184610ff3565b92915050565b600060208201905061126f6000830184611002565b92915050565b6000608082019050818103600083015261128f8187611011565b905081810360208301526112a38186611011565b90506112b26040830185611002565b6112bf6060830184610ff3565b95945050505050565b600060408201905081810360008301526112e2818561104a565b905081810360208301526112f6818461104a565b90509392505050565b60006020820190508181036000830152611318816110ca565b9050919050565b600060208201905081810360008301526113388161110a565b9050919050565b6000602082019050818103600083015261135881611170565b9050919050565b60006020820190508181036000830152611378816111b0565b9050919050565b60006020820190508181036000830152611398816111f0565b9050919050565b60006020820190506113b46000830184611230565b92915050565b60006040820190506113cf6000830185611230565b6113dc6020830184611002565b9392505050565b60006060820190506113f86000830186611230565b818103602083015261140a8185611011565b9050818103604083015261141e8184611011565b9050949350505050565b6000604051905081810181811067ffffffffffffffff8211171561144f5761144e611665565b5b8060405250919050565b600067ffffffffffffffff82111561147457611473611665565b5b601f19601f8301169050602081019050919050565b60008190508160005260206000209050919050565b600081519050919050565b600082825260208201905092915050565b60006114c5826114df565b9050919050565b60008190506114da826116a5565b919050565b600073ffffffffffffffffffffffffffffffffffffffff82169050919050565b6000819050919050565b6000611514826114cc565b9050919050565b82818337600083830152505050565b60005b8381101561154857808201518184015260208101905061152d565b83811115611557576000848401525b50505050565b6000600282049050600182168061157557607f821691505b6020821081141561158957611588611636565b5b50919050565b600061159a826114ff565b91507fffffffffffffffffffffffffffffffffffffffffffffffffffffffffffffffff8214156115cd576115cc6115d8565b5b600182019050919050565b7f4e487b7100000000000000000000000000000000000000000000000000000000600052601160045260246000fd5b7f4e487b7100000000000000000000000000000000000000000000000000000000600052602160045260246000fd5b7f4e487b7100000000000000000000000000000000000000000000000000000000600052602260045260246000fd5b7f4e487b7100000000000000000000000000000000000000000000000000000000600052604160045260246000fd5b6000601f19601f8301169050919050565b600381106116b6576116b5611607565b5b50565b6116c2816114ba565b81146116cd57600080fd5b50565b600381106116dd57600080fd5b50565b6116e9816114ff565b81146116f457600080fd5b5056fea264697066735822122016b9347fb4b62e7437a8628514f18113ed677e19000d5729cb702be9b85bef0964736f6c63430008000033",
  "immutableReferences": {},
  "source": "// SPDX-License-Identifier: MIT\npragma solidity ^0.8.0;\n\ncontract User {\n    address public owner;\n    uint256 public numUsers = 0;\n\n    enum userGroup {\n        GENERAL,\n        VERIFIER,\n        DELETED\n    }\n\n    struct user {\n        string name;\n        string email;\n        userGroup group;\n        address owner;\n    }\n\n    mapping(uint256 => user) public users;\n    mapping(address => user) public usersByAddress;\n\n    event UserAdded(uint256 userAddress, string name, string email);\n    event UserUpdated(uint256 userId, userGroup group);\n    event UserDeleted(string name, string email);\n\n    modifier ownerOnly() {\n        require(\n            msg.sender == owner,\n            \"Only contract owner can call this function\"\n        );\n        _;\n    }\n\n    modifier validUserId(uint256 userId) {\n        require(userId < numUsers, \"The user id is not valid\");\n        _;\n    }\n\n    constructor() {\n        owner = msg.sender;\n    }\n\n    function addUser(\n        string memory name,\n        string memory email\n    ) public returns (uint256) {\n        require(bytes(name).length > 0, \"User name cannot be empty\");\n        require(bytes(email).length > 0, \"User email cannot be empty\");\n\n        uint256 userId = numUsers;\n        users[userId] = user(name, email, userGroup.GENERAL, msg.sender);\n        usersByAddress[msg.sender] = users[userId];\n        numUsers++;\n\n        emit UserAdded(userId, name, email);\n\n        return userId;\n    }\n\n    function updateUserType(\n        uint256 userId,\n        userGroup group\n    ) public ownerOnly validUserId(userId) {\n        users[userId].group = group;\n        emit UserUpdated(userId, group);\n    }\n\n    function deleteUser(uint256 userId) public ownerOnly validUserId(userId) {\n        user storage userToBeDeleted = users[userId];\n\n        require(\n            userToBeDeleted.group != userGroup.DELETED,\n            \"User has already been deleted\"\n        );\n\n        userToBeDeleted.group = userGroup.DELETED;\n\n        emit UserDeleted(userToBeDeleted.name, userToBeDeleted.email);\n    }\n\n    function getUserGroup(uint256 userId) public view returns (User.userGroup) {\n        return users[userId].group;\n    }\n\n    function getUserGroupByAddress(\n        address _userAddress\n    ) public view returns (userGroup) {\n        return usersByAddress[_userAddress].group;\n    }\n\n    function getNumUsers() public view returns (uint256) {\n        return numUsers;\n    }\n}\n",
  "sourcePath": "/Users/meganyee/Desktop/IS4302-GP2/contracts/User.sol",
  "compiler": {
    "name": "solc",
    "version": "0.8.0+commit.c7dfd78e.Emscripten.clang"
  },
  "schemaVersion": "3.4.16",
  "updatedAt": "2024-04-21T14:28:45.220Z",
  "networkType": "ethereum",
  "devdoc": {
    "kind": "dev",
    "methods": {},
    "version": 1
  },
  "userdoc": {
    "kind": "user",
    "methods": {},
    "version": 1
  }
}