{
  "contractName": "User",
  "abi": [
    {
      "inputs": [],
      "stateMutability": "nonpayable",
      "type": "constructor"
    },
    {
      "anonymous": false,
      "inputs": [
        {
          "indexed": false,
          "internalType": "uint256",
          "name": "userAddress",
          "type": "uint256"
        },
        {
          "indexed": false,
          "internalType": "string",
          "name": "name",
          "type": "string"
        },
        {
          "indexed": false,
          "internalType": "string",
          "name": "email",
          "type": "string"
        }
      ],
      "name": "UserAdded",
      "type": "event"
    },
    {
      "anonymous": false,
      "inputs": [
        {
          "indexed": false,
          "internalType": "string",
          "name": "name",
          "type": "string"
        },
        {
          "indexed": false,
          "internalType": "string",
          "name": "email",
          "type": "string"
        }
      ],
      "name": "UserDeleted",
      "type": "event"
    },
    {
      "anonymous": false,
      "inputs": [
        {
          "indexed": false,
          "internalType": "uint256",
          "name": "userId",
          "type": "uint256"
        },
        {
          "indexed": false,
          "internalType": "enum User.userGroup",
          "name": "group",
          "type": "uint8"
        }
      ],
      "name": "UserUpdated",
      "type": "event"
    },
    {
      "inputs": [],
      "name": "numUsers",
      "outputs": [
        {
          "internalType": "uint256",
          "name": "",
          "type": "uint256"
        }
      ],
      "stateMutability": "view",
      "type": "function",
      "constant": true
    },
    {
      "inputs": [],
      "name": "owner",
      "outputs": [
        {
          "internalType": "address",
          "name": "",
          "type": "address"
        }
      ],
      "stateMutability": "view",
      "type": "function",
      "constant": true
    },
    {
      "inputs": [
        {
          "internalType": "uint256",
          "name": "",
          "type": "uint256"
        }
      ],
      "name": "users",
      "outputs": [
        {
          "internalType": "string",
          "name": "name",
          "type": "string"
        },
        {
          "internalType": "string",
          "name": "email",
          "type": "string"
        },
        {
          "internalType": "enum User.userGroup",
          "name": "group",
          "type": "uint8"
        },
        {
          "internalType": "address",
          "name": "owner",
          "type": "address"
        }
      ],
      "stateMutability": "view",
      "type": "function",
      "constant": true
    },
    {
      "inputs": [
        {
          "internalType": "string",
          "name": "name",
          "type": "string"
        },
        {
          "internalType": "string",
          "name": "email",
          "type": "string"
        }
      ],
      "name": "addUser",
      "outputs": [
        {
          "internalType": "uint256",
          "name": "",
          "type": "uint256"
        }
      ],
      "stateMutability": "nonpayable",
      "type": "function"
    },
    {
      "inputs": [
        {
          "internalType": "uint256",
          "name": "userId",
          "type": "uint256"
        },
        {
          "internalType": "enum User.userGroup",
          "name": "group",
          "type": "uint8"
        }
      ],
      "name": "updateUserType",
      "outputs": [],
      "stateMutability": "nonpayable",
      "type": "function"
    },
    {
      "inputs": [
        {
          "internalType": "uint256",
          "name": "userId",
          "type": "uint256"
        }
      ],
      "name": "deleteUser",
      "outputs": [],
      "stateMutability": "nonpayable",
      "type": "function"
    }
  ],
  "bytecode": "0x6080604052600060015534801561001557600080fd5b50336000806101000a81548173ffffffffffffffffffffffffffffffffffffffff021916908373ffffffffffffffffffffffffffffffffffffffff1602179055506111e7806100656000396000f3fe608060405234801561001057600080fd5b50600436106100625760003560e01c8063079eaf341461006757806319a50f4914610097578063365b98b2146100b557806338f14845146100e857806351fb2aff146101045780638da5cb5b14610120575b600080fd5b610081600480360381019061007c9190610a0e565b61013e565b60405161008e9190610e70565b60405180910390f35b61009f610388565b6040516100ac9190610e70565b60405180910390f35b6100cf60048036038101906100ca9190610a7a565b61038e565b6040516100df9493929190610d46565b60405180910390f35b61010260048036038101906100fd9190610a7a565b6104fb565b005b61011e60048036038101906101199190610aa3565b610740565b005b6101286108b5565b6040516101359190610d2b565b60405180910390f35b600080835111610183576040517f08c379a000000000000000000000000000000000000000000000000000000000815260040161017a90610dd0565b60405180910390fd5b60008251116101c7576040517f08c379a00000000000000000000000000000000000000000000000000000000081526004016101be90610e50565b60405180910390fd5b6000600154905060405180608001604052808581526020018481526020016000600281111561021f577f4e487b7100000000000000000000000000000000000000000000000000000000600052602160045260246000fd5b81526020013373ffffffffffffffffffffffffffffffffffffffff1681525060026000838152602001908152602001600020600082015181600001908051906020019061026d9291906108d9565b50602082015181600101908051906020019061028a9291906108d9565b5060408201518160020160006101000a81548160ff021916908360028111156102dc577f4e487b7100000000000000000000000000000000000000000000000000000000600052602160045260246000fd5b021790555060608201518160020160016101000a81548173ffffffffffffffffffffffffffffffffffffffff021916908373ffffffffffffffffffffffffffffffffffffffff1602179055509050506001600081548092919061033e90611060565b91905055507f1abdb95ba643a5034d9c11d4f0c1b1a04c1319f7f0a1dcb48790b1caf0d38e3581858560405161037693929190610eb4565b60405180910390a18091505092915050565b60015481565b60026020528060005260406000206000915090508060000180546103b19061102e565b80601f01602080910402602001604051908101604052809291908181526020018280546103dd9061102e565b801561042a5780601f106103ff5761010080835404028352916020019161042a565b820191906000526020600020905b81548152906001019060200180831161040d57829003601f168201915b50505050509080600101805461043f9061102e565b80601f016020809104026020016040519081016040528092919081815260200182805461046b9061102e565b80156104b85780601f1061048d576101008083540402835291602001916104b8565b820191906000526020600020905b81548152906001019060200180831161049b57829003601f168201915b5050505050908060020160009054906101000a900460ff16908060020160019054906101000a900473ffffffffffffffffffffffffffffffffffffffff16905084565b60008054906101000a900473ffffffffffffffffffffffffffffffffffffffff1673ffffffffffffffffffffffffffffffffffffffff163373ffffffffffffffffffffffffffffffffffffffff1614610589576040517f08c379a000000000000000000000000000000000000000000000000000000000815260040161058090610df0565b60405180910390fd5b8060015481106105ce576040517f08c379a00000000000000000000000000000000000000000000000000000000081526004016105c590610e30565b60405180910390fd5b600060026000848152602001908152602001600020905060028081111561061e577f4e487b7100000000000000000000000000000000000000000000000000000000600052602160045260246000fd5b8160020160009054906101000a900460ff166002811115610668577f4e487b7100000000000000000000000000000000000000000000000000000000600052602160045260246000fd5b14156106a9576040517f08c379a00000000000000000000000000000000000000000000000000000000081526004016106a090610e10565b60405180910390fd5b60028160020160006101000a81548160ff021916908360028111156106f7577f4e487b7100000000000000000000000000000000000000000000000000000000600052602160045260246000fd5b02179055507fe42246d13f641ca3a33350fe14c54d9691fc158a0d608de71a1be6c618f984f78160000182600101604051610733929190610d99565b60405180910390a1505050565b60008054906101000a900473ffffffffffffffffffffffffffffffffffffffff1673ffffffffffffffffffffffffffffffffffffffff163373ffffffffffffffffffffffffffffffffffffffff16146107ce576040517f08c379a00000000000000000000000000000000000000000000000000000000081526004016107c590610df0565b60405180910390fd5b816001548110610813576040517f08c379a000000000000000000000000000000000000000000000000000000000815260040161080a90610e30565b60405180910390fd5b816002600085815260200190815260200160002060020160006101000a81548160ff02191690836002811115610872577f4e487b7100000000000000000000000000000000000000000000000000000000600052602160045260246000fd5b02179055507f687265481195f342f2fe5eede43e2f28ac0fcfe04f51317b696b616a67fa9e5d83836040516108a8929190610e8b565b60405180910390a1505050565b60008054906101000a900473ffffffffffffffffffffffffffffffffffffffff1681565b8280546108e59061102e565b90600052602060002090601f016020900481019282610907576000855561094e565b82601f1061092057805160ff191683800117855561094e565b8280016001018555821561094e579182015b8281111561094d578251825591602001919060010190610932565b5b50905061095b919061095f565b5090565b5b80821115610978576000816000905550600101610960565b5090565b600061098f61098a84610f2a565b610ef9565b9050828152602081018484840111156109a757600080fd5b6109b2848285610fec565b509392505050565b6000813590506109c98161118a565b92915050565b600082601f8301126109e057600080fd5b81356109f084826020860161097c565b91505092915050565b600081359050610a088161119a565b92915050565b60008060408385031215610a2157600080fd5b600083013567ffffffffffffffff811115610a3b57600080fd5b610a47858286016109cf565b925050602083013567ffffffffffffffff811115610a6457600080fd5b610a70858286016109cf565b9150509250929050565b600060208284031215610a8c57600080fd5b6000610a9a848285016109f9565b91505092915050565b60008060408385031215610ab657600080fd5b6000610ac4858286016109f9565b9250506020610ad5858286016109ba565b9150509250929050565b610ae881610f8b565b82525050565b610af781610fda565b82525050565b6000610b0882610f6f565b610b128185610f7a565b9350610b22818560208601610ffb565b610b2b81611165565b840191505092915050565b60008154610b438161102e565b610b4d8186610f7a565b94506001821660008114610b685760018114610b7a57610bad565b60ff1983168652602086019350610bad565b610b8385610f5a565b60005b83811015610ba557815481890152600182019150602081019050610b86565b808801955050505b50505092915050565b6000610bc3601983610f7a565b91507f55736572206e616d652063616e6e6f7420626520656d707479000000000000006000830152602082019050919050565b6000610c03602a83610f7a565b91507f4f6e6c7920636f6e7472616374206f776e65722063616e2063616c6c2074686960008301527f732066756e6374696f6e000000000000000000000000000000000000000000006020830152604082019050919050565b6000610c69601d83610f7a565b91507f557365722068617320616c7265616479206265656e2064656c657465640000006000830152602082019050919050565b6000610ca9601883610f7a565b91507f5468652075736572206964206973206e6f742076616c696400000000000000006000830152602082019050919050565b6000610ce9601a83610f7a565b91507f5573657220656d61696c2063616e6e6f7420626520656d7074790000000000006000830152602082019050919050565b610d2581610fd0565b82525050565b6000602082019050610d406000830184610adf565b92915050565b60006080820190508181036000830152610d608187610afd565b90508181036020830152610d748186610afd565b9050610d836040830185610aee565b610d906060830184610adf565b95945050505050565b60006040820190508181036000830152610db38185610b36565b90508181036020830152610dc78184610b36565b90509392505050565b60006020820190508181036000830152610de981610bb6565b9050919050565b60006020820190508181036000830152610e0981610bf6565b9050919050565b60006020820190508181036000830152610e2981610c5c565b9050919050565b60006020820190508181036000830152610e4981610c9c565b9050919050565b60006020820190508181036000830152610e6981610cdc565b9050919050565b6000602082019050610e856000830184610d1c565b92915050565b6000604082019050610ea06000830185610d1c565b610ead6020830184610aee565b9392505050565b6000606082019050610ec96000830186610d1c565b8181036020830152610edb8185610afd565b90508181036040830152610eef8184610afd565b9050949350505050565b6000604051905081810181811067ffffffffffffffff82111715610f2057610f1f611136565b5b8060405250919050565b600067ffffffffffffffff821115610f4557610f44611136565b5b601f19601f8301169050602081019050919050565b60008190508160005260206000209050919050565b600081519050919050565b600082825260208201905092915050565b6000610f9682610fb0565b9050919050565b6000819050610fab82611176565b919050565b600073ffffffffffffffffffffffffffffffffffffffff82169050919050565b6000819050919050565b6000610fe582610f9d565b9050919050565b82818337600083830152505050565b60005b83811015611019578082015181840152602081019050610ffe565b83811115611028576000848401525b50505050565b6000600282049050600182168061104657607f821691505b6020821081141561105a57611059611107565b5b50919050565b600061106b82610fd0565b91507fffffffffffffffffffffffffffffffffffffffffffffffffffffffffffffffff82141561109e5761109d6110a9565b5b600182019050919050565b7f4e487b7100000000000000000000000000000000000000000000000000000000600052601160045260246000fd5b7f4e487b7100000000000000000000000000000000000000000000000000000000600052602160045260246000fd5b7f4e487b7100000000000000000000000000000000000000000000000000000000600052602260045260246000fd5b7f4e487b7100000000000000000000000000000000000000000000000000000000600052604160045260246000fd5b6000601f19601f8301169050919050565b60038110611187576111866110d8565b5b50565b6003811061119757600080fd5b50565b6111a381610fd0565b81146111ae57600080fd5b5056fea26469706673582212203667e5c2d998ac331dab8b73b6f9e24514ec21d6ca5fb5376c97c12dab63cf3164736f6c63430008000033",
  "immutableReferences": {},
  "source": "// SPDX-License-Identifier: MIT\npragma solidity ^0.8.0;\n\ncontract User {\n    address public owner;\n    uint256 public numUsers = 0;\n    \n    enum userGroup {\n        GENERAL,\n        VERIFIER,\n        DELETED\n    }\n\n    struct user {\n        string name;\n        string email;\n        userGroup group;\n        address owner;\n    }\n\n    mapping(uint256 => user) public users;\n\n    event UserAdded(uint256 userAddress, string name, string email);\n    event UserUpdated(uint256 userId, userGroup group);\n    event UserDeleted(string name, string email);\n    \n    modifier ownerOnly() {\n        require(msg.sender == owner, \"Only contract owner can call this function\");\n        _;\n    }\n\n    modifier validUserId(uint256 userId) {\n        require(userId < numUsers, \"The user id is not valid\");\n        _;\n    }\n    \n    constructor() {\n        owner = msg.sender; \n    }\n\n    function addUser(string memory name, string memory email) public returns (uint256) {\n        require(bytes(name).length > 0, \"User name cannot be empty\");\n        require(bytes(email).length > 0, \"User email cannot be empty\");\n\n        uint256 userId = numUsers;\n        users[userId] = user(name, email, userGroup.GENERAL, msg.sender); \n        numUsers++;\n        \n        emit UserAdded(userId, name, email);\n\n        return userId;\n    }\n\n    function updateUserType(uint256 userId, userGroup group) public ownerOnly validUserId(userId) {\n        users[userId].group = group;\n        emit UserUpdated(userId, group);\n    }\n\n    function deleteUser(uint256 userId) public ownerOnly validUserId(userId) {\n        user storage userToBeDeleted = users[userId];\n\n        require(userToBeDeleted.group != userGroup.DELETED, \"User has already been deleted\");\n        \n        userToBeDeleted.group = userGroup.DELETED;\n\n        emit UserDeleted(userToBeDeleted.name, userToBeDeleted.email);\n    }\n}\n",
  "sourcePath": "/Users/GuoJun/Documents/NUS/Y4S2/IS4302/IS4302-GP2/contracts/User.sol",
  "compiler": {
    "name": "solc",
    "version": "0.8.0+commit.c7dfd78e.Emscripten.clang"
  },
  "schemaVersion": "3.4.16",
  "updatedAt": "2024-04-17T07:12:55.970Z",
  "networkType": "ethereum",
  "devdoc": {
    "kind": "dev",
    "methods": {},
    "version": 1
  },
  "userdoc": {
    "kind": "user",
    "methods": {},
    "version": 1
  }
}