{
  "contractName": "User",
  "abi": [
    {
      "inputs": [],
      "stateMutability": "nonpayable",
      "type": "constructor"
    },
    {
      "anonymous": false,
      "inputs": [
        {
          "indexed": true,
          "internalType": "uint256",
          "name": "userId",
          "type": "uint256"
        }
      ],
      "name": "createUserEvent",
      "type": "event"
    },
    {
      "anonymous": false,
      "inputs": [
        {
          "indexed": true,
          "internalType": "uint256",
          "name": "userId",
          "type": "uint256"
        }
      ],
      "name": "deleteUserEvent",
      "type": "event"
    },
    {
      "anonymous": false,
      "inputs": [
        {
          "indexed": true,
          "internalType": "uint256",
          "name": "userId",
          "type": "uint256"
        }
      ],
      "name": "updateUserEvent",
      "type": "event"
    },
    {
      "inputs": [],
      "name": "numUsers",
      "outputs": [
        {
          "internalType": "uint256",
          "name": "",
          "type": "uint256"
        }
      ],
      "stateMutability": "view",
      "type": "function",
      "constant": true
    },
    {
      "inputs": [],
      "name": "owner",
      "outputs": [
        {
          "internalType": "address",
          "name": "",
          "type": "address"
        }
      ],
      "stateMutability": "view",
      "type": "function",
      "constant": true
    },
    {
      "inputs": [
        {
          "internalType": "address",
          "name": "",
          "type": "address"
        }
      ],
      "name": "users",
      "outputs": [
        {
          "internalType": "string",
          "name": "name",
          "type": "string"
        },
        {
          "internalType": "string",
          "name": "email",
          "type": "string"
        },
        {
          "internalType": "bool",
          "name": "voter",
          "type": "bool"
        }
      ],
      "stateMutability": "view",
      "type": "function",
      "constant": true
    },
    {
      "inputs": [
        {
          "internalType": "string",
          "name": "_name",
          "type": "string"
        },
        {
          "internalType": "string",
          "name": "_email",
          "type": "string"
        }
      ],
      "name": "addUser",
      "outputs": [
        {
          "internalType": "uint256",
          "name": "",
          "type": "uint256"
        }
      ],
      "stateMutability": "nonpayable",
      "type": "function"
    },
    {
      "inputs": [
        {
          "internalType": "uint256",
          "name": "_userId",
          "type": "uint256"
        },
        {
          "internalType": "string",
          "name": "_newEmail",
          "type": "string"
        }
      ],
      "name": "updateUser",
      "outputs": [],
      "stateMutability": "nonpayable",
      "type": "function"
    },
    {
      "inputs": [
        {
          "internalType": "uint256",
          "name": "_userId",
          "type": "uint256"
        }
      ],
      "name": "deleteUser",
      "outputs": [],
      "stateMutability": "nonpayable",
      "type": "function"
    },
    {
      "inputs": [
        {
          "internalType": "uint256",
          "name": "_userId",
          "type": "uint256"
        },
        {
          "internalType": "bool",
          "name": "_voterStatus",
          "type": "bool"
        }
      ],
      "name": "setUserVoterStatus",
      "outputs": [],
      "stateMutability": "nonpayable",
      "type": "function"
    }
  ],
  "bytecode": "0x608060405234801561001057600080fd5b5033600160006101000a81548173ffffffffffffffffffffffffffffffffffffffff021916908373ffffffffffffffffffffffffffffffffffffffff160217905550611116806100616000396000f3fe608060405234801561001057600080fd5b506004361061007d5760003560e01c80638da5cb5b1161005b5780638da5cb5b146100ec578063a87430ba1461010a578063d85340e71461013c578063f643e84b146101585761007d565b8063079eaf341461008257806319a50f49146100b257806338f14845146100d0575b600080fd5b61009c60048036038101906100979190610a6f565b610174565b6040516100a99190610e60565b60405180910390f35b6100ba610311565b6040516100c79190610e60565b60405180910390f35b6100ea60048036038101906100e59190610adb565b610317565b005b6100f461049d565b6040516101019190610d60565b60405180910390f35b610124600480360381019061011f9190610a46565b6104c3565b60405161013393929190610d7b565b60405180910390f35b61015660048036038101906101519190610b40565b61060a565b005b610172600480360381019061016d9190610b04565b610778565b005b6000600160009054906101000a900473ffffffffffffffffffffffffffffffffffffffff1673ffffffffffffffffffffffffffffffffffffffff163373ffffffffffffffffffffffffffffffffffffffff1614610206576040517f08c379a00000000000000000000000000000000000000000000000000000000081526004016101fd90610dc0565b60405180910390fd5b6002600081548092919061021990610fb4565b91905055506040518060600160405280848152602001838152602001600015158152506000803373ffffffffffffffffffffffffffffffffffffffff1673ffffffffffffffffffffffffffffffffffffffff16815260200190815260200160002060008201518160000190805190602001906102969291906108bc565b5060208201518160010190805190602001906102b39291906108bc565b5060408201518160020160006101000a81548160ff0219169083151502179055509050506002547fcd85fa5516f1c94e3fb14c19907321427e3328c1bd5cb5057415a7835d0c85a460405160405180910390a2600254905092915050565b60025481565b600160009054906101000a900473ffffffffffffffffffffffffffffffffffffffff1673ffffffffffffffffffffffffffffffffffffffff163373ffffffffffffffffffffffffffffffffffffffff16146103a7576040517f08c379a000000000000000000000000000000000000000000000000000000000815260040161039e90610e40565b60405180910390fd5b60025481111580156103b95750600081115b6103f8576040517f08c379a00000000000000000000000000000000000000000000000000000000081526004016103ef90610de0565b60405180910390fd5b6000803373ffffffffffffffffffffffffffffffffffffffff1673ffffffffffffffffffffffffffffffffffffffff168152602001908152602001600020600080820160006104479190610942565b6001820160006104579190610942565b6002820160006101000a81549060ff02191690555050807f4f5722ce8839355aa0852452515b47f48836124ffdbc3638587030ed7031033460405160405180910390a250565b600160009054906101000a900473ffffffffffffffffffffffffffffffffffffffff1681565b60006020528060005260406000206000915090508060000180546104e690610f82565b80601f016020809104026020016040519081016040528092919081815260200182805461051290610f82565b801561055f5780601f106105345761010080835404028352916020019161055f565b820191906000526020600020905b81548152906001019060200180831161054257829003601f168201915b50505050509080600101805461057490610f82565b80601f01602080910402602001604051908101604052809291908181526020018280546105a090610f82565b80156105ed5780601f106105c2576101008083540402835291602001916105ed565b820191906000526020600020905b8154815290600101906020018083116105d057829003601f168201915b5050505050908060020160009054906101000a900460ff16905083565b600160009054906101000a900473ffffffffffffffffffffffffffffffffffffffff1673ffffffffffffffffffffffffffffffffffffffff163373ffffffffffffffffffffffffffffffffffffffff161461069a576040517f08c379a000000000000000000000000000000000000000000000000000000000815260040161069190610e20565b60405180910390fd5b60025482111580156106ac5750600082115b6106eb576040517f08c379a00000000000000000000000000000000000000000000000000000000081526004016106e290610de0565b60405180910390fd5b60008060003373ffffffffffffffffffffffffffffffffffffffff1673ffffffffffffffffffffffffffffffffffffffff1681526020019081526020016000209050818160010190805190602001906107459291906108bc565b50827f58a017cea6c8b6f1988fd521edb2a05b6d9c1a4ba5a960c69e622805f0e203c160405160405180910390a2505050565b600160009054906101000a900473ffffffffffffffffffffffffffffffffffffffff1673ffffffffffffffffffffffffffffffffffffffff163373ffffffffffffffffffffffffffffffffffffffff1614610808576040517f08c379a00000000000000000000000000000000000000000000000000000000081526004016107ff90610e00565b60405180910390fd5b600254821115801561081a5750600082115b610859576040517f08c379a000000000000000000000000000000000000000000000000000000000815260040161085090610de0565b60405180910390fd5b60008060003373ffffffffffffffffffffffffffffffffffffffff1673ffffffffffffffffffffffffffffffffffffffff1681526020019081526020016000209050818160020160006101000a81548160ff021916908315150217905550505050565b8280546108c890610f82565b90600052602060002090601f0160209004810192826108ea5760008555610931565b82601f1061090357805160ff1916838001178555610931565b82800160010185558215610931579182015b82811115610930578251825591602001919060010190610915565b5b50905061093e9190610982565b5090565b50805461094e90610f82565b6000825580601f10610960575061097f565b601f01602090049060005260206000209081019061097e9190610982565b5b50565b5b8082111561099b576000816000905550600101610983565b5090565b60006109b26109ad84610eac565b610e7b565b9050828152602081018484840111156109ca57600080fd5b6109d5848285610f40565b509392505050565b6000813590506109ec8161109b565b92915050565b600081359050610a01816110b2565b92915050565b600082601f830112610a1857600080fd5b8135610a2884826020860161099f565b91505092915050565b600081359050610a40816110c9565b92915050565b600060208284031215610a5857600080fd5b6000610a66848285016109dd565b91505092915050565b60008060408385031215610a8257600080fd5b600083013567ffffffffffffffff811115610a9c57600080fd5b610aa885828601610a07565b925050602083013567ffffffffffffffff811115610ac557600080fd5b610ad185828601610a07565b9150509250929050565b600060208284031215610aed57600080fd5b6000610afb84828501610a31565b91505092915050565b60008060408385031215610b1757600080fd5b6000610b2585828601610a31565b9250506020610b36858286016109f2565b9150509250929050565b60008060408385031215610b5357600080fd5b6000610b6185828601610a31565b925050602083013567ffffffffffffffff811115610b7e57600080fd5b610b8a85828601610a07565b9150509250929050565b610b9d81610ef8565b82525050565b610bac81610f0a565b82525050565b6000610bbd82610edc565b610bc78185610ee7565b9350610bd7818560208601610f4f565b610be08161108a565b840191505092915050565b6000610bf8601d83610ee7565b91507f4f6e6c7920746865206f776e65722063616e206164642075736572732e0000006000830152602082019050919050565b6000610c38601083610ee7565b91507f496e76616c696420757365722049442e000000000000000000000000000000006000830152602082019050919050565b6000610c78602b83610ee7565b91507f4f6e6c7920746865206f776e65722063616e207570646174652074686520766f60008301527f746572207374617475732e0000000000000000000000000000000000000000006020830152604082019050919050565b6000610cde602083610ee7565b91507f4f6e6c7920746865206f776e65722063616e207570646174652075736572732e6000830152602082019050919050565b6000610d1e602083610ee7565b91507f4f6e6c7920746865206f776e65722063616e2064656c6574652075736572732e6000830152602082019050919050565b610d5a81610f36565b82525050565b6000602082019050610d756000830184610b94565b92915050565b60006060820190508181036000830152610d958186610bb2565b90508181036020830152610da98185610bb2565b9050610db86040830184610ba3565b949350505050565b60006020820190508181036000830152610dd981610beb565b9050919050565b60006020820190508181036000830152610df981610c2b565b9050919050565b60006020820190508181036000830152610e1981610c6b565b9050919050565b60006020820190508181036000830152610e3981610cd1565b9050919050565b60006020820190508181036000830152610e5981610d11565b9050919050565b6000602082019050610e756000830184610d51565b92915050565b6000604051905081810181811067ffffffffffffffff82111715610ea257610ea161105b565b5b8060405250919050565b600067ffffffffffffffff821115610ec757610ec661105b565b5b601f19601f8301169050602081019050919050565b600081519050919050565b600082825260208201905092915050565b6000610f0382610f16565b9050919050565b60008115159050919050565b600073ffffffffffffffffffffffffffffffffffffffff82169050919050565b6000819050919050565b82818337600083830152505050565b60005b83811015610f6d578082015181840152602081019050610f52565b83811115610f7c576000848401525b50505050565b60006002820490506001821680610f9a57607f821691505b60208210811415610fae57610fad61102c565b5b50919050565b6000610fbf82610f36565b91507fffffffffffffffffffffffffffffffffffffffffffffffffffffffffffffffff821415610ff257610ff1610ffd565b5b600182019050919050565b7f4e487b7100000000000000000000000000000000000000000000000000000000600052601160045260246000fd5b7f4e487b7100000000000000000000000000000000000000000000000000000000600052602260045260246000fd5b7f4e487b7100000000000000000000000000000000000000000000000000000000600052604160045260246000fd5b6000601f19601f8301169050919050565b6110a481610ef8565b81146110af57600080fd5b50565b6110bb81610f0a565b81146110c657600080fd5b50565b6110d281610f36565b81146110dd57600080fd5b5056fea2646970667358221220ee77f1c89a0b1b62c724d3c1e7f06fe8f7a939e18b8c31b3e0917de8a826c29964736f6c63430008000033",
  "immutableReferences": {},
  "source": "// SPDX-License-Identifier: MIT\npragma solidity ^0.8.0;\n\ncontract User {\n    // Define the user structure according to the diagram\n    struct UserStruct {\n        string name;\n        string email;\n        bool voter;\n    }\n\n    // A mapping to keep track of users by their Ethereum address\n    mapping(address => UserStruct) public users;\n\n    // An owner address variable for permissioned function calls\n    address public owner;\n\n    // A counter to keep track of the number of users\n    uint256 public numUsers;\n\n    // Events for user addition, update, and deletion\n    event createUserEvent(uint256 indexed userId);\n    event updateUserEvent(uint256 indexed userId);\n    event deleteUserEvent(uint256 indexed userId);\n\n    constructor() {\n        owner = msg.sender; // Set the contract creator as the owner\n    }\n\n    // Function to add a new user\n    function addUser(string memory _name, string memory _email) public returns (uint256) {\n        require(msg.sender == owner, \"Only the owner can add users.\");\n        numUsers++; // Increment the counter for the user ID\n        users[msg.sender] = UserStruct(_name, _email, false); // Set the voter status to false by default\n        emit createUserEvent(numUsers);\n        return numUsers;\n    }\n\n    // Function to update an existing user's email\n    function updateUser(uint256 _userId, string memory _newEmail) public {\n        require(msg.sender == owner, \"Only the owner can update users.\");\n        require(_userId <= numUsers && _userId > 0, \"Invalid user ID.\");\n        UserStruct storage user = users[msg.sender];\n        user.email = _newEmail;\n        emit updateUserEvent(_userId);\n    }\n\n    // Function to delete a user\n    function deleteUser(uint256 _userId) public {\n        require(msg.sender == owner, \"Only the owner can delete users.\");\n        require(_userId <= numUsers && _userId > 0, \"Invalid user ID.\");\n        delete users[msg.sender];\n        emit deleteUserEvent(_userId);\n    }\n\n    // Function to set a user's voter status\n    function setUserVoterStatus(uint256 _userId, bool _voterStatus) public {\n        require(msg.sender == owner, \"Only the owner can update the voter status.\");\n        require(_userId <= numUsers && _userId > 0, \"Invalid user ID.\");\n        UserStruct storage user = users[msg.sender];\n        user.voter = _voterStatus;\n    }\n}\n",
  "sourcePath": "/Users/ryanng/is4302-project/IS4302-GP2/contracts/User.sol",
  "compiler": {
    "name": "solc",
    "version": "0.8.0+commit.c7dfd78e.Emscripten.clang"
  },
  "schemaVersion": "3.4.16",
  "updatedAt": "2024-04-10T06:39:22.195Z",
  "networkType": "ethereum",
  "devdoc": {
    "kind": "dev",
    "methods": {},
    "version": 1
  },
  "userdoc": {
    "kind": "user",
    "methods": {},
    "version": 1
  }
}