{
  "contractName": "User",
  "abi": [
    {
      "inputs": [
        {
          "internalType": "address",
          "name": "_tokenAddress",
          "type": "address"
        }
      ],
      "stateMutability": "nonpayable",
      "type": "constructor"
    },
    {
      "inputs": [],
      "name": "token",
      "outputs": [
        {
          "internalType": "contract ERC20",
          "name": "",
          "type": "address"
        }
      ],
      "stateMutability": "view",
      "type": "function",
      "constant": true
    },
    {
      "inputs": [
        {
          "internalType": "uint256",
          "name": "",
          "type": "uint256"
        }
      ],
      "name": "userAddresses",
      "outputs": [
        {
          "internalType": "address",
          "name": "",
          "type": "address"
        }
      ],
      "stateMutability": "view",
      "type": "function",
      "constant": true
    },
    {
      "inputs": [
        {
          "internalType": "address",
          "name": "",
          "type": "address"
        }
      ],
      "name": "users",
      "outputs": [
        {
          "internalType": "address",
          "name": "userAddress",
          "type": "address"
        },
        {
          "internalType": "string",
          "name": "username",
          "type": "string"
        },
        {
          "internalType": "string",
          "name": "email",
          "type": "string"
        }
      ],
      "stateMutability": "view",
      "type": "function",
      "constant": true
    },
    {
      "inputs": [
        {
          "internalType": "string",
          "name": "_username",
          "type": "string"
        },
        {
          "internalType": "string",
          "name": "_email",
          "type": "string"
        }
      ],
      "name": "registerUser",
      "outputs": [],
      "stateMutability": "nonpayable",
      "type": "function"
    },
    {
      "inputs": [
        {
          "internalType": "string",
          "name": "_newEmail",
          "type": "string"
        }
      ],
      "name": "updateUserEmail",
      "outputs": [],
      "stateMutability": "nonpayable",
      "type": "function"
    },
    {
      "inputs": [
        {
          "internalType": "address",
          "name": "_userAddress",
          "type": "address"
        }
      ],
      "name": "getUserProfile",
      "outputs": [
        {
          "components": [
            {
              "internalType": "address",
              "name": "userAddress",
              "type": "address"
            },
            {
              "internalType": "string",
              "name": "username",
              "type": "string"
            },
            {
              "internalType": "string",
              "name": "email",
              "type": "string"
            }
          ],
          "internalType": "struct User.UserProfile",
          "name": "",
          "type": "tuple"
        }
      ],
      "stateMutability": "view",
      "type": "function",
      "constant": true
    }
  ],
  "bytecode": "0x608060405234801561001057600080fd5b506040516110383803806110388339818101604052810190610032919061008d565b806000806101000a81548173ffffffffffffffffffffffffffffffffffffffff021916908373ffffffffffffffffffffffffffffffffffffffff160217905550506100ff565b600081519050610087816100e8565b92915050565b60006020828403121561009f57600080fd5b60006100ad84828501610078565b91505092915050565b60006100c1826100c8565b9050919050565b600073ffffffffffffffffffffffffffffffffffffffff82169050919050565b6100f1816100b6565b81146100fc57600080fd5b50565b610f2a8061010e6000396000f3fe608060405234801561001057600080fd5b50600436106100625760003560e01c80631d2e4afd14610067578063470d3b4c14610083578063502c9bd51461009f578063987ee156146100cf578063a87430ba146100ff578063fc0c546a14610131575b600080fd5b610081600480360381019061007c9190610a0d565b61014f565b005b61009d600480360381019061009891906109cc565b61037b565b005b6100b960048036038101906100b49190610a79565b6104a7565b6040516100c69190610c18565b60405180910390f35b6100e960048036038101906100e491906109a3565b6104e6565b6040516100f69190610cd3565b60405180910390f35b610119600480360381019061011491906109a3565b6106b9565b60405161012893929190610c33565b60405180910390f35b610139610813565b6040516101469190610c78565b60405180910390f35b600073ffffffffffffffffffffffffffffffffffffffff16600160003373ffffffffffffffffffffffffffffffffffffffff1673ffffffffffffffffffffffffffffffffffffffff16815260200190815260200160002060000160009054906101000a900473ffffffffffffffffffffffffffffffffffffffff1673ffffffffffffffffffffffffffffffffffffffff1614610220576040517f08c379a000000000000000000000000000000000000000000000000000000000815260040161021790610c93565b60405180910390fd5b60405180606001604052803373ffffffffffffffffffffffffffffffffffffffff16815260200183815260200182815250600160003373ffffffffffffffffffffffffffffffffffffffff1673ffffffffffffffffffffffffffffffffffffffff16815260200190815260200160002060008201518160000160006101000a81548173ffffffffffffffffffffffffffffffffffffffff021916908373ffffffffffffffffffffffffffffffffffffffff16021790555060208201518160010190805190602001906102f3929190610837565b506040820151816002019080519060200190610310929190610837565b509050506002339080600181540180825580915050600190039060005260206000200160009091909190916101000a81548173ffffffffffffffffffffffffffffffffffffffff021916908373ffffffffffffffffffffffffffffffffffffffff1602179055505050565b600073ffffffffffffffffffffffffffffffffffffffff16600160003373ffffffffffffffffffffffffffffffffffffffff1673ffffffffffffffffffffffffffffffffffffffff16815260200190815260200160002060000160009054906101000a900473ffffffffffffffffffffffffffffffffffffffff1673ffffffffffffffffffffffffffffffffffffffff16141561044d576040517f08c379a000000000000000000000000000000000000000000000000000000000815260040161044490610cb3565b60405180910390fd5b80600160003373ffffffffffffffffffffffffffffffffffffffff1673ffffffffffffffffffffffffffffffffffffffff16815260200190815260200160002060020190805190602001906104a3929190610837565b5050565b600281815481106104b757600080fd5b906000526020600020016000915054906101000a900473ffffffffffffffffffffffffffffffffffffffff1681565b6104ee6108bd565b600160008373ffffffffffffffffffffffffffffffffffffffff1673ffffffffffffffffffffffffffffffffffffffff1681526020019081526020016000206040518060600160405290816000820160009054906101000a900473ffffffffffffffffffffffffffffffffffffffff1673ffffffffffffffffffffffffffffffffffffffff1673ffffffffffffffffffffffffffffffffffffffff16815260200160018201805461059e90610e25565b80601f01602080910402602001604051908101604052809291908181526020018280546105ca90610e25565b80156106175780601f106105ec57610100808354040283529160200191610617565b820191906000526020600020905b8154815290600101906020018083116105fa57829003601f168201915b5050505050815260200160028201805461063090610e25565b80601f016020809104026020016040519081016040528092919081815260200182805461065c90610e25565b80156106a95780601f1061067e576101008083540402835291602001916106a9565b820191906000526020600020905b81548152906001019060200180831161068c57829003601f168201915b5050505050815250509050919050565b60016020528060005260406000206000915090508060000160009054906101000a900473ffffffffffffffffffffffffffffffffffffffff169080600101805461070290610e25565b80601f016020809104026020016040519081016040528092919081815260200182805461072e90610e25565b801561077b5780601f106107505761010080835404028352916020019161077b565b820191906000526020600020905b81548152906001019060200180831161075e57829003601f168201915b50505050509080600201805461079090610e25565b80601f01602080910402602001604051908101604052809291908181526020018280546107bc90610e25565b80156108095780601f106107de57610100808354040283529160200191610809565b820191906000526020600020905b8154815290600101906020018083116107ec57829003601f168201915b5050505050905083565b60008054906101000a900473ffffffffffffffffffffffffffffffffffffffff1681565b82805461084390610e25565b90600052602060002090601f01602090048101928261086557600085556108ac565b82601f1061087e57805160ff19168380011785556108ac565b828001600101855582156108ac579182015b828111156108ab578251825591602001919060010190610890565b5b5090506108b991906108f4565b5090565b6040518060600160405280600073ffffffffffffffffffffffffffffffffffffffff16815260200160608152602001606081525090565b5b8082111561090d5760008160009055506001016108f5565b5090565b600061092461091f84610d26565b610cf5565b90508281526020810184848401111561093c57600080fd5b610947848285610de3565b509392505050565b60008135905061095e81610ec6565b92915050565b600082601f83011261097557600080fd5b8135610985848260208601610911565b91505092915050565b60008135905061099d81610edd565b92915050565b6000602082840312156109b557600080fd5b60006109c38482850161094f565b91505092915050565b6000602082840312156109de57600080fd5b600082013567ffffffffffffffff8111156109f857600080fd5b610a0484828501610964565b91505092915050565b60008060408385031215610a2057600080fd5b600083013567ffffffffffffffff811115610a3a57600080fd5b610a4685828601610964565b925050602083013567ffffffffffffffff811115610a6357600080fd5b610a6f85828601610964565b9150509250929050565b600060208284031215610a8b57600080fd5b6000610a998482850161098e565b91505092915050565b610aab81610d83565b82525050565b610aba81610d83565b82525050565b610ac981610dbf565b82525050565b6000610ada82610d56565b610ae48185610d61565b9350610af4818560208601610df2565b610afd81610eb5565b840191505092915050565b6000610b1382610d56565b610b1d8185610d72565b9350610b2d818560208601610df2565b610b3681610eb5565b840191505092915050565b6000610b4e601883610d72565b91507f5573657220616c726561647920726567697374657265642e00000000000000006000830152602082019050919050565b6000610b8e601483610d72565b91507f55736572206e6f7420726567697374657265642e0000000000000000000000006000830152602082019050919050565b6000606083016000830151610bd96000860182610aa2565b5060208301518482036020860152610bf18282610acf565b91505060408301518482036040860152610c0b8282610acf565b9150508091505092915050565b6000602082019050610c2d6000830184610ab1565b92915050565b6000606082019050610c486000830186610ab1565b8181036020830152610c5a8185610b08565b90508181036040830152610c6e8184610b08565b9050949350505050565b6000602082019050610c8d6000830184610ac0565b92915050565b60006020820190508181036000830152610cac81610b41565b9050919050565b60006020820190508181036000830152610ccc81610b81565b9050919050565b60006020820190508181036000830152610ced8184610bc1565b905092915050565b6000604051905081810181811067ffffffffffffffff82111715610d1c57610d1b610e86565b5b8060405250919050565b600067ffffffffffffffff821115610d4157610d40610e86565b5b601f19601f8301169050602081019050919050565b600081519050919050565b600082825260208201905092915050565b600082825260208201905092915050565b6000610d8e82610d95565b9050919050565b600073ffffffffffffffffffffffffffffffffffffffff82169050919050565b6000819050919050565b6000610dca82610dd1565b9050919050565b6000610ddc82610d95565b9050919050565b82818337600083830152505050565b60005b83811015610e10578082015181840152602081019050610df5565b83811115610e1f576000848401525b50505050565b60006002820490506001821680610e3d57607f821691505b60208210811415610e5157610e50610e57565b5b50919050565b7f4e487b7100000000000000000000000000000000000000000000000000000000600052602260045260246000fd5b7f4e487b7100000000000000000000000000000000000000000000000000000000600052604160045260246000fd5b6000601f19601f8301169050919050565b610ecf81610d83565b8114610eda57600080fd5b50565b610ee681610db5565b8114610ef157600080fd5b5056fea2646970667358221220ba3261654ec8096e4779e0c042544ad3969863844f1c8e8c59c3683d68185a3364736f6c63430008000033",
  "immutableReferences": {},
  "source": "// SPDX-License-Identifier: MIT\npragma solidity ^0.8.0;\n\nimport \"./ERC20.sol\";\n\ncontract User {\n    struct UserProfile {\n        address userAddress;\n        string username;\n        string email;\n    }\n\n    ERC20 public token;\n    mapping(address => UserProfile) public users;\n    address[] public userAddresses;\n\n    constructor(address _tokenAddress) {\n        token = ERC20(_tokenAddress);\n    }\n\n    function registerUser(string memory _username, string memory _email) public {\n        require(users[msg.sender].userAddress == address(0), \"User already registered.\");\n        users[msg.sender] = UserProfile(msg.sender, _username, _email);\n        userAddresses.push(msg.sender);\n    }\n\n    function updateUserEmail(string memory _newEmail) public {\n        require(users[msg.sender].userAddress != address(0), \"User not registered.\");\n        users[msg.sender].email = _newEmail;\n    }\n\n    function getUserProfile(address _userAddress) public view returns (UserProfile memory) {\n        return users[_userAddress];\n    }\n}\n",
  "sourcePath": "/Users/GuoJun/Documents/NUS/Y4S2/IS4302/IS4302-GP2/contracts/User.sol",
  "compiler": {
    "name": "solc",
    "version": "0.8.0+commit.c7dfd78e.Emscripten.clang"
  },
  "schemaVersion": "3.4.16",
  "updatedAt": "2024-04-10T05:38:18.386Z",
  "networkType": "ethereum",
  "devdoc": {
    "kind": "dev",
    "methods": {},
    "version": 1
  },
  "userdoc": {
    "kind": "user",
    "methods": {},
    "version": 1
  }
}