{
  "contractName": "User",
  "abi": [
    {
      "inputs": [],
      "stateMutability": "nonpayable",
      "type": "constructor"
    },
    {
      "anonymous": false,
      "inputs": [
        {
          "indexed": false,
          "internalType": "uint256",
          "name": "userAddress",
          "type": "uint256"
        },
        {
          "indexed": false,
          "internalType": "string",
          "name": "name",
          "type": "string"
        },
        {
          "indexed": false,
          "internalType": "string",
          "name": "email",
          "type": "string"
        }
      ],
      "name": "UserAdded",
      "type": "event"
    },
    {
      "anonymous": false,
      "inputs": [
        {
          "indexed": false,
          "internalType": "uint256",
          "name": "userId",
          "type": "uint256"
        }
      ],
      "name": "UserDeleted",
      "type": "event"
    },
    {
      "anonymous": false,
      "inputs": [
        {
          "indexed": false,
          "internalType": "uint256",
          "name": "userId",
          "type": "uint256"
        },
        {
          "indexed": false,
          "internalType": "enum User.userGroup",
          "name": "group",
          "type": "uint8"
        }
      ],
      "name": "UserUpdated",
      "type": "event"
    },
    {
      "inputs": [],
      "name": "numUsers",
      "outputs": [
        {
          "internalType": "uint256",
          "name": "",
          "type": "uint256"
        }
      ],
      "stateMutability": "view",
      "type": "function",
      "constant": true
    },
    {
      "inputs": [],
      "name": "owner",
      "outputs": [
        {
          "internalType": "address",
          "name": "",
          "type": "address"
        }
      ],
      "stateMutability": "view",
      "type": "function",
      "constant": true
    },
    {
      "inputs": [
        {
          "internalType": "uint256",
          "name": "",
          "type": "uint256"
        }
      ],
      "name": "users",
      "outputs": [
        {
          "internalType": "string",
          "name": "name",
          "type": "string"
        },
        {
          "internalType": "string",
          "name": "email",
          "type": "string"
        },
        {
          "internalType": "enum User.userGroup",
          "name": "group",
          "type": "uint8"
        },
        {
          "internalType": "address",
          "name": "owner",
          "type": "address"
        }
      ],
      "stateMutability": "view",
      "type": "function",
      "constant": true
    },
    {
      "inputs": [
        {
          "internalType": "string",
          "name": "name",
          "type": "string"
        },
        {
          "internalType": "string",
          "name": "email",
          "type": "string"
        }
      ],
      "name": "addUser",
      "outputs": [
        {
          "internalType": "uint256",
          "name": "",
          "type": "uint256"
        }
      ],
      "stateMutability": "nonpayable",
      "type": "function"
    },
    {
      "inputs": [
        {
          "internalType": "uint256",
          "name": "userId",
          "type": "uint256"
        },
        {
          "internalType": "enum User.userGroup",
          "name": "group",
          "type": "uint8"
        }
      ],
      "name": "updateUserType",
      "outputs": [],
      "stateMutability": "nonpayable",
      "type": "function"
    },
    {
      "inputs": [
        {
          "internalType": "uint256",
          "name": "userId",
          "type": "uint256"
        }
      ],
      "name": "deleteUser",
      "outputs": [],
      "stateMutability": "nonpayable",
      "type": "function"
    }
  ],
  "bytecode": "0x6080604052600060015534801561001557600080fd5b50336000806101000a81548173ffffffffffffffffffffffffffffffffffffffff021916908373ffffffffffffffffffffffffffffffffffffffff160217905550611035806100656000396000f3fe608060405234801561001057600080fd5b50600436106100625760003560e01c8063079eaf341461006757806319a50f4914610097578063365b98b2146100b557806338f14845146100e857806351fb2aff146101045780638da5cb5b14610120575b600080fd5b610081600480360381019061007c9190610988565b61013e565b60405161008e9190610cd3565b60405180910390f35b61009f610388565b6040516100ac9190610cd3565b60405180910390f35b6100cf60048036038101906100ca91906109f4565b61038e565b6040516100df9493929190610c00565b60405180910390f35b61010260048036038101906100fd91906109f4565b6104fb565b005b61011e60048036038101906101199190610a1d565b61067a565b005b6101286107ef565b6040516101359190610be5565b60405180910390f35b600080835111610183576040517f08c379a000000000000000000000000000000000000000000000000000000000815260040161017a90610c53565b60405180910390fd5b60008251116101c7576040517f08c379a00000000000000000000000000000000000000000000000000000000081526004016101be90610c93565b60405180910390fd5b6000600154905060405180608001604052808581526020018481526020016000600181111561021f577f4e487b7100000000000000000000000000000000000000000000000000000000600052602160045260246000fd5b81526020013373ffffffffffffffffffffffffffffffffffffffff1681525060026000838152602001908152602001600020600082015181600001908051906020019061026d929190610813565b50602082015181600101908051906020019061028a929190610813565b5060408201518160020160006101000a81548160ff021916908360018111156102dc577f4e487b7100000000000000000000000000000000000000000000000000000000600052602160045260246000fd5b021790555060608201518160020160016101000a81548173ffffffffffffffffffffffffffffffffffffffff021916908373ffffffffffffffffffffffffffffffffffffffff1602179055509050506001600081548092919061033e90610eae565b91905055507f1abdb95ba643a5034d9c11d4f0c1b1a04c1319f7f0a1dcb48790b1caf0d38e3581858560405161037693929190610d17565b60405180910390a18091505092915050565b60015481565b60026020528060005260406000206000915090508060000180546103b190610e7c565b80601f01602080910402602001604051908101604052809291908181526020018280546103dd90610e7c565b801561042a5780601f106103ff5761010080835404028352916020019161042a565b820191906000526020600020905b81548152906001019060200180831161040d57829003601f168201915b50505050509080600101805461043f90610e7c565b80601f016020809104026020016040519081016040528092919081815260200182805461046b90610e7c565b80156104b85780601f1061048d576101008083540402835291602001916104b8565b820191906000526020600020905b81548152906001019060200180831161049b57829003601f168201915b5050505050908060020160009054906101000a900460ff16908060020160019054906101000a900473ffffffffffffffffffffffffffffffffffffffff16905084565b60008054906101000a900473ffffffffffffffffffffffffffffffffffffffff1673ffffffffffffffffffffffffffffffffffffffff163373ffffffffffffffffffffffffffffffffffffffff1614610589576040517f08c379a000000000000000000000000000000000000000000000000000000000815260040161058090610c73565b60405180910390fd5b8060015481106105ce576040517f08c379a00000000000000000000000000000000000000000000000000000000081526004016105c590610cb3565b60405180910390fd5b60026000838152602001908152602001600020600080820160006105f29190610899565b6001820160006106029190610899565b6002820160006101000a81549060ff02191690556002820160016101000a81549073ffffffffffffffffffffffffffffffffffffffff021916905550507f42a77abd0397855f875460bb511f41935bfa5f396b556d95717d8c2e08334aae8260405161066e9190610cd3565b60405180910390a15050565b60008054906101000a900473ffffffffffffffffffffffffffffffffffffffff1673ffffffffffffffffffffffffffffffffffffffff163373ffffffffffffffffffffffffffffffffffffffff1614610708576040517f08c379a00000000000000000000000000000000000000000000000000000000081526004016106ff90610c73565b60405180910390fd5b81600154811061074d576040517f08c379a000000000000000000000000000000000000000000000000000000000815260040161074490610cb3565b60405180910390fd5b816002600085815260200190815260200160002060020160006101000a81548160ff021916908360018111156107ac577f4e487b7100000000000000000000000000000000000000000000000000000000600052602160045260246000fd5b02179055507f687265481195f342f2fe5eede43e2f28ac0fcfe04f51317b696b616a67fa9e5d83836040516107e2929190610cee565b60405180910390a1505050565b60008054906101000a900473ffffffffffffffffffffffffffffffffffffffff1681565b82805461081f90610e7c565b90600052602060002090601f0160209004810192826108415760008555610888565b82601f1061085a57805160ff1916838001178555610888565b82800160010185558215610888579182015b8281111561088757825182559160200191906001019061086c565b5b50905061089591906108d9565b5090565b5080546108a590610e7c565b6000825580601f106108b757506108d6565b601f0160209004906000526020600020908101906108d591906108d9565b5b50565b5b808211156108f25760008160009055506001016108da565b5090565b600061090961090484610d8d565b610d5c565b90508281526020810184848401111561092157600080fd5b61092c848285610e3a565b509392505050565b60008135905061094381610fd8565b92915050565b600082601f83011261095a57600080fd5b813561096a8482602086016108f6565b91505092915050565b60008135905061098281610fe8565b92915050565b6000806040838503121561099b57600080fd5b600083013567ffffffffffffffff8111156109b557600080fd5b6109c185828601610949565b925050602083013567ffffffffffffffff8111156109de57600080fd5b6109ea85828601610949565b9150509250929050565b600060208284031215610a0657600080fd5b6000610a1484828501610973565b91505092915050565b60008060408385031215610a3057600080fd5b6000610a3e85828601610973565b9250506020610a4f85828601610934565b9150509250929050565b610a6281610dd9565b82525050565b610a7181610e28565b82525050565b6000610a8282610dbd565b610a8c8185610dc8565b9350610a9c818560208601610e49565b610aa581610fb3565b840191505092915050565b6000610abd601483610dc8565b91507f4e616d652063616e6e6f7420626520656d7074790000000000000000000000006000830152602082019050919050565b6000610afd602a83610dc8565b91507f4f6e6c7920636f6e7472616374206f776e65722063616e2063616c6c2074686960008301527f732066756e6374696f6e000000000000000000000000000000000000000000006020830152604082019050919050565b6000610b63601583610dc8565b91507f456d61696c2063616e6e6f7420626520656d70747900000000000000000000006000830152602082019050919050565b6000610ba3601883610dc8565b91507f5468652075736572206964206973206e6f742076616c696400000000000000006000830152602082019050919050565b610bdf81610e1e565b82525050565b6000602082019050610bfa6000830184610a59565b92915050565b60006080820190508181036000830152610c1a8187610a77565b90508181036020830152610c2e8186610a77565b9050610c3d6040830185610a68565b610c4a6060830184610a59565b95945050505050565b60006020820190508181036000830152610c6c81610ab0565b9050919050565b60006020820190508181036000830152610c8c81610af0565b9050919050565b60006020820190508181036000830152610cac81610b56565b9050919050565b60006020820190508181036000830152610ccc81610b96565b9050919050565b6000602082019050610ce86000830184610bd6565b92915050565b6000604082019050610d036000830185610bd6565b610d106020830184610a68565b9392505050565b6000606082019050610d2c6000830186610bd6565b8181036020830152610d3e8185610a77565b90508181036040830152610d528184610a77565b9050949350505050565b6000604051905081810181811067ffffffffffffffff82111715610d8357610d82610f84565b5b8060405250919050565b600067ffffffffffffffff821115610da857610da7610f84565b5b601f19601f8301169050602081019050919050565b600081519050919050565b600082825260208201905092915050565b6000610de482610dfe565b9050919050565b6000819050610df982610fc4565b919050565b600073ffffffffffffffffffffffffffffffffffffffff82169050919050565b6000819050919050565b6000610e3382610deb565b9050919050565b82818337600083830152505050565b60005b83811015610e67578082015181840152602081019050610e4c565b83811115610e76576000848401525b50505050565b60006002820490506001821680610e9457607f821691505b60208210811415610ea857610ea7610f55565b5b50919050565b6000610eb982610e1e565b91507fffffffffffffffffffffffffffffffffffffffffffffffffffffffffffffffff821415610eec57610eeb610ef7565b5b600182019050919050565b7f4e487b7100000000000000000000000000000000000000000000000000000000600052601160045260246000fd5b7f4e487b7100000000000000000000000000000000000000000000000000000000600052602160045260246000fd5b7f4e487b7100000000000000000000000000000000000000000000000000000000600052602260045260246000fd5b7f4e487b7100000000000000000000000000000000000000000000000000000000600052604160045260246000fd5b6000601f19601f8301169050919050565b60028110610fd557610fd4610f26565b5b50565b60028110610fe557600080fd5b50565b610ff181610e1e565b8114610ffc57600080fd5b5056fea2646970667358221220030405cfea20490627ea511e68fb2aad2c2874936502db9fe22a64795de230a264736f6c63430008000033",
  "immutableReferences": {},
  "source": "// SPDX-License-Identifier: MIT\npragma solidity ^0.8.0;\n\ncontract User {\n    address public owner;\n    uint256 public numUsers = 0;\n    \n    enum userGroup {\n        GENERAL,\n        VERIFIER\n    }\n\n    struct user {\n        string name;\n        string email;\n        userGroup group;\n        address owner;\n    }\n\n    mapping(uint256 => user) public users;\n\n    event UserAdded(uint256 userAddress, string name, string email);\n    event UserUpdated(uint256 userId, userGroup group);\n    event UserDeleted(uint256 userId);\n    \n    modifier ownerOnly() {\n        require(msg.sender == owner, \"Only contract owner can call this function\");\n        _;\n    }\n\n    modifier validUserId(uint256 userId) {\n        require(userId < numUsers, \"The user id is not valid\");\n        _;\n    }\n    \n    constructor() {\n        owner = msg.sender; \n    }\n\n    function addUser(string memory name, string memory email) public returns (uint256) {\n        require(bytes(name).length > 0, \"Name cannot be empty\");\n        require(bytes(email).length > 0, \"Email cannot be empty\");\n\n        uint256 userId = numUsers;\n        users[userId] = user(name, email, userGroup.GENERAL, msg.sender); \n        numUsers++;\n        \n        emit UserAdded(userId, name, email);\n\n        return userId;\n    }\n\n    function updateUserType(uint256 userId, userGroup group) public ownerOnly validUserId(userId) {\n        users[userId].group = group;\n        emit UserUpdated(userId, group);\n    }\n\n    function deleteUser(uint256 userId) public ownerOnly validUserId(userId) {\n        delete users[userId];\n        emit UserDeleted(userId);\n    }\n}\n",
  "sourcePath": "/Users/GuoJun/Documents/NUS/Y4S2/IS4302/IS4302-GP2/contracts/User.sol",
  "compiler": {
    "name": "solc",
    "version": "0.8.0+commit.c7dfd78e.Emscripten.clang"
  },
  "schemaVersion": "3.4.16",
  "updatedAt": "2024-04-15T18:15:55.476Z",
  "networkType": "ethereum",
  "devdoc": {
    "kind": "dev",
    "methods": {},
    "version": 1
  },
  "userdoc": {
    "kind": "user",
    "methods": {},
    "version": 1
  }
}